75600000         232970660000191                    0563100000020098014 EDUULMC CURSOS DE IDIOMAS EIRESICOOB                                  11206202408231400000108100000                                                                     
75600011R01  040 2032970660000191                    0563100000020098014 EDUULMC CURSOS DE IDIOMAS EIRE                                                                                000046031206202400000000                                 
7560001300001P 010563100000020098014 000027078501011     10 224294916630000002006202400000000003595500000 02A12062024120062024000000000000012000000000000000000000000000000000000000000000000000000                         1000   090000000000 
7560001300002Q 011000029424248857ELIEZER QUEIROZ JUNIOR                  AVENIDA BRIGADEIRO FARIA LIMA ,1451     COCAIA         07130000      GUARULHOSSP0000000000000000                                        000                            
7560001300003R 01000000000000000000000000000000000000000000000000120062024000000000000719                                                                                                              0000000000000000 000000000000  0         
7560001300004S 013                                                                                                                                                                                                                              
75600015         00000100000100000000000035955000000000000000000000000000000000000000000000000000000000000000000000                                                                                                                             
75699999         000001000001000000                                                                                                                                                                                                             