75600000         229492820000120                    0563100000020087306 ANEXA IDIOMAS LTDA            SICOOB                                  10511202408145500000108100000                                                                     
75600011R01  040 2029492820000120                    0563100000020087306 ANEXA IDIOMAS LTDA                                                                                            000048040511202400000000                                 
7560001300001P 010563100000020087306 000028622001011     10 224447821440000001511202400000000002830000000 02A05112024115112024000000000000009000000000000000000000000000000000000000000000000000000                         1000   090000000000 
7560001300002Q 011000013236888466JULIANA KARLA FERREIRA GOES             AVENIDA DOM JAIME DE BARROS CAMARA ,885 PLANALTO       09895400SAO BERNARDO DOSP0000000000000000                                        000                            
7560001300003R 01000000000000000000000000000000000000000000000000115112024000000000000566                                                                                                              0000000000000000 000000000000  0         
7560001300004S 013                                                                                                                                                                                                                              
75600015         00000100000100000000000028300000000000000000000000000000000000000000000000000000000000000000000000                                                                                                                             
75699999         000001000001000000                                                                                                                                                                                                             