75600000         232970660000191                    0563100000020098014 EDUULMC CURSOS DE IDIOMAS EIRESICOOB                                  12405202410423300000108100000                                                                     
75600011R01  040 2032970660000191                    0563100000020098014 EDUULMC CURSOS DE IDIOMAS EIRE                                                                                000045802405202400000000                                 
7560001300001P 010563100000020098014 000026923801011     10 224253620160000001006202400000000001500000000 02A24052024110062024000000000000005000000000000000000000000000000000000000000000000000000                         1000   090000000000 
7560001300002Q 011000007940140973GIOVANNI PONTAROLO JUNIOR               AVENIDA ANTONIO RODRIGUES TEIXEIRA ,133 JARDIM CARVALHO84015490   PONTA GROSSAPR0000000000000000                                        000                            
7560001300003R 01000000000000000000000000000000000000000000000000110062024000000000000300                                                                                                              0000000000000000 000000000000  0         
7560001300004S 013                                                                                                                                                                                                                              
75600015         00000100000100000000000015000000000000000000000000000000000000000000000000000000000000000000000000                                                                                                                             
75699999         000001000001000000                                                                                                                                                                                                             