75600000         219895217000135                    0563100000020064454 IWS CURSOS DE IDIOMAS LTDA    SICOOB                                  10602202516250800000108100000                                                                     
75600011R01  040 2019895217000135                    0563100000020064454 IWS CURSOS DE IDIOMAS LTDA                                                                                    000048940602202500000000                                 
7560001300001P 010563100000020064454 000029527701011     10 224143515150000001502202500000000004770000000 02A06022025115022025000000000000016000000000000000000000000000000000000000000000000000000                         1000   090000000000 
7560001300002Q 011000071010386972CARLOS EDUARDO TONELLI COBO             ALAMEDA TERRAZUL ,417                   TERRAS DE SAO C13216774        JUNDIAISP0000000000000000                                        000                            
7560001300003R 01000000000000000000000000000000000000000000000000115022025000000000000954                                                                                                              0000000000000000 000000000000  0         
7560001300004S 013                                                                                                                                                                                                                              
75600015         00000100000100000000000047700000000000000000000000000000000000000000000000000000000000000000000000                                                                                                                             
75699999         000001000001000000                                                                                                                                                                                                             