75600000         229492820000120                    0563100000020087306 ANEXA IDIOMAS LTDA            SICOOB                                  11410202416442000000108100000                                                                     
75600011R01  040 2029492820000120                    0563100000020087306 ANEXA IDIOMAS LTDA                                                                                            000047791410202400000000                                 
7560001300001P 010563100000020087306 000028378701011     10 224429618670000002210202400000000000300000000 02A14102024122102024000000000000001000000000000000000000000000000000000000000000000000000                         1000   090000000000 
7560001300002Q 011000032654262898DIEGO CESAR DE PAULA                    RUA GUADALAJARA ,260                    JARDIM GUANABAR13211822        JUNDIAISP0000000000000000                                        000                            
7560001300003R 01000000000000000000000000000000000000000000000000122102024000000000000060                                                                                                              0000000000000000 000000000000  0         
7560001300004S 013                                                                                                                                                                                                                              
75600015         00000100000100000000000003000000000000000000000000000000000000000000000000000000000000000000000000                                                                                                                             
75699999         000001000001000000                                                                                                                                                                                                             