75600000         229492820000120                    033278000000036648X ANEXA IDIOMAS LTDA            SICOOB                                  10102202117441000000108100000                                                                     
75600011R01  040 2029492820000120                    033278000000036648X ANEXA IDIOMAS LTDA                                                                                            000020760102202100000000                                 
7560001300001P 01033278000000036648X 000012074001011     10 222257612830000000202202100000000002200000000 02A01022021102022021000000000000007000000000000000000000000000000000000000000000000000000                         1000   090000000000 
7560001300002Q 011000016159141880ADRIANA APARECIDA AZEVEDO TRINDADE      RUA ANTAÂ´NIO CONSELHEIRO ,73           SERRARIA       09980330        DIADEMASP0000000000000000                                        000                            
7560001300003R 01000000000000000000000000000000000000000000000000102022021000000000000440                                                                                                              0000000000000000 000000000000  0         
7560001300004S 013                                                                                                                                                                                                                              
75600015         00000100000100000000000022000000000000000000000000000000000000000000000000000000000000000000000000                                                                                                                             
75699999         000001000001000000                                                                                                                                                                                                             