75600000         219895217000135                    0563100000020087306 IWS CURSOS DE IDIOMAS LTDA    SICOOB                                  12010202010142800000108100000                                                                     
75600011R01  040 2019895217000135                    0563100000020087306 IWS CURSOS DE IDIOMAS LTDA                                                                                    000016912010202000000000                                 
7560001300001P 010563100000020087306 000010411601011     10 221709710960000002010202000000000002600000000 02A20102020120102020000000000000009000000000000000000000000000000000000000000000000000000                         1000   090000000000 
7560001300002Q 011000028497824830ELOISA ELENA BARBOSA DOS SANTOS         RUA NOVA CANAA£ ,43                    JARDIM PLANALTO07140555      GUARULHOSSP0000000000000000                                        000                            
7560001300003R 01000000000000000000000000000000000000000000000000120102020000000000000520                                                                                                              0000000000000000 000000000000  0         
7560001300004S 013                                                                                                                                                                                                                              
7560001300005P 010563100000020087306 000010412301011     10 221479422900000002010202000000000002362500000 02A20102020120102020000000000000008000000000000000000000000000000000000000000000000000000                         1000   090000000000 
7560001300006Q 011000039914010881FILLIPE LIMA                            AVENIDA BUENOS AIRES ,306               VILA BUENOS AIR03736020      SAO PAULOSP0000000000000000                                        000                            
7560001300007R 01000000000000000000000000000000000000000000000000120102020000000000000473                                                                                                              0000000000000000 000000000000  0         
7560001300008S 013                                                                                                                                                                                                                              
75600015         00000200000200000000000049625000000000000000000000000000000000000000000000000000000000000000000000                                                                                                                             
75699999         000001000002000000                                                                                                                                                                                                             