75600000         232970660000191                    0563100000020098014 EDUULMC CURSOS DE IDIOMAS EIRESICOOB                                  10611202418264800000108100000                                                                     
75600011R01  040 2032970660000191                    0563100000020098014 EDUULMC CURSOS DE IDIOMAS EIRE                                                                                000048110611202400000000                                 
7560001300001P 010563100000020098014 000028671401011     10 224452721460000001011202400000000002500000000 02A06112024110112024000000000000008000000000000000000000000000000000000000000000000000000                         1000   090000000000 
7560001300002Q 011000030974670847MARCOS APARECIDO SOARES                 AVENIDA PROFESSOR JOAQUIM PASSOS E SI,10VILA ITA       12321311SAO SILVESTRE DSP0000000000000000                                        000                            
7560001300003R 01000000000000000000000000000000000000000000000000110112024000000000000500                                                                                                              0000000000000000 000000000000  0         
7560001300004S 013                                                                                                                                                                                                                              
75600015         00000100000100000000000025000000000000000000000000000000000000000000000000000000000000000000000000                                                                                                                             
75699999         000001000001000000                                                                                                                                                                                                             