75600000         219895217000135                    0563100000020064454 IWS CURSOS DE IDIOMAS LTDA    SICOOB                                  10808202409030800000108100000                                                                     
75600011R01  040 2019895217000135                    0563100000020064454 IWS CURSOS DE IDIOMAS LTDA                                                                                    000046870808202400000000                                 
7560001300001P 010563100000020064454 000027666801011     10 224360020950000001008202400000000002300000000 02A08082024110082024000000000000008000000000000000000000000000000000000000000000000000000                         1000   090000000000 
7560001300002Q 011000031086591895RODRIGO DIOGO PEREIRA                   RUA ALVARENGA PEIXOTO ,551              SAO PAULO II   06706095          COTIASP0000000000000000                                        000                            
7560001300003R 01000000000000000000000000000000000000000000000000110082024000000000000460                                                                                                              0000000000000000 000000000000  0         
7560001300004S 013                                                                                                                                                                                                                              
7560001300005P 010563100000020064454 000027667501011     10 224364317040000001508202400000000000500000000 02A08082024115082024000000000000002000000000000000000000000000000000000000000000000000000                         1000   090000000000 
7560001300006Q 011000016027907878MARCIA SAPATA DA SILVA                  RUA NARAIN SINGH LUSCHINI ,149          PARQUE CONTINEN07085010      GUARULHOSSP0000000000000000                                        000                            
7560001300007R 01000000000000000000000000000000000000000000000000115082024000000000000100                                                                                                              0000000000000000 000000000000  0         
7560001300008S 013                                                                                                                                                                                                                              
75600015         00000200000200000000000028000000000000000000000000000000000000000000000000000000000000000000000000                                                                                                                             
75699999         000001000002000000                                                                                                                                                                                                             