75600000         229492820000120                    0563100000020087306 ANEXA IDIOMAS LTDA            SICOOB                                  10710202414371600000108100000                                                                     
75600011R01  040 2029492820000120                    0563100000020087306 ANEXA IDIOMAS LTDA                                                                                            000047690710202400000000                                 
7560001300001P 010563100000020087306 000028303501011     10 224422920450000001010202400000000001350000000 02A07102024110102024000000000000004000000000000000000000000000000000000000000000000000000                         1000   090000000000 
7560001300002Q 011000033025700823SHIRLEI BATISTA MORILLO                 RUA CAPITAO OLEGARIO TEIXEIRA DA C,117  PLANALTO       09895690SAO BERNARDO DOSP0000000000000000                                        000                            
7560001300003R 01000000000000000000000000000000000000000000000000110102024000000000000270                                                                                                              0000000000000000 000000000000  0         
7560001300004S 013                                                                                                                                                                                                                              
75600015         00000100000100000000000013500000000000000000000000000000000000000000000000000000000000000000000000                                                                                                                             
75699999         000001000001000000                                                                                                                                                                                                             