75600000         219895217000135                    0563100000020064454 IWS CURSOS DE IDIOMAS LTDA    SICOOB                                  10202202115395000000108100000                                                                     
75600011R01  040 2019895217000135                    0563100000020064454 IWS CURSOS DE IDIOMAS LTDA                                                                                    000021000202202100000000                                 
7560001300001P 010563100000020064454 000012080801011     10 221872212440000003001202100000000002000000000 02A02022021130012021000000000000007000000000000000000000000000000000000000000000000000000                         1000   090000000000 
7560001300002Q 011000034378658895ANDREZA ALVES DOS SANTOS                RUA VINTE E TRAÂªS ,461                 PARQUE PIRATINI07251710      GUARULHOSSP0000000000000000                                        000                            
7560001300003R 01000000000000000000000000000000000000000000000000130012021000000000000400                                                                                                              0000000000000000 000000000000  0         
7560001300004S 013                                                                                                                                                                                                                              
75600015         00000100000100000000000020000000000000000000000000000000000000000000000000000000000000000000000000                                                                                                                             
75699999         000001000001000000                                                                                                                                                                                                             