75600000         219895217000135                    0563100000020064454 IWS CURSOS DE IDIOMAS LTDA    SICOOB                                  10302202516124500000108100000                                                                     
75600011R01  040 2019895217000135                    0563100000020064454 IWS CURSOS DE IDIOMAS LTDA                                                                                    000048900302202500000000                                 
7560001300001P 010563100000020064454 000029522001011     10 224630119820000001002202500000000002385000000 02A03022025110022025000000000000008000000000000000000000000000000000000000000000000000000                         1000   090000000000 
7560001300002Q 011000032864696886DANILO NOVO OTAVIANO                    RUA MARRET ,24                          VILA PROGRESSO 07095140      GUARULHOSSP0000000000000000                                        000                            
7560001300003R 01000000000000000000000000000000000000000000000000110022025000000000000477                                                                                                              0000000000000000 000000000000  0         
7560001300004S 013                                                                                                                                                                                                                              
75600015         00000100000100000000000023850000000000000000000000000000000000000000000000000000000000000000000000                                                                                                                             
75699999         000001000001000000                                                                                                                                                                                                             