75600000         219895217000135                    0563100000020064454 IWS CURSOS DE IDIOMAS LTDA    SICOOB                                  10102202121472100000108100000                                                                     
75600011R01  040 2019895217000135                    0563100000020064454 IWS CURSOS DE IDIOMAS LTDA                                                                                    000020800102202100000000                                 
7560001300001P 010563100000020064454 000012073601011     10 222258089700000000102202100000000002288000000 02A01022021101022021000000000000008000000000000000000000000000000000000000000000000000000                         1000   090000000000 
7560001300002Q 011000009526409884MARCELO DOS REIS                        RUA SOLDADO BRASAÂ­LIO PINTO,07.020-070 VILA ALMEIDA   07020070      GUARULHOSSP0000000000000000                                        000                            
7560001300003R 01000000000000000000000000000000000000000000000000101022021000000000000458                                                                                                              0000000000000000 000000000000  0         
7560001300004S 013                                                                                                                                                                                                                              
75600015         00000100000100000000000022880000000000000000000000000000000000000000000000000000000000000000000000                                                                                                                             
75699999         000001000001000000                                                                                                                                                                                                             