75600000         232970660000191                    0563100000020098014 EDUULMC CURSOS DE IDIOMAS EIRESICOOB                                  11912202415073000000108100000                                                                     
75600011R01  040 2032970660000191                    0563100000020098014 EDUULMC CURSOS DE IDIOMAS EIRE                                                                                000048431912202400000000                                 
7560001300001P 010563100000020098014 000029212101011     10 224104231000000000501202500000000013365000000 02A19122024105012025000000000000044000000000000000000000000000000000000000000000000000000                         1000   090000000000 
7560001300002Q 012061139622000190LILLA                                   RUA CONSTANCIO COLALILO ,382            VILA AUGUSTA   07024150      GUARULHOSSP0000000000000000                                        000                            
7560001300003R 01000000000000000000000000000000000000000000000000105012025000000000002673                                                                                                              0000000000000000 000000000000  0         
7560001300004S 013                                                                                                                                                                                                                              
75600015         00000100000100000000000133650000000000000000000000000000000000000000000000000000000000000000000000                                                                                                                             
75699999         000001000001000000                                                                                                                                                                                                             