75600000         219895217000135                    0332780000000364436 IWS CURSOS DE IDIOMAS LTDA    SICOOB                                  10102202121561100000108100000                                                                     
75600011R01  040 2019895217000135                    0332780000000364436 IWS CURSOS DE IDIOMAS LTDA                                                                                    000020830102202100000000                                 
7560001300001P 010332780000000364436 000012077601011     10 222258214800000001502202100000000003500000000 02A01022021115022021000000000000012000000000000000000000000000000000000000000000000000000                         1000   090000000000 
7560001300002Q 011000015345827893ANA PAULA MOURA                         ALAMEDA JOAQUIM EUGAÂªNIO DE LI,177/121 JARDIM PAULISTA01403001      SAO PAULOSP0000000000000000                                        000                            
7560001300003R 01000000000000000000000000000000000000000000000000115022021000000000000700                                                                                                              0000000000000000 000000000000  0         
7560001300004S 013                                                                                                                                                                                                                              
75600015         00000100000100000000000035000000000000000000000000000000000000000000000000000000000000000000000000                                                                                                                             
75699999         000001000001000000                                                                                                                                                                                                             