75600000         219895217000135                    0563100000020064454 IWS CURSOS DE IDIOMAS LTDA    SICOOB                                  10302202118462400000108100000                                                                     
75600011R01  040 2019895217000135                    0563100000020064454 IWS CURSOS DE IDIOMAS LTDA                                                                                    000021050302202100000000                                 
7560001300001P 010563100000020064454 000012084701011     10 221485817000000001502202100000000003087000000 02A03022021115022021000000000000010000000000000000000000000000000000000000000000000000000                         1000   090000000000 
7560001300002Q 011000028554765850ADRIANA MARIA RODRIGUES                 ALAMEDA JOAQUIM EUGAÂªNIO DE LIMA ,113  JARDIM PAULISTA01403001      SAO PAULOSP0000000000000000                                        000                            
7560001300003R 01000000000000000000000000000000000000000000000000115022021000000000000617                                                                                                              0000000000000000 000000000000  0         
7560001300004S 013                                                                                                                                                                                                                              
75600015         00000100000100000000000030870000000000000000000000000000000000000000000000000000000000000000000000                                                                                                                             
75699999         000001000001000000                                                                                                                                                                                                             