75600000         219895217000135                    0563100000020064454 IWS CURSOS DE IDIOMAS LTDA    SICOOB                                  10608202409080400000108100000                                                                     
75600011R01  040 2019895217000135                    0563100000020064454 IWS CURSOS DE IDIOMAS LTDA                                                                                    000046830608202400000000                                 
7560001300001P 010563100000020064454 000027647801011     10 223977215300000002008202400000000000490400000 02A06082024120082024000000000000002000000000000000000000000000000000000000000000000000000                         1000   090000000000 
7560001300002Q 011000032300678861DIOGO NEVES MARINHO                     RUA JOSE DAMACENO ,08                   GUACURI        04475300      SAO PAULOSP0000000000000000                                        000                            
7560001300003R 01000000000000000000000000000000000000000000000000120082024000000000000098                                                                                                              0000000000000000 000000000000  0         
7560001300004S 013                                                                                                                                                                                                                              
75600015         00000100000100000000000004904000000000000000000000000000000000000000000000000000000000000000000000                                                                                                                             
75699999         000001000001000000                                                                                                                                                                                                             