75600000         219895217000135                    0563100000020064454 IWS CURSOS DE IDIOMAS LTDA    SICOOB                                  10602202516271900000108100000                                                                     
75600011R01  040 2019895217000135                    0563100000020064454 IWS CURSOS DE IDIOMAS LTDA                                                                                    000048990602202500000000                                 
7560001300001P 010563100000020064454 000029551401011     10 224439513200000002002202500000000003933300000 02A06022025120022025000000000000013000000000000000000000000000000000000000000000000000000                         1000   090000000000 
7560001300002Q 011000014040948068HELOISA HELENA MONTEIRO KROMBERG        RUA DOS FRANCESES ,498 111 E            MORRO DOS INGLE01329010      SAO PAULOSP0000000000000000                                        000                            
7560001300003R 01000000000000000000000000000000000000000000000000120022025000000000000787                                                                                                              0000000000000000 000000000000  0         
7560001300004S 013                                                                                                                                                                                                                              
7560001300005P 010563100000020064454 000029552101011     10 224498648900000002002202500000000002963900000 02A06022025120022025000000000000010000000000000000000000000000000000000000000000000000000                         1000   090000000000 
7560001300006Q 011000048915085825JOYCE BOLOGNANI ROVERI                  AVENIDA DOM JAIME DE BARROS CAMARA ,715 PLANALTO       09895400SAO BERNARDO DOSP0000000000000000                                        000                            
7560001300007R 01000000000000000000000000000000000000000000000000120022025000000000000593                                                                                                              0000000000000000 000000000000  0         
7560001300008S 013                                                                                                                                                                                                                              
7560001300009P 010563100000020064454 000029553901011     10 224522613220000002002202500000000003633700000 02A06022025120022025000000000000012000000000000000000000000000000000000000000000000000000                         1000   090000000000 
7560001300010Q 011000000887279805THAIS FAE LAVAREDA DE SOUZA             RUA DOS HOLANDESES ,31 APT 51           MORRO DOS INGLE01329020      SAO PAULOSP0000000000000000                                        000                            
7560001300011R 01000000000000000000000000000000000000000000000000120022025000000000000727                                                                                                              0000000000000000 000000000000  0         
7560001300012S 013                                                                                                                                                                                                                              
75600015         00000300000300000000000105309000000000000000000000000000000000000000000000000000000000000000000000                                                                                                                             
75699999         000001000003000000                                                                                                                                                                                                             