75600000         232970660000191                    0563100000020098014 EDUULMC CURSOS DE IDIOMAS EIRESICOOB                                  12606202414103800000108100000                                                                     
75600011R01  040 2032970660000191                    0563100000020098014 EDUULMC CURSOS DE IDIOMAS EIRE                                                                                000046152606202400000000                                 
7560001300001P 010563100000020098014 000027156501011     10 224103631000000000507202400000000013365000000 02A26062024105072024000000000000044000000000000000000000000000000000000000000000000000000                         1000   090000000000 
7560001300002Q 012061139622000190LILLA                                   RUA CONSTANCIO COLALILO ,382            VILA AUGUSTA   07024150      GUARULHOSSP0000000000000000                                        000                            
7560001300003R 01000000000000000000000000000000000000000000000000105072024000000000002673                                                                                                              0000000000000000 000000000000  0         
7560001300004S 013                                                                                                                                                                                                                              
75600015         00000100000100000000000133650000000000000000000000000000000000000000000000000000000000000000000000                                                                                                                             
75699999         000001000001000000                                                                                                                                                                                                             