75600000         219895217000135                    0563100000020064454 IWS CURSOS DE IDIOMAS LTDA    SICOOB                                  11610202413101400000108100000                                                                     
75600011R01  040 2019895217000135                    0563100000020064454 IWS CURSOS DE IDIOMAS LTDA                                                                                    000047811610202400000000                                 
7560001300001P 010563100000020064454 000028380501011     10 224432521350000002010202400000000006960000000 02A16102024120102024000000000000023000000000000000000000000000000000000000000000000000000                         1000   090000000000 
7560001300002Q 011000042363400895MARIA TEREZA BORATTO BARBOSA            RUA MANDURI ,256                        JARDIM PARAISO 09190280    SANTO ANDRESP0000000000000000                                        000                            
7560001300003R 01000000000000000000000000000000000000000000000000120102024000000000001392                                                                                                              0000000000000000 000000000000  0         
7560001300004S 013                                                                                                                                                                                                                              
75600015         00000100000100000000000069600000000000000000000000000000000000000000000000000000000000000000000000                                                                                                                             
75699999         000001000001000000                                                                                                                                                                                                             