75600000         219895217000135                    0563100000020064454 IWS CURSOS DE IDIOMAS LTDA    SICOOB                                  10202202115413800000108100000                                                                     
75600011R01  040 2019895217000135                    0563100000020064454 IWS CURSOS DE IDIOMAS LTDA                                                                                    000021010202202100000000                                 
7560001300001P 010563100000020064454 000012081501011     10 222260112440000000202202100000000002042000000 02A02022021102022021000000000000007000000000000000000000000000000000000000000000000000000                         1000   090000000000 
7560001300002Q 011000034378658895ANDREZA ALVES DOS SANTOS                RUA VINTE E TRAÂªS ,461                 PARQUE PIRATINI07251710      GUARULHOSSP0000000000000000                                        000                            
7560001300003R 01000000000000000000000000000000000000000000000000102022021000000000000408                                                                                                              0000000000000000 000000000000  0         
7560001300004S 013                                                                                                                                                                                                                              
75600015         00000100000100000000000020420000000000000000000000000000000000000000000000000000000000000000000000                                                                                                                             
75699999         000001000001000000                                                                                                                                                                                                             