75600000         229492820000120                    0563100000020087306 ANEXA IDIOMAS LTDA            SICOOB                                  10102202121481600000108100000                                                                     
75600011R01  040 2029492820000120                    0563100000020087306 ANEXA IDIOMAS LTDA                                                                                            000020810102202100000000                                 
7560001300001P 010563100000020087306 000012074001011     10 222258176100000000502202100000000002912000000 02A01022021105022021000000000000010000000000000000000000000000000000000000000000000000000                         1000   090000000000 
7560001300002Q 011000014028267889ZERINEIDE ADELAIDE MACEDO OLIVEIRA GALVEAV: DOM JAIME DE BARROS CAÂ¢MARA ,715   PLANALTO       09895400SAO BERNARDO DOSP0000000000000000                                        000                            
7560001300003R 01000000000000000000000000000000000000000000000000105022021000000000000582                                                                                                              0000000000000000 000000000000  0         
7560001300004S 013                                                                                                                                                                                                                              
75600015         00000100000100000000000029120000000000000000000000000000000000000000000000000000000000000000000000                                                                                                                             
75699999         000001000001000000                                                                                                                                                                                                             