75600000         219895217000135                    0563100000020064454 IWS CURSOS DE IDIOMAS LTDA    SICOOB                                  10208202412571500000108100000                                                                     
75600011R01  040 2019895217000135                    0563100000020064454 IWS CURSOS DE IDIOMAS LTDA                                                                                    000046770208202400000000                                 
7560001300001P 010563100000020064454 000027618401011     10 224350220860000001008202400000000002100000000 02A02082024110082024000000000000007000000000000000000000000000000000000000000000000000000                         1000   090000000000 
7560001300002Q 011000034465431805JACIANE IZIDORIO DE OLIVEIRA SOUZA      RUA JOSE FRANCA ,97                     PARQUE SAO MIGU07260180      GUARULHOSSP0000000000000000                                        000                            
7560001300003R 01000000000000000000000000000000000000000000000000110082024000000000000420                                                                                                              0000000000000000 000000000000  0         
7560001300004S 013                                                                                                                                                                                                                              
7560001300005P 010563100000020064454 000027619101011     10 224349020850000001508202400000000002100000000 02A02082024115082024000000000000007000000000000000000000000000000000000000000000000000000                         1000   090000000000 
7560001300006Q 011000028048739860MARCELO DORNAS PANHOTTA NEVES           RUA ANTONIO RABELLO ,50                 JARDIM ALIANCA 07063080      GUARULHOSSP0000000000000000                                        000                            
7560001300007R 01000000000000000000000000000000000000000000000000115082024000000000000420                                                                                                              0000000000000000 000000000000  0         
7560001300008S 013                                                                                                                                                                                                                              
7560001300009P 010563100000020064454 000027620001011     10 224354315700000001008202400000000000750000000 02A02082024110082024000000000000002000000000000000000000000000000000000000000000000000000                         1000   090000000000 
7560001300010Q 011000007057855990KAUANNE FERREIRA DE MELO                RUA SARGENTO GONCALO JOAQUIM DE OLI,214 PARQUE CONTINEN07084184      GUARULHOSSP0000000000000000                                        000                            
7560001300011R 01000000000000000000000000000000000000000000000000110082024000000000000150                                                                                                              0000000000000000 000000000000  0         
7560001300012S 013                                                                                                                                                                                                                              
75600015         00000300000300000000000049500000000000000000000000000000000000000000000000000000000000000000000000                                                                                                                             
75699999         000001000003000000                                                                                                                                                                                                             