75600000         219895217000135                    0563100000020064454 IWS CURSOS DE IDIOMAS LTDA    SICOOB                                  12012202401180800000108100000                                                                     
75600011R01  040 2019895217000135                    0563100000020064454 IWS CURSOS DE IDIOMAS LTDA                                                                                    000048442012202400000000                                 
7560001300001P 010563100000020064454 000029213901011     10 224535115830000001501202500000000006996000000 02A20122024115012025000000000000023000000000000000000000000000000000000000000000000000000                         1000   090000000000 
7560001300002Q 011000024985557811VIVIANE MAGLIANO                        RUA CATAO ,626                          VILA ROMANA    05049000      SAO PAULOSP0000000000000000                                        000                            
7560001300003R 01000000000000000000000000000000000000000000000000115012025000000000001399                                                                                                              0000000000000000 000000000000  0         
7560001300004S 013                                                                                                                                                                                                                              
75600015         00000100000100000000000069960000000000000000000000000000000000000000000000000000000000000000000000                                                                                                                             
75699999         000001000001000000                                                                                                                                                                                                             