75600000         219895217000135                    0563100000020064454 IWS CURSOS DE IDIOMAS LTDA    SICOOB                                  12106202408590200000108100000                                                                     
75600011R01  040 2019895217000135                    0563100000020064454 IWS CURSOS DE IDIOMAS LTDA                                                                                    000046092106202400000000                                 
7560001300001P 010563100000020064454 000027117801011     10 223743173300000000507202400000000003021400000 02A21062024105072024000000000000010000000000000000000000000000000000000000000000000000000                         1000   090000000000 
7560001300002Q 011000002135412899FELICIA DEL GALLO ROCHA                 RUA PROFESSOR APRIGIO GONZAGA ,435      SAO JUDAS      04303001      SAO PAULOSP0000000000000000                                        000                            
7560001300003R 01000000000000000000000000000000000000000000000000105072024000000000000604                                                                                                              0000000000000000 000000000000  0         
7560001300004S 013                                                                                                                                                                                                                              
7560001300005P 010563100000020064454 000027118501011     10 224048919880000000507202400000000007880000000 02A21062024105072024000000000000026000000000000000000000000000000000000000000000000000000                         1000   090000000000 
7560001300006Q 011000039743835814HUDSON CARDOSO DE OLIVEIRA              RUA BEGONIA ,126                        VILLA VERDE    07813010FRANCO DA ROCHASP0000000000000000                                        000                            
7560001300007R 01000000000000000000000000000000000000000000000000105072024000000000001576                                                                                                              0000000000000000 000000000000  0         
7560001300008S 013                                                                                                                                                                                                                              
75600015         00000200000200000000000109014000000000000000000000000000000000000000000000000000000000000000000000                                                                                                                             
75699999         000001000002000000                                                                                                                                                                                                             