75600000         229492820000120                    0563100000020087306 ANEXA IDIOMAS LTDA            SICOOB                                  10111202409535000000108100000                                                                     
75600011R01  040 2029492820000120                    0563100000020087306 ANEXA IDIOMAS LTDA                                                                                            000047980111202400000000                                 
7560001300001P 010563100000020087306 000028564801011     10 224059590000000002011202400000000027605800000 02A01112024120112024000000000000091000000000000000000000000000000000000000000000000000000                         1000   090000000000 
7560001300002Q 012060687639000119PLURY QUIMICAS                          RUA SERRA DA BORBOREMA ,270             CAMPANARIO     09930580        DIADEMASP0000000000000000                                        000                            
7560001300003R 01000000000000000000000000000000000000000000000000120112024000000000005521                                                                                                              0000000000000000 000000000000  0         
7560001300004S 013                                                                                                                                                                                                                              
75600015         00000100000100000000000276058000000000000000000000000000000000000000000000000000000000000000000000                                                                                                                             
75699999         000001000001000000                                                                                                                                                                                                             