75600000         219895217000135                    0563100000020064454 IWS CURSOS DE IDIOMAS LTDA    SICOOB                                  10807202410515700000108100000                                                                     
75600011R01  040 2019895217000135                    0563100000020064454 IWS CURSOS DE IDIOMAS LTDA                                                                                    000046350807202400000000                                 
7560001300001P 010563100000020064454 000027351201011     10 223907718840000002507202400000000004346000000 02A08072024125072024000000000000014000000000000000000000000000000000000000000000000000000                         1000   090000000000 
7560001300002Q 011000033081822890DANIEL RIBEIRO NOGUEIRA PORTO           RUA OSVALDO MELLI (RESIDENCIAL RESERV,81BOSQUE         13283508        VINHEDOSP0000000000000000                                        000                            
7560001300003R 01000000000000000000000000000000000000000000000000125072024000000000000869                                                                                                              0000000000000000 000000000000  0         
7560001300004S 013                                                                                                                                                                                                                              
75600015         00000100000100000000000043460000000000000000000000000000000000000000000000000000000000000000000000                                                                                                                             
75699999         000001000001000000                                                                                                                                                                                                             