75600000         229492820000120                    0563100000020087306 ANEXA IDIOMAS LTDA            SICOOB                                  10201202512100000000108100000                                                                     
75600011R01  040 2029492820000120                    0563100000020087306 ANEXA IDIOMAS LTDA                                                                                            000048450201202500000000                                 
7560001300001P 010563100000020087306 000029214301011     10 224535368600000003012202400000000003150000000 02A02012025130122024000000000000010000000000000000000000000000000000000000000000000000000                         1000   090000000000 
7560001300002Q 011000088679497487PATRICIA FRAZAO DE OLIVEIRA             RUA SILVIA ,10                          BELA VISTA     01331010      SAO PAULOSP0000000000000000                                        000                            
7560001300003R 01000000000000000000000000000000000000000000000000130122024000000000000630                                                                                                              0000000000000000 000000000000  0         
7560001300004S 013                                                                                                                                                                                                                              
75600015         00000100000100000000000031500000000000000000000000000000000000000000000000000000000000000000000000                                                                                                                             
75699999         000001000001000000                                                                                                                                                                                                             