75600000         232970660000191                    0563100000020098014 EDUULMC CURSOS DE IDIOMAS EIRESICOOB                                  10702202515500700000108100000                                                                     
75600011R01  040 2032970660000191                    0563100000020098014 EDUULMC CURSOS DE IDIOMAS EIRE                                                                                000049020702202500000000                                 
7560001300001P 010563100000020098014 000029579001011     10 224669021800000001002202500000000002500000000 02A07022025110022025000000000000008000000000000000000000000000000000000000000000000000000                         1000   090000000000 
7560001300002Q 011000015608642813ADRIANO GITTI                           RUA OURO PRETO ,200                     VILA GILDA     09190450    SANTO ANDRESP0000000000000000                                        000                            
7560001300003R 01000000000000000000000000000000000000000000000000110022025000000000000500                                                                                                              0000000000000000 000000000000  0         
7560001300004S 013                                                                                                                                                                                                                              
75600015         00000100000100000000000025000000000000000000000000000000000000000000000000000000000000000000000000                                                                                                                             
75699999         000001000001000000                                                                                                                                                                                                             