75600000         232970660000191                    0563100000020098014 EDUULMC CURSOS DE IDIOMAS EIRESICOOB                                  11012202420004100000108100000                                                                     
75600011R01  040 2032970660000191                    0563100000020098014 EDUULMC CURSOS DE IDIOMAS EIRE                                                                                000048371012202400000000                                 
7560001300001P 010563100000020098014 000029044301011     10 224527521550000003012202400000000000600000000 02A10122024130122024000000000000002000000000000000000000000000000000000000000000000000000                         1000   090000000000 
7560001300002Q 011000054348414840MATHEUS DE OLIVEIRA VANKAICK LAMEIRINHA RUA PEDRO FERRER ,40                    PARQUE IPE     05572070      SAO PAULOSP0000000000000000                                        000                            
7560001300003R 01000000000000000000000000000000000000000000000000130122024000000000000120                                                                                                              0000000000000000 000000000000  0         
7560001300004S 013                                                                                                                                                                                                                              
75600015         00000100000100000000000006000000000000000000000000000000000000000000000000000000000000000000000000                                                                                                                             
75699999         000001000001000000                                                                                                                                                                                                             