75600000         229492820000120                    05631000000200873060ANEXA IDIOMAS LTDA            SICOOB                                  21107202409424000109108500000                                                                     
75600011T01  043 2029492820000120          563100002405631000000200873060ANEXA IDIOMAS LTDA                                                                                            000000001107202400000000                                 
7560001300001T 0605631000000200873060000027190301011     141902204100000010072024000000000022880237001120                         091000082872864849AIDE BRITO DE DEUS OLIVEIRA             00000000000000000000003500000000004                 
7560001300002U 060000000000000000000000000000000000000000000000000000000000000000000000228800000000000228800000000000000000000000000000001007202410072024    00000000000000000000000                       764288075600000000000000000000       
7560001300003T 0605631000000200873060000027191001011     139005182900000010072024000000000021094341007880                         091000010645957828ROSANA BOSON CONCEICAO MACEDO           00000000000000000000003500000000004                 
7560001300004U 060000000000000000000000000000000000000000000000000000000000000000000000210940000000000210940000000000000000000000000000001007202410072024    00000000000000000000000                       764266475600000000000000000000       
7560001300005T 0605631000000200873060000027192801011     139017185100000010072024000000000028832341037500                         091000027245205809ANSELMO DOS SANTOS                      00000000000000000000003500000000004                 
7560001300006U 060000000000000000000000000000000000000000000000000000000000000000000000288320000000000288320000000000000000000000000000001007202410072024    00000000000000000000000                       764199275600000000000000000000       
7560001300007T 0605631000000200873060000027194201011     141979172600000010072024000000000020112033047230                         091000020533601860LUCIANA CARVALHO                        00000000000000000000003500000000004                 
7560001300008U 060000000000000000000000000000000000000000000000000000000000000000000000201120000000000201120000000000000000000000000000001007202410072024    00000000000000000000000                       764590675600000000000000000000       
7560001300009T 0605631000000200873060000027197401011     140650190600000010072024000000000028376237013220                         091000044197827814EDUARDO ARENS BENI                      00000000000000000000003500000000004                 
7560001300010U 060000000000000000000000000000000000000000000000000000000000000000000000283760000000000283760000000000000000000000000000001007202410072024    00000000000000000000000                       764654475600000000000000000000       
7560001300011T 0605631000000200873060000027199901011     140529199000000010072024000000000022000237023850                         091000034614329896MANOEL J NETO                           00000000000000000000003500000000004                 
7560001300012U 060000000000000000000000000000000000000000000000000000000000000000000000220000000000000220000000000000000000000000000000001007202410072024    00000000000000000000000                       764281875600000000000000000000       
7560001300013T 0605631000000200873060000027200201011     139915133200000010072024000000000024200033015720                         091000037261643831GABRIELA RAMOS DOS SANTOS               00000000000000000000003500000000004                 
7560001300014U 060000000000000000000000000000000000000000000000000000000000000000000000242000000000000242000000000000000000000000000000001007202410072024    00000000000000000000000                       764554675600000000000000000000       
7560001300015T 0605631000000200873060000027201001011     137479113000000010072024000000000040810033046320                         091000027109212866ALESSANDRA DOURADO MELO                 00000000000000000000003500000000004                 
7560001300016U 060000000000000000000000000000000000000000000000000000000000000000000000408100000000000408100000000000000000000000000000001007202410072024    00000000000000000000000                       764590475600000000000000000000       
7560001300017T 0605631000000200873060000027203401011     139245128400000010072024000000000034662341007560                         091000000623528819ANTONIO CARLOS DA SILVA                 00000000000000000000003500000000004                 
7560001300018U 060000000000000000000000000000000000000000000000000000000000000000000000346620000000000346620000000000000000000000000000001007202410072024    00000000000000000000000                       764201475600000000000000000000       
7560001300019T 0605631000000200873060000027206601011     138873159000000010072024000000000020000341031300                         091000044355857824LEANDRO DA PAZ PEDRO                    00000000000000000000003500000000004                 
7560001300020U 060000000000000000000000000000000000000000000000000000000000000000000000200000000000000200000000000000000000000000000000001007202410072024    00000000000000000000000                       764662675600000000000000000000       
7560001300021T 0605631000000200873060000027213801011     139425129500000010072024000000000034980509000010                         091000031192736869ELIDA DE CAMPOS HEIN                    00000000000000000000003500000000004                 
7560001300022U 060000000000000000000000000000000000000000000000000000000000000000000000349800000000000349800000000000000000000000000000001007202410072024    00000000000000000000000                       764727675600000000000000000000       
7560001300023T 0605631000000200873060000027279301011     138345194600000015072024000000000017900341073860                         091000000580681637VIVIANE DALCIN GARCIA DE OLIVEIRA       00000000000000000000003500000000004                 
7560001300024U 060000000000000000000000000000000000000000000000000000000000000000000000179000000000000179000000000000000000000000000000001007202410072024    00000000000000000000000                       764606675600000000000000000000       
7560001300025T 0605631000000200873060000027341601011     141729202800000020072024000000000035200033015720                         091000043469702810RENAN FERREIRA DIAS                     00000000000000000000003500000000004                 
7560001300026U 060000000000000000000000000000000000000000000000000000000000000000000000352000000000000352000000000000000000000000000000001007202410072024    00000000000000000000000                       764276675600000000000000000000       
75600015         00002800001300000000000351046000000000000000000000000000000000000000000000000000000000000000000000                                                                                                                             
75699999         000001000030000000                                                                                                                                                                                                             
