75600000         229492820000120                    05631000000200873060ANEXA IDIOMAS LTDA            SICOOB                                  22711202408421600116108500000                                                                     
75600011T01  043 2029492820000120          563100002405631000000200873060ANEXA IDIOMAS LTDA                                                                                            000000002711202400000000                                 
7560001300001T 0605631000000200873060000028649901011     141932204300000020112024000000000028300033044330                         091000026257486807ELIANA SOUSA DE OLIVEIRA                00000000000000000000003500000000004                 
7560001300002U 060000000000006200000000000000000000000000000000000000000000000000000000289200000000000289200000000000000000000000000000002611202426112024    00000000000000000000000                       800129375600000000000000000000       
7560001300003T 0605631000000200873060000028721501011     141217197000000030112024000000000030000341082550                         091000000879236884RAQUEL DIAS RAMALHO                     00000000000000000000003500000000004                 
7560001300004U 060000000000000000000000000000000000000000000000000000000000000000000000300000000000000300000000000000000000000000000000002611202426112024    00000000000000000000000                       800139775600000000000000000000       
75600015         00000600000200000000000058300000000000000000000000000000000000000000000000000000000000000000000000                                                                                                                             
75699999         000001000008000000                                                                                                                                                                                                             
