75600000         219895217000135                    05631000000200644540IWS CURSOS DE IDIOMAS LTDA    SICOOB                                  21308202408414600137108500000                                                                     
75600011T01  043 2019895217000135          563100002405631000000200644540IWS CURSOS DE IDIOMAS LTDA                                                                                    000000001308202400000000                                 
7560001300001T 0605631000000200644540000027467101011     140464198600000010082024000000000026700001070710                         091000013507076861ALEXANDRE LEAO LUCCHESI                 00000000000000000000003500000000004                 
7560001300002U 060000000000000000000000000000000000000000000000000000000000000000000000267000000000000267000000000000000000000000000000001208202412082024    00000000000000000000000                       772655575600000000000000000000       
7560001300003T 0605631000000200644540000027476801011     142769256000000010082024000000000039551001067610                         091000007810479865IDERALDO ELMER RIBEIRO                  00000000000000000000003500000000004                 
7560001300004U 060000000000000000000000000000000000000000000000000000000000000000000000395510000000000395510000000000000000000000000000001208202412082024    00000000000000000000000                       772655375600000000000000000000       
7560001300005T 0605631000000200644540000027477501011     141277201700000010082024000000000010000341074220                         091000009727368670ISABELA KRISTINA MESQUITA SILVA         00000000000000000000003500000000004                 
7560001300006U 060000000000000000000000000000000000000000000000000000000000000000000000100000000000000100000000000000000000000000000000001208202412082024    00000000000000000000000                       772903775600000000000000000000       
7560001300007T 0605631000000200644540000027478201011     143421207900000010082024000000000032000033022710                         091000014810831710ISABELLE SILVA MENDES                   00000000000000000000003500000000004                 
7560001300008U 060000000000000000000000000000000000000000000000000000000000000000000000320000000000000320000000000000000000000000000000001208202412082024    00000000000000000000000                       772337175600000000000000000000       
7560001300009T 0605631000000200644540000027488601011     140867190000000010082024000000000022260341038090                         091000008563118803SIMONE SOARES ZUANETTI                  00000000000000000000003500000000004                 
7560001300010U 060000000000000000000000000000000000000000000000000000000000000000000000222600000000000222600000000000000000000000000000001208202412082024    00000000000000000000000                       772343575600000000000000000000       
7560001300011T 0605631000000200644540000027496501011     139700134100000010082024000000000040810341040530                         091000017533829808CLEBER ANTONIO CHINELATO                00000000000000000000003500000000004                 
7560001300012U 060000000000000000000000000000000000000000000000000000000000000000000000408100000000000408100000000000000000000000000000001208202412082024    00000000000000000000000                       772375875600000000000000000000       
7560001300013T 0605631000000200644540000027497201011     139724134400000010082024000000000036729341040530                         091000017533829808CLEBER ANTONIO CHINELATO                00000000000000000000003500000000004                 
7560001300014U 060000000000000000000000000000000000000000000000000000000000000000000000367290000000000367290000000000000000000000000000001208202412082024    00000000000000000000000                       772696275600000000000000000000       
7560001300015T 0605631000000200644540000027570601011     142052152800000015082024000000000024000237039250                         091000031112058869MARCIA ROSA DE ARRUDA                   00000000000000000000003500000000004                 
7560001300016U 060000000000000000000000000000000000000000000000000000000000000000000000240000000000000240000000000000000000000000000000001208202412082024    00000000000000000000000                       772963775600000000000000000000       
7560001300017T 0605631000000200644540000027615201011     143518210000000010082024000000000373385341014800                         092004731867000178INNOVAPACK                              00000000000000000000003500000000004                 
7560001300018U 060000000000000000000000000000000000000000000000000000000000000000000003733850000000003733850000000000000000000000000000001208202412082024    00000000000000000000000                       772894475600000000000000000000       
75600015         00002000000900000000000605435000000000000000000000000000000000000000000000000000000000000000000000                                                                                                                             
75699999         000001000022000000                                                                                                                                                                                                             
