75600000         232970660000191                    05631000000200980140EDUULMC CURSOS DE IDIOMAS LTDASICOOB                                  22609202409220800091108500000                                                                     
75600011T01  043 2032970660000191          563100002405631000000200980140EDUULMC CURSOS DE IDIOMAS LTDA                                                                                000000002609202400000000                                 
7560001300001T 0905631000000200980140000026132001011     141829184100000028032024000000000005000756056310                         091000043322125840PIETRA MARTINS DA SILVA                 00000000000000000000003500000000013                 
7560001300002U 090000000000000000000000000000000000000000000000000000000000000000000000000000000000000000000000000000000000000000000000002509202425092024    00000000000000000000000                       784436875600000000000000000000       
7560001300003T 0605631000000200980140000028077701011     139199149800000025092024000000000029150237001220                         091000027893285877ANA PAULA HAMMERMEISTER GIMENES         00000000000000000000003500000000004                 
7560001300004U 060000000000000000000000000000000000000000000000000000000000000000000000291500000000000291500000000000000000000000000000002509202425092024    00000000000000000000000                       784349375600000000000000000000       
7560001300005T 0605631000000200980140000028206801011     141407170300000010102024000000000022472001068820                         091000033280346843ANSELMO DA SILVA                        00000000000000000000003500000000004                 
7560001300006U 060000000000000000000000000000000000000000000000000000000000000000000000224720000000000224720000000000000000000000000000002509202425092024    00000000000000000000000                       784282475600000000000000000000       
75600015         00000800000300000000000056622000000000000000000000000000000000000000000000000000000000000000000000                                                                                                                             
75699999         000001000010000000                                                                                                                                                                                                             
