75600000         229492820000120                    05631000000200873060ANEXA IDIOMAS LTDA            SICOOB                                  23001202511414300119108500000                                                                     
75600011T01  043 2029492820000120          563100002405631000000200873060ANEXA IDIOMAS LTDA                                                                                            000000003001202500000000                                 
7560001300001T 0605631000000200873060000029313801011     139239127000000030012025000000000017750104031180                         091000073446530363ANTONIO IRAILSON BEZERRA SABOIA         00000000000000000000003500000000004                 
7560001300002U 060000000000000000000000000000000000000000000000000000000000000000000000177500000000000177500000000000000000000000000000002901202529012025    00000000000000000000000                       817267675600000000000000000000       
75600015         00000400000100000000000017750000000000000000000000000000000000000000000000000000000000000000000000                                                                                                                             
75699999         000001000006000000                                                                                                                                                                                                             
