75600000         219895217000135                    05631000000200644540IWS CURSOS DE IDIOMAS LTDA    SICOOB                                  21605202408425500132108500000                                                                     
75600011T01  043 2019895217000135          563100002405631000000200644540IWS CURSOS DE IDIOMAS LTDA                                                                                    000000001605202400000000                                 
7560001300001T 0605631000000200644540000026466501011     139757131000000015052024000000000014711085011630                         091000004099091902DANIEL FELIPE FILACHOWSKI               00000000000000000000003500000000004                 
7560001300002U 060000000000000000000000000000000000000000000000000000000000000000000000147110000000000147110000000000000000000000000000001505202415052024    00000000000000000000000                       750112375600000000000000000000       
7560001300003T 0605631000000200644540000026477601011     141106200700000015052024000000000005000033016900                         091000006158174670JOYCE ROBERTA LOPES DIAS                00000000000000000000003500000000004                 
7560001300004U 060000000000000000000000000000000000000000000000000000000000000000000000050000000000000050000000000000000000000000000000001505202415052024    00000000000000000000000                       750311375600000000000000000000       
7560001300005T 0605631000000200644540000026478301011     141090200700000015052024000000000006000033016900                         091000006158174670JOYCE ROBERTA LOPES DIAS                00000000000000000000003500000000004                 
7560001300006U 060000000000000000000000000000000000000000000000000000000000000000000000060000000000000060000000000000000000000000000000001505202415052024    00000000000000000000000                       750323875600000000000000000000       
7560001300007T 0605631000000200644540000026479001011     137683192300000015052024000000000024750341010240                         091000039856088810LUCAS DE PAULA OLTREMARI                00000000000000000000003500000000004                 
7560001300008U 060000000000000000000000000000000000000000000000000000000000000000000000247500000000000247500000000000000000000000000000001505202415052024    00000000000000000000000                       750095075600000000000000000000       
7560001300009T 0605631000000200644540000026480901011     137724192700000015052024000000000013600033022710                         091000045199143883MARCO AURELIO RODRIGUES ARRUDA          00000000000000000000003500000000004                 
7560001300010U 060000000000000000000000000000000000000000000000000000000000000000000000136000000000000136000000000000000000000000000000001505202415052024    00000000000000000000000                       750084575600000000000000000000       
7560001300011T 0605631000000200644540000026481601011     140093185300000015052024000000000009628237002860                         091000009526613490MARIA EMILIA DE SOUZA SILVA             00000000000000000000003500000000004                 
7560001300012U 060000000000000000000000000000000000000000000000000000000000000000000000096280000000000096280000000000000000000000000000001505202415052024    00000000000000000000000                       750269075600000000000000000000       
7560001300013T 0605631000000200644540000026486201011     139399129900000015052024000000000045000033007280                         091000028789640802MONALIZA MARIA ALVES                    00000000000000000000003500000000004                 
7560001300014U 060000000000000000000000000000000000000000000000000000000000000000000000450000000000000450000000000000000000000000000000001505202415052024    00000000000000000000000                       750083375600000000000000000000       
7560001300015T 0605631000000200644540000026500101011     139793189800000015052024000000000021094341070660                         091000032297933827THALITA ALESSANDRA DE SOUZA             00000000000000000000003500000000004                 
7560001300016U 060000000000000000000000000000000000000000000000000000000000000000000000210940000000000210940000000000000000000000000000001505202415052024    00000000000000000000000                       750292775600000000000000000000       
7560001300017T 0605631000000200644540000026501901011     141152189800000015052024000000000005000237005930                         091000032297933827THALITA ALESSANDRA DE SOUZA             00000000000000000000003500000000004                 
7560001300018U 060000000000000000000000000000000000000000000000000000000000000000000000050000000000000050000000000000000000000000000000001505202415052024    00000000000000000000000                       750076275600000000000000000000       
7560001300019T 0605631000000200644540000026503301011     141696124000000015052024000000000035000341076460                         091000052522627805ERIC VINICIUS DA SILVA MARTINS          00000000000000000000003500000000004                 
7560001300020U 060000000000000000000000000000000000000000000000000000000000000000000000350000000000000350000000000000000000000000000000001505202415052024    00000000000000000000000                       750104875600000000000000000000       
7560001300021T 0605631000000200644540000026504001011     139123131900000015052024000000000065720341038090                         091000027899694850EVANDRO DE SANTANA CAVICCHIO            00000000000000000000003500000000004                 
7560001300022U 060000000000000000000000000000000000000000000000000000000000000000000000657200000000000657200000000000000000000000000000001505202415052024    00000000000000000000000                       750098875600000000000000000000       
7560001300023T 0605631000000200644540000026519001011     142243190300000015052024000000000005000341070660                         091000032297933827THALITA ALESSANDRA DE SOUZA             00000000000000000000003500000000004                 
7560001300024U 060000000000000000000000000000000000000000000000000000000000000000000000050000000000000050000000000000000000000000000000001505202415052024    00000000000000000000000                       750315175600000000000000000000       
7560001300025T 0605631000000200644540000026520901011     140768190300000015052024000000000015900341070660                         091000032297933827THALITA ALESSANDRA DE SOUZA             00000000000000000000003500000000004                 
7560001300026U 060000000000000000000000000000000000000000000000000000000000000000000000159000000000000159000000000000000000000000000000001505202415052024    00000000000000000000000                       750325875600000000000000000000       
7560001300027T 0605631000000200644540000026525501011     142285205400000015052024000000000032000341088120                         091000033338296819LEIDIANE DOS SANTOS GOMES               00000000000000000000003500000000004                 
7560001300028U 060000000000000000000000000000000000000000000000000000000000000000000000320000000000000320000000000000000000000000000000001505202415052024    00000000000000000000000                       750295775600000000000000000000       
7560001300029T 0605631000000200644540000026536601011     141861203800000015052024000000000005000341038090                         091000028048739860MARCELO DORNAS PANHOTTA NEVES           00000000000000000000003500000000004                 
7560001300030U 060000000000000000000000000000000000000000000000000000000000000000000000050000000000000050000000000000000000000000000000001505202415052024    00000000000000000000000                       750125475600000000000000000000       
7560001300031T 0605631000000200644540000026537301011     141849203800000015052024000000000018000341038090                         091000028048739860MARCELO DORNAS PANHOTTA NEVES           00000000000000000000003500000000004                 
7560001300032U 060000000000000000000000000000000000000000000000000000000000000000000000180000000000000180000000000000000000000000000000001505202415052024    00000000000000000000000                       750138075600000000000000000000       
7560001300033T 0605631000000200644540000026539801011     141837203700000015052024000000000020000341038090                         091000028048739860MARCELO DORNAS PANHOTTA NEVES           00000000000000000000003500000000004                 
7560001300034U 060000000000000000000000000000000000000000000000000000000000000000000000200000000000000200000000000000000000000000000000001505202415052024    00000000000000000000000                       750145975600000000000000000000       
7560001300035T 0605631000000200644540000026544501011     140249182700000010052024000000000028302237005930                         091000039053153861SAMMYA M. DA S. SOUSA                   00000000000000000000003500000000004                 
7560001300036U 060000000000006110000000000000000000000000000000000000000000000000000000289130000000000289130000000000000000000000000000001505202415052024    00000000000000000000000                       750119975600000000000000000000       
7560001300037T 0605631000000200644540000026562801011     137465748000000015052024000000000040040341037890                         091000051097253813GABRIELA HIGA MONJAR SECKLER            00000000000000000000003500000000004                 
7560001300038U 060000000000000000000000000000000000000000000000000000000000000000000000400400000000000400400000000000000000000000000000001505202415052024    00000000000000000000000                       750098775600000000000000000000       
7560001300039T 0605631000000200644540000026666901011     141344400000000015052024000000000218000456000020                         092010911237000269MIMAKI RECIFE                           00000000000000000000003500000000004                 
7560001300040U 060000000000000000000000000000000000000000000000000000000000000000000002180000000000002180000000000000000000000000000000001505202415052024    00000000000000000000000                       750109975600000000000000000000       
7560001300041T 0605631000000200644540000026667601011     141356300000000015052024000000000327000033009380                         092010911237000340MIMAKI BLUMENAL                         00000000000000000000003500000000004                 
7560001300042U 060000000000000000000000000000000000000000000000000000000000000000000003270000000000003270000000000000000000000000000000001505202415052024    00000000000000000000000                       750083675600000000000000000000       
7560001300043T 0605631000000200644540000026668301011     141368100000000015052024000000000436000456000020                         092010911237000188MIMAKI SAO PAULO                        00000000000000000000003500000000004                 
7560001300044U 060000000000000000000000000000000000000000000000000000000000000000000004360000000000004360000000000000000000000000000000001505202415052024    00000000000000000000000                       750129175600000000000000000000       
7560001300045T 0605631000000200644540000026669001011     141380160000000015052024000000000218000456000020                         092010911237000420MIMAKI BH                               00000000000000000000003500000000004                 
7560001300046U 060000000000000000000000000000000000000000000000000000000000000000000002180000000000002180000000000000000000000000000000001505202415052024    00000000000000000000000                       750139375600000000000000000000       
7560001300047T 0605631000000200644540000026678701011     141783183700000020052024000000000005000260000010                         091000016695147817RENATO BEZERRA SANTANA                  00000000000000000000003500000000004                 
7560001300048U 060000000000000000000000000000000000000000000000000000000000000000000000050000000000000050000000000000000000000000000000001505202415052024    00000000000000000000000                       750201075600000000000000000000       
7560001300049T 0605631000000200644540000026679401011     139625183700000020052024000000000019080260000010                         091000016695147817RENATO BEZERRA SANTANA                  00000000000000000000003500000000004                 
7560001300050U 060000000000000000000000000000000000000000000000000000000000000000000000190800000000000190800000000000000000000000000000001505202415052024    00000000000000000000000                       750192575600000000000000000000       
75600015         00005200002500000000001632825000000000000000000000000000000000000000000000000000000000000000000000                                                                                                                             
75699999         000001000054000000                                                                                                                                                                                                             
