75600000         232970660000191                    05631000000200980140EDUULMC CURSOS DE IDIOMAS EIRESICOOB                                  21605202408425500084408500000                                                                     
75600011T01  043 2032970660000191          563100002405631000000200980140EDUULMC CURSOS DE IDIOMAS EIRE                                                                                000000001605202400000000                                 
7560001300001T 0605631000000200980140000026451501011     138203144900000025042024000000000066441237023230                         091000047364370811BARBARA PINTO PEINADOR GARCIA           00000000000000000000003500000000004                 
7560001300002U 060000000000017690000000000000000000000000000000000000000000000000000000682100000000000682100000000000000000000000000000001505202415052024    00000000000000000000000                       750079675600000000000000000000       
7560001300003T 0605631000000200980140000026619201011     141110200800000015052024000000000015000033016900                         091000006158174670JOYCE ROBERTA LOPES DIAS                00000000000000000000003500000000004                 
7560001300004U 060000000000000000000000000000000000000000000000000000000000000000000000150000000000000150000000000000000000000000000000001505202415052024    00000000000000000000000                       750278575600000000000000000000       
7560001300005T 0605631000000200980140000026656501011     141305201800000015052024000000000035200260000010                         091000034347989865THAMIRES CARDOSO DE LOURENCO            00000000000000000000003500000000004                 
7560001300006U 060000000000000000000000000000000000000000000000000000000000000000000000352000000000000352000000000000000000000000000000001505202415052024    00000000000000000000000                       750023875600000000000000000000       
75600015         00000800000300000000000116641000000000000000000000000000000000000000000000000000000000000000000000                                                                                                                             
75699999         000001000010000000                                                                                                                                                                                                             
