75600000         232970660000191                    05631000000200980140EDUULMC CURSOS DE IDIOMAS LTDASICOOB                                  20306202409242100085108500000                                                                     
75600011T01  043 2032970660000191          563100002405631000000200980140EDUULMC CURSOS DE IDIOMAS LTDA                                                                                000000000306202400000000                                 
7560001300001T 0605631000000200980140000026764601011     136645153000000030052024000000000032648001070250                         091000047064514850FERNANDO VASCONDE DE ARRUDA             00000000000000000000003500000000004                 
7560001300002U 060000000000000000000000000000000000000000000000000000000000000000000000326480000000000326480000000000000000000000000000003105202431052024    00000000000000000000000                       753492675600000000000000000000       
7560001300003T 0605631000000200980140000026776401011     138326193800000030052024000000000026700237000850                         091000045724935880MARINA CESCHIN                          00000000000000000000003500000000004                 
7560001300004U 060000000000000000000000000000000000000000000000000000000000000000000000267000000000000267000000000000000000000000000000003105202431052024    00000000000000000000000                       753500475600000000000000000000       
75600015         00000600000200000000000059348000000000000000000000000000000000000000000000000000000000000000000000                                                                                                                             
75699999         000001000008000000                                                                                                                                                                                                             
