75600000         232970660000191                    05631000000200980140EDUULMC CURSOS DE IDIOMAS LTDASICOOB                                  22409202408411100090908500000                                                                     
75600011T01  043 2032970660000191          563100002405631000000200980140EDUULMC CURSOS DE IDIOMAS LTDA                                                                                000000002409202400000000                                 
7560001300001T 0905631000000200980140000026116101011     138202144900000025032024000000000040810756056310                         091000047364370811BARBARA PINTO PEINADOR GARCIA           00000000000000000000003500000000013                 
7560001300002U 090000000000000000000000000000000000000000000000000000000000000000000000000000000000000000000000000000000000000000000000002309202423092024    00000000000000000000000                       783972275600000000000000000000       
7560001300003T 0905631000000200980140000026117901011     139659144900000025032024000000000025631756056310                         091000047364370811BARBARA PINTO PEINADOR GARCIA           00000000000000000000003500000000013                 
7560001300004U 090000000000000000000000000000000000000000000000000000000000000000000000000000000000000000000000000000000000000000000000002309202423092024    00000000000000000000000                       783972375600000000000000000000       
7560001300005T 0605631000000200980140000028010401011     141177201100000020092024000000000065500237012310                         091000028341411857TATIANA CRISTINA CARNEIRO VITORIANO     00000000000000000000003500000000004                 
7560001300006U 060000000000013760000000000000000000000000000000000000000000000000000000668760000000000668760000000000000000000000000000002309202423092024    00000000000000000000000                       783716675600000000000000000000       
7560001300007T 0605631000000200980140000028011101011     143932210000000015092024000000000004800260000010                         091000043572947898BRUNO FUZEL MUNHOZ                      00000000000000000000003500000000004                 
7560001300008U 060000000000001120000000000000000000000000000000000000000000000000000000049120000000000049120000000000000000000000000000002309202423092024    00000000000000000000000                       783643575600000000000000000000       
75600015         00001000000400000000000136741000000000000000000000000000000000000000000000000000000000000000000000                                                                                                                             
75699999         000001000012000000                                                                                                                                                                                                             
