75600000         229492820000120                    05631000000200873060ANEXA IDIOMAS LTDA            SICOOB                                  20509202410024700112008500000                                                                     
75600011T01  043 2029492820000120          563100002405631000000200873060ANEXA IDIOMAS LTDA                                                                                            000000000509202400000000                                 
7560001300001T 0605631000000200873060000027916201011     142228205100000010092024000000000022000104033000                         091000028110782825CRISTIANE DOS SANTOS                    00000000000000000000003500000000004                 
7560001300002U 060000000000000000000000000000000000000000000000000000000000000000000000220000000000000220000000000000000000000000000000000409202404092024    00000000000000000000000                       778249275600000000000000000000       
75600015         00000400000100000000000022000000000000000000000000000000000000000000000000000000000000000000000000                                                                                                                             
75699999         000001000006000000                                                                                                                                                                                                             
