75600000         232970660000191                    05631000000200980140EDUULMC CURSOS DE IDIOMAS LTDASICOOB                                  22108202410012000089008500000                                                                     
75600011T01  043 2032970660000191          563100002405631000000200980140EDUULMC CURSOS DE IDIOMAS LTDA                                                                                000000002108202400000000                                 
7560001300001T 0605631000000200980140000027657101011     138477180400000020082024000000000071232341070550                         091000027111775805CARLOS JOSE  FERREIRA DA COSTA          00000000000000000000003500000000004                 
7560001300002U 060000000000000000000000000000000000000000000000000000000000000000000000712320000000000712320000000000000000000000000000002008202420082024    00000000000000000000000                       775142875600000000000000000000       
7560001300003T 0605631000000200980140000027660401011     142391175600000020082024000000000024719001033120                         091000043947232802FELLIPE FONSECA                         00000000000000000000003500000000004                 
7560001300004U 060000000000000000000000000000000000000000000000000000000000000000000000247190000000000247190000000000000000000000000000002008202420082024    00000000000000000000000                       775257275600000000000000000000       
7560001300005T 0605631000000200980140000027661101011     139222293000000020082024000000000065296001069140                         091000003696482854NADIR FRANCISCO DO AMARAL               00000000000000000000003500000000004                 
7560001300006U 060000000000000000000000000000000000000000000000000000000000000000000000652960000000000652960000000000000000000000000000002008202420082024    00000000000000000000000                       775112875600000000000000000000       
7560001300007T 0605631000000200980140000027663601011     137998156200000020082024000000000033231033001120                         091000026127394830PATRICIA PELEGRINI MEDINA JORGE         00000000000000000000003500000000004                 
7560001300008U 060000000000000000000000000000000000000000000000000000000000000000000000332310000000000332310000000000000000000000000000002008202420082024    00000000000000000000000                       775159275600000000000000000000       
7560001300009T 0605631000000200980140000027664301011     141176201100000020082024000000000065500237012310                         091000028341411857TATIANA CRISTINA CARNEIRO VITORIANO     00000000000000000000003500000000004                 
7560001300010U 060000000000000000000000000000000000000000000000000000000000000000000000655000000000000655000000000000000000000000000000002008202420082024    00000000000000000000000                       775273375600000000000000000000       
75600015         00001200000500000000000259978000000000000000000000000000000000000000000000000000000000000000000000                                                                                                                             
75699999         000001000014000000                                                                                                                                                                                                             
