75600000         232970660000191                    05631000000200980140EDUULMC CURSOS DE IDIOMAS LTDASICOOB                                  20209202410131000089408500000                                                                     
75600011T01  043 2032970660000191          563100002405631000000200980140EDUULMC CURSOS DE IDIOMAS LTDA                                                                                000000000209202400000000                                 
7560001300001T 0605631000000200980140000027727201011     143687210200000030082024000000000038720341037530                         091000007806315799 LUCIANA RIBEIRO ALVES                  00000000000000000000003500000000004                 
7560001300002U 060000000000000000000000000000000000000000000000000000000000000000000000387200000000000387200000000000000000000000000000003008202430082024    00000000000000000000000                       777266575600000000000000000000       
7560001300003T 0605631000000200980140000027733701011     142028153000000030082024000000000034607001070250                         091000047064514850FERNANDO VASCONDE DE ARRUDA             00000000000000000000003500000000004                 
7560001300004U 060000000000000000000000000000000000000000000000000000000000000000000000346070000000000346070000000000000000000000000000003008202430082024    00000000000000000000000                       777240175600000000000000000000       
7560001300005T 0605631000000200980140000027736901011     141143198000000030082024000000000010000033000600                         091000026605186885ARIANA ACQUESTA CANAL                   00000000000000000000003500000000004                 
7560001300006U 060000000000000000000000000000000000000000000000000000000000000000000000100000000000000100000000000000000000000000000000003008202430082024    00000000000000000000000                       777359075600000000000000000000       
7560001300007T 0605631000000200980140000027738301011     138329193800000030082024000000000026700237000850                         091000045724935880MARINA CESCHIN                          00000000000000000000003500000000004                 
7560001300008U 060000000000000000000000000000000000000000000000000000000000000000000000267000000000000267000000000000000000000000000000003008202430082024    00000000000000000000000                       777246375600000000000000000000       
7560001300009T 0605631000000200980140000027740901011     140951191200000030082024000000000033920237006570                         091000020272815845ALEX SANDRO CHELA                       00000000000000000000003500000000004                 
7560001300010U 060000000000000000000000000000000000000000000000000000000000000000000000339200000000000339200000000000000000000000000000003008202430082024    00000000000000000000000                       777353275600000000000000000000       
75600015         00001200000500000000000143947000000000000000000000000000000000000000000000000000000000000000000000                                                                                                                             
75699999         000001000014000000                                                                                                                                                                                                             
