75600000         229492820000120                    05631000000200873060ANEXA IDIOMAS LTDA            SICOOB                                  20609202409430700112108500000                                                                     
75600011T01  043 2029492820000120          563100002405631000000200873060ANEXA IDIOMAS LTDA                                                                                            000000000609202400000000                                 
7560001300001T 0605631000000200873060000027776001011     139653186900000005092024000000000018974001032660                         091000019275440840DANIELA APARECIDA FERREIRA CHAVES       00000000000000000000003500000000004                 
7560001300002U 060000000000000000000000000000000000000000000000000000000000000000000000189740000000000189740000000000000000000000000000000509202405092024    00000000000000000000000                       778636875600000000000000000000       
7560001300003T 0605631000000200873060000027884101011     141957204500000010092024000000000022200341086380                         091000033025700823SHIRLEI BATISTA MORILLO                 00000000000000000000003500000000004                 
7560001300004U 060000000000000000000000000000000000000000000000000000000000000000000000222000000000000222000000000000000000000000000000000509202405092024    00000000000000000000000                       778875975600000000000000000000       
7560001300005T 0605631000000200873060000027907601011     139319162200000010092024000000000029733341069060                         091000036877483839LARISSA BARBOZA                         00000000000000000000003500000000004                 
7560001300006U 060000000000000000000000000000000000000000000000000000000000000000000000297330000000000297330000000000000000000000000000000509202405092024    00000000000000000000000                       778872975600000000000000000000       
75600015         00000800000300000000000070907000000000000000000000000000000000000000000000000000000000000000000000                                                                                                                             
75699999         000001000010000000                                                                                                                                                                                                             
