75600000         229492820000120                    05631000000200873060ANEXA IDIOMAS LTDA            SICOOB                                  22612202416074200117508500000                                                                     
75600011T01  043 2029492820000120          563100002405631000000200873060ANEXA IDIOMAS LTDA                                                                                            000000002612202400000000                                 
7560001300001T 0605631000000200873060000028970001011     139118186700000020122024000000000028970341071660                         091000032654262898DIEGO CESAR DE PAULA                    00000000000000000000003500000000004                 
7560001300002U 060000000000006090000000000000000000000000000000000000000000000000000000295790000000000295790000000000000000000000000000002312202423122024    00000000000000000000000                       807900375600000000000000000000       
7560001300003T 0605631000000200873060000028973101011     139166127200000025122024000000000025281341063110                         091000028642395826CARLA REGINA DE ARAUJO                  00000000000000000000003500000000004                 
7560001300004U 060000000000000000000000000000000000000000000000000000000000000000000000252810000000000252810000000000000000000000000000002312202423122024    00000000000000000000000                       808084875600000000000000000000       
7560001300005T 0605631000000200873060000028999201011     140280133700000025122024000000000017490237011930                         091000034193427803EDVANIA SILVA PEREIRA                   00000000000000000000003500000000004                 
7560001300006U 060000000000000000000000000000000000000000000000000000000000000000000000174900000000000174900000000000000000000000000000002312202423122024    00000000000000000000000                       807864375600000000000000000000       
75600015         00000800000300000000000071741000000000000000000000000000000000000000000000000000000000000000000000                                                                                                                             
75699999         000001000010000000                                                                                                                                                                                                             
