75600000         229492820000120                    05631000000200873060ANEXA IDIOMAS LTDA            SICOOB                                  20402202509024300119408500000                                                                     
75600011T01  043 2029492820000120          563100002405631000000200873060ANEXA IDIOMAS LTDA                                                                                            000000000402202500000000                                 
7560001300001T 0905631000000200873060000027451101011     142951182400000005082024000000000003000756056310                         091000032193753830ADRIANA DA ROCHA FERREIRA               00000000000000000000003500000000013                 
7560001300002U 090000000000000000000000000000000000000000000000000000000000000000000000000000000000000000000000000000000000000000000000000302202503022025    00000000000000000000000                       818164475600000000000000000000       
7560001300003T 0905631000000200873060000027452901011     139652186900000005082024000000000018974756056310                         091000019275440840DANIELA APARECIDA FERREIRA CHAVES       00000000000000000000003500000000013                 
7560001300004U 090000000000000000000000000000000000000000000000000000000000000000000000000000000000000000000000000000000000000000000000000302202503022025    00000000000000000000000                       818164675600000000000000000000       
7560001300005T 0905631000000200873060000027456801011     142891206600000005082024000000000022200756056310                         091000033585731848SHISLENE REIS SANTANA GOMES             00000000000000000000003500000000013                 
7560001300006U 090000000000000000000000000000000000000000000000000000000000000000000000000000000000000000000000000000000000000000000000000302202503022025    00000000000000000000000                       818164875600000000000000000000       
7560001300007T 0905631000000200873060000027544101011     143476207500000005082024000000000063000756056310                         091000042240260823MARCELA DINIZ DA SILVA                  00000000000000000000003500000000013                 
7560001300008U 090000000000000000000000000000000000000000000000000000000000000000000000000000000000000000000000000000000000000000000000000302202503022025    00000000000000000000000                       818165075600000000000000000000       
7560001300009T 0605631000000200873060000029366801011     143446208100000005022025000000000028400260000010                         091000048719557884MARIA LUIZA CESARIO MARTINS             00000000000000000000003500000000004                 
7560001300010U 060000000000000000000000000000000000000000000000000000000000000000000000284000000000000284000000000000000000000000000000000302202503022025    00000000000000000000000                       817924175600000000000000000000       
7560001300011T 0605631000000200873060000029503801011     140741161900000015022025000000000017750033036290                         091000073446530363ANTONIO IRAILSON BEZERRA SABOIA         00000000000000000000003500000000004                 
7560001300012U 060000000000000000000000000000000000000000000000000000000000000000000000177500000000000177500000000000000000000000000000000302202503022025    00000000000000000000000                       818123675600000000000000000000       
7560001300013T 0605631000000200873060000029511701011     140126136300000015022025000000000064130237011950                         091000011975390857ROSANA GONCALVES DE OLIVEIRA            00000000000000000000003500000000004                 
7560001300014U 060000000000000000000000000000000000000000000000000000000000000000000000641300000000000641300000000000000000000000000000000302202503022025    00000000000000000000000                       818080075600000000000000000000       
7560001300015T 0605631000000200873060000029513101011     145190200600000015022025000000000023320341070550                         091000017121273810MARCIA CASTRO OLIVEIRA                  00000000000000000000003500000000004                 
7560001300016U 060000000000000000000000000000000000000000000000000000000000000000000000233200000000000233200000000000000000000000000000000302202503022025    00000000000000000000000                       818138775600000000000000000000       
75600015         00001800000800000000000240774000000000000000000000000000000000000000000000000000000000000000000000                                                                                                                             
75699999         000001000020000000                                                                                                                                                                                                             
