75600000         219895217000135                    05631000000200644540IWS CURSOS DE IDIOMAS LTDA    SICOOB                                  21405202408195700132008500000                                                                     
75600011T01  043 2019895217000135          563100002405631000000200644540IWS CURSOS DE IDIOMAS LTDA                                                                                    000000001405202400000000                                 
7560001300001T 0605631000000200644540000026533401011     141006199300000015052024000000000019000001067610                         091000016909083865CATIA CIRLENE DE OLIVEIRA SANTOS        00000000000000000000003500000000004                 
7560001300002U 060000000000000000000000000000000000000000000000000000000000000000000000190000000000000190000000000000000000000000000000001305202413052024    00000000000000000000000                       749307275600000000000000000000       
7560001300003T 0605631000000200644540000026551701011     139531185600000015052024000000000028000341020000                         091000049482848829WEVERTON BATISTA DOS SANTOS             00000000000000000000003500000000004                 
7560001300004U 060000000000000000000000000000000000000000000000000000000000000000000000280000000000000280000000000000000000000000000000001305202413052024    00000000000000000000000                       749337775600000000000000000000       
7560001300005T 0605631000000200644540000026552401011     141250185600000015052024000000000005000341020000                         091000049482848829WEVERTON BATISTA DOS SANTOS             00000000000000000000003500000000004                 
7560001300006U 060000000000000000000000000000000000000000000000000000000000000000000000050000000000000050000000000000000000000000000000001305202413052024    00000000000000000000000                       749296975600000000000000000000       
75600015         00000800000300000000000052000000000000000000000000000000000000000000000000000000000000000000000000                                                                                                                             
75699999         000001000010000000                                                                                                                                                                                                             
