75600000         229492820000120                    05631000000200873060ANEXA IDIOMAS LTDA            SICOOB                                  20701202509212200118008500000                                                                     
75600011T01  043 2029492820000120          563100002405631000000200873060ANEXA IDIOMAS LTDA                                                                                            000000000701202500000000                                 
7560001300001T 0605631000000200873060000028976301011     140518959000000030122024000000000022200341026270                         091000028354882861JOAO PAULO MORGUETO                     00000000000000000000003500000000004                 
7560001300002U 060000000000004930000000000000000000000000000000000000000000000000000000226930000000000226930000000000000000000000000000000601202506012025    00000000000000000000000                       810573275600000000000000000000       
7560001300003T 0605631000000200873060000029162501011     140041187100000005012025000000000017914260000010                         091000058254616809MARCO RODRIGUES PEREIRA                 00000000000000000000003500000000004                 
7560001300004U 060000000000000000000000000000000000000000000000000000000000000000000000179140000000000179140000000000000000000000000000000601202506012025    00000000000000000000000                       810360975600000000000000000000       
7560001300005T 0605631000000200873060000029170401011     143445208100000005012025000000000028400077000010                         091000048719557884MARIA LUIZA CESARIO MARTINS             00000000000000000000003500000000004                 
7560001300006U 060000000000000000000000000000000000000000000000000000000000000000000000284000000000000284000000000000000000000000000000000601202506012025    00000000000000000000000                       810444775600000000000000000000       
7560001300007T 0605631000000200873060000029183001011     143333523000000010012025000000000026858033015720                         091000008745532885VANDA UTINO MOREIRA                     00000000000000000000003500000000004                 
7560001300008U 060000000000000000000000000000000000000000000000000000000000000000000000268580000000000268580000000000000000000000000000000601202506012025    00000000000000000000000                       810385975600000000000000000000       
75600015         00001000000400000000000095372000000000000000000000000000000000000000000000000000000000000000000000                                                                                                                             
75699999         000001000012000000                                                                                                                                                                                                             
