75600000         229492820000120                    05631000000200873060ANEXA IDIOMAS LTDA            SICOOB                                  20409202409213900111908500000                                                                     
75600011T01  043 2029492820000120          563100002405631000000200873060ANEXA IDIOMAS LTDA                                                                                            000000000409202400000000                                 
7560001300001T 0605631000000200873060000027915501011     140121136300000015092024000000000064130237011950                         091000011975390857ROSANA GONCALVES DE OLIVEIRA            00000000000000000000003500000000004                 
7560001300002U 060000000000000000000000000000000000000000000000000000000000000000000000641300000000000641300000000000000000000000000000000309202403092024    00000000000000000000000                       778123175600000000000000000000       
75600015         00000400000100000000000064130000000000000000000000000000000000000000000000000000000000000000000000                                                                                                                             
75699999         000001000006000000                                                                                                                                                                                                             
