75600000         232970660000191                    05631000000200980140EDUULMC CURSOS DE IDIOMAS LTDASICOOB                                  20702202509415000097008500000                                                                     
75600011T01  043 2032970660000191          563100002405631000000200980140EDUULMC CURSOS DE IDIOMAS LTDA                                                                                000000000702202500000000                                 
7560001300001T 0605631000000200980140000029455101011     142130725000000010022025000000000018539033035440                         091000003567487825NABOR ALVES MONTEIRO                    00000000000000000000003500000000004                 
7560001300002U 060000000000000000000000000000000000000000000000000000000000000000000000185390000000000185390000000000000000000000000000000602202506022025    00000000000000000000000                       819108875600000000000000000000       
75600015         00000400000100000000000018539000000000000000000000000000000000000000000000000000000000000000000000                                                                                                                             
75699999         000001000006000000                                                                                                                                                                                                             
