75600000         232970660000191                    05631000000200980140EDUULMC CURSOS DE IDIOMAS LTDASICOOB                                  20309202408232700089508500000                                                                     
75600011T01  043 2032970660000191          563100002405631000000200980140EDUULMC CURSOS DE IDIOMAS LTDA                                                                                000000000309202400000000                                 
7560001300001T 0905631000000200980140000025894001011     139971188700000005032024000000000033920756056310                         091000036826948893IRIS MIQUELINE BRITO                    00000000000000000000003500000000013                 
7560001300002U 090000000000000000000000000000000000000000000000000000000000000000000000000000000000000000000000000000000000000000000000000209202402092024    00000000000000000000000                       777792575600000000000000000000       
7560001300003T 0905631000000200980140000025966501011     141303201800000005032024000000000035200756056310                         091000034347989865THAMIRES CARDOSO DE LOURENCO            00000000000000000000003500000000013                 
7560001300004U 090000000000000000000000000000000000000000000000000000000000000000000000000000000000000000000000000000000000000000000000000209202402092024    00000000000000000000000                       777792775600000000000000000000       
7560001300005T 0605631000000200980140000027941001011     141550188300000015092024000000000024062033010360                         091000042672802823NAYARA VIEIRA DA SILVA                  00000000000000000000003500000000004                 
7560001300006U 060000000000000000000000000000000000000000000000000000000000000000000000240620000000000240620000000000000000000000000000000209202402092024    00000000000000000000000                       777653675600000000000000000000       
75600015         00000800000300000000000093182000000000000000000000000000000000000000000000000000000000000000000000                                                                                                                             
75699999         000001000010000000                                                                                                                                                                                                             
