75600000         232970660000191                    05631000000200980140EDUULMC CURSOS DE IDIOMAS LTDASICOOB                                  22009202408235400090708500000                                                                     
75600011T01  043 2032970660000191          563100002405631000000200980140EDUULMC CURSOS DE IDIOMAS LTDA                                                                                000000002009202400000000                                 
7560001300001T 0905631000000200980140000026136901011     141886166300000022032024000000000015000756056310                         091000029424248857ELIEZER QUEIROZ JUNIOR                  00000000000000000000003500000000013                 
7560001300002U 090000000000000000000000000000000000000000000000000000000000000000000000000000000000000000000000000000000000000000000000001909202419092024    00000000000000000000000                       783292175600000000000000000000       
7560001300003T 0605631000000200980140000027672201011     143672210100000015082024000000000014000104032440                         091000047117018852VICTOR TORRES GONZAGA                   00000000000000000000003500000000004                 
7560001300004U 060000000000004550000000000000000000000000000000000000000000000000000000144550000000000144550000000000000000000000000000001909202419092024    00000000000000000000000                       783141875600000000000000000000       
7560001300005T 0605631000000200980140000027947301011     143673210100000015092024000000000014000104032440                         091000047117018852VICTOR TORRES GONZAGA                   00000000000000000000003500000000004                 
7560001300006U 060000000000003000000000000000000000000000000000000000000000000000000000143000000000000143000000000000000000000000000000001909202419092024    00000000000000000000000                       783172175600000000000000000000       
75600015         00000800000300000000000043000000000000000000000000000000000000000000000000000000000000000000000000                                                                                                                             
75699999         000001000010000000                                                                                                                                                                                                             
