75600000         219895217000135                    05631000000200644540IWS CURSOS DE IDIOMAS LTDA    SICOOB                                  21112202409010900144508500000                                                                     
75600011T01  043 2019895217000135          563100002405631000000200644540IWS CURSOS DE IDIOMAS LTDA                                                                                    000000001112202400000000                                 
7560001300001T 0605631000000200644540000028745401011     144043120100000010122024000000000034607033002360                         091000037917191818JACQUELINE ALVES TAMURA                 00000000000000000000003500000000004                 
7560001300002U 060000000000000000000000000000000000000000000000000000000000000000000000346070000000000346070000000000000000000000000000001012202410122024    00000000000000000000000                       804450875600000000000000000000       
7560001300003T 0605631000000200644540000028746101011     140468198600000010122024000000000026700001070710                         091000013507076861ALEXANDRE LEAO LUCCHESI                 00000000000000000000003500000000004                 
7560001300004U 060000000000000000000000000000000000000000000000000000000000000000000000267000000000000267000000000000000000000000000000001012202410122024    00000000000000000000000                       804409675600000000000000000000       
7560001300005T 0605631000000200644540000028751901011     141421169700000010122024000000000030740341074230                         091000028580799864BRUNO LIGUORI PESCE                     00000000000000000000003500000000004                 
7560001300006U 060000000000000000000000000000000000000000000000000000000000000000000000307400000000000307400000000000000000000000000000001012202410122024    00000000000000000000000                       804691475600000000000000000000       
7560001300007T 0605631000000200644540000028768301011     142773256000000010122024000000000039551001067610                         091000007810479865IDERALDO ELMER RIBEIRO                  00000000000000000000003500000000004                 
7560001300008U 060000000000000000000000000000000000000000000000000000000000000000000000395510000000000395510000000000000000000000000000001012202410122024    00000000000000000000000                       804410675600000000000000000000       
7560001300009T 0605631000000200644540000028780201011     140835167100000010122024000000000019775001059670                         091000099343460872WANDERLEY JOSE RAMOS VENANCIO           00000000000000000000003500000000004                 
7560001300010U 060000000000000000000000000000000000000000000000000000000000000000000000197750000000000197750000000000000000000000000000001012202410122024    00000000000000000000000                       804599975600000000000000000000       
7560001300011T 0605631000000200644540000028791301011     140292187300000010122024000000000031800341015170                         091000032837190802THAIS CRISTINA DA COSTA GHIDELLI CAMPOS 00000000000000000000003500000000004                 
7560001300012U 060000000000000000000000000000000000000000000000000000000000000000000000318000000000000318000000000000000000000000000000001012202410122024    00000000000000000000000                       804684775600000000000000000000       
7560001300013T 0605631000000200644540000028795201011     142629193400000010122024000000000033920341040530                         091000017533829808CLEBER ANTONIO CHINELATO                00000000000000000000003500000000004                 
7560001300014U 060000000000000000000000000000000000000000000000000000000000000000000000339200000000000339200000000000000000000000000000001012202410122024    00000000000000000000000                       804246075600000000000000000000       
7560001300015T 0605631000000200644540000028798401011     139704134100000010122024000000000040810341040530                         091000017533829808CLEBER ANTONIO CHINELATO                00000000000000000000003500000000004                 
7560001300016U 060000000000000000000000000000000000000000000000000000000000000000000000408100000000000408100000000000000000000000000000001012202410122024    00000000000000000000000                       804209075600000000000000000000       
7560001300017T 0605631000000200644540000028800501011     139728134400000010122024000000000036729341040530                         091000017533829808CLEBER ANTONIO CHINELATO                00000000000000000000003500000000004                 
7560001300018U 060000000000000000000000000000000000000000000000000000000000000000000000367290000000000367290000000000000000000000000000001012202410122024    00000000000000000000000                       804376075600000000000000000000       
7560001300019T 0605631000000200644540000028864601011     143522210000000010122024000000000425855341014800                         092004731867000178INNOVAPACK                              00000000000000000000003500000000004                 
7560001300020U 060000000000000000000000000000000000000000000000000000000000000000000004258550000000004258550000000000000000000000000000001012202410122024    00000000000000000000000                       804440975600000000000000000000       
75600015         00002200001000000000000720487000000000000000000000000000000000000000000000000000000000000000000000                                                                                                                             
75699999         000001000024000000                                                                                                                                                                                                             
