75600000         229492820000120                    05631000000200873060ANEXA IDIOMAS LTDA            SICOOB                                  20209202410131000111708500000                                                                     
75600011T01  043 2029492820000120          563100002405631000000200873060ANEXA IDIOMAS LTDA                                                                                            000000000209202400000000                                 
7560001300001T 0605631000000200873060000027713701011     140341197300000001092024000000000017900341037970                         091000034063550800ADRIANO CARNEVALI FERRO                 00000000000000000000003500000000004                 
7560001300002U 060000000000000000000000000000000000000000000000000000000000000000000000179000000000000179000000000000000000000000000000003008202430082024    00000000000000000000000                       777266775600000000000000000000       
7560001300003T 0605631000000200873060000027715101011     140514959000000030082024000000000022200341026270                         091000028354882861JOAO PAULO MORGUETO                     00000000000000000000003500000000004                 
7560001300004U 060000000000000000000000000000000000000000000000000000000000000000000000222000000000000222000000000000000000000000000000003008202430082024    00000000000000000000000                       777371075600000000000000000000       
7560001300005T 0605631000000200873060000027719001011     142526206300000030082024000000000028300033022710                         091000044608181831LUANA HELENA BOM FARIAS                 00000000000000000000003500000000004                 
7560001300006U 060000000000000000000000000000000000000000000000000000000000000000000000283000000000000283000000000000000000000000000000003008202430082024    00000000000000000000000                       777283475600000000000000000000       
7560001300007T 0605631000000200873060000027724801011     138910186100000030082024000000000028970341068800                         091000022328841805RICARDO MOREIRA BORGES                  00000000000000000000003500000000004                 
7560001300008U 060000000000000000000000000000000000000000000000000000000000000000000000289700000000000289700000000000000000000000000000003008202430082024    00000000000000000000000                       777269875600000000000000000000       
7560001300009T 0605631000000200873060000027726201011     140554199500000031082024000000000035200341049030                         091000052635208832VICTOR GASPARINO BARBOSA                00000000000000000000003500000000004                 
7560001300010U 060000000000000000000000000000000000000000000000000000000000000000000000352000000000000352000000000000000000000000000000003008202430082024    00000000000000000000000                       777372775600000000000000000000       
7560001300011T 0605631000000200873060000027778501011     140025188100000005092024000000000018974341063110                         091000026928896817MARCIO RICARDO ARAUJO                   00000000000000000000003500000000004                 
7560001300012U 060000000000000000000000000000000000000000000000000000000000000000000000189740000000000189740000000000000000000000000000003008202430082024    00000000000000000000000                       777269275600000000000000000000       
7560001300013T 0605631000000200873060000027922701011     141082200600000015092024000000000022000341070550                         091000017121273810MARCIA CASTRO OLIVEIRA                  00000000000000000000003500000000004                 
7560001300014U 060000000000000000000000000000000000000000000000000000000000000000000000220000000000000220000000000000000000000000000000003008202430082024    00000000000000000000000                       777270375600000000000000000000       
75600015         00001600000700000000000173544000000000000000000000000000000000000000000000000000000000000000000000                                                                                                                             
75699999         000001000018000000                                                                                                                                                                                                             
