75600000         219895217000135                    05631000000200644540IWS CURSOS DE IDIOMAS LTDA    SICOOB                                  22509202408242000139808500000                                                                     
75600011T01  043 2019895217000135          563100002405631000000200644540IWS CURSOS DE IDIOMAS LTDA                                                                                    000000002509202400000000                                 
7560001300001T 0605631000000200644540000028031901011     138502180300000025092024000000000078864341059550                         091000035707793860FRANCINE RAMONEDA NUNES DOS SANTOS      00000000000000000000003500000000004                 
7560001300002U 060000000000000000000000000000000000000000000000000000000000000000000000788640000000000788640000000000000000000000000000002409202424092024    00000000000000000000000                       784132775600000000000000000000       
7560001300003T 0605631000000200644540000028036501011     139953161100000025092024000000000023203104032310                         091000016059959830SILVANA FERREIRA DAMACENA               00000000000000000000003500000000004                 
7560001300004U 060000000000000000000000000000000000000000000000000000000000000000000000232030000000000232030000000000000000000000000000002409202424092024    00000000000000000000000                       784031675600000000000000000000       
7560001300005T 0605631000000200644540000028048301011     139451125900000025092024000000000037100033007660                         091000041028268823RODRIGO SANTIEGO DA SILVA               00000000000000000000003500000000004                 
7560001300006U 060000000000000000000000000000000000000000000000000000000000000000000000371000000000000371000000000000000000000000000000002409202424092024    00000000000000000000000                       784038275600000000000000000000       
75600015         00000800000300000000000139167000000000000000000000000000000000000000000000000000000000000000000000                                                                                                                             
75699999         000001000010000000                                                                                                                                                                                                             
