75600000         219895217000135                    05631000000200644540IWS CURSOS DE IDIOMAS LTDA    SICOOB                                  22405202408222100132508500000                                                                     
75600011T01  043 2019895217000135          563100002405631000000200644540IWS CURSOS DE IDIOMAS LTDA                                                                                    000000002405202400000000                                 
7560001300001T 0605631000000200644540000026726601011     141873942000000025052024000000000065000341040990                         091000015450028865ELISABETE JOIA MINELLI CAMPOS           00000000000000000000003500000000004                 
7560001300002U 060000000000000000000000000000000000000000000000000000000000000000000000650000000000000650000000000000000000000000000000002305202423052024    00000000000000000000000                       752100575600000000000000000000       
7560001300003T 0605631000000200644540000026735201011     141317201900000025052024000000000020000081000010                         091000012934327760WHENNY OLIVEIRA RIBEIRO                 00000000000000000000003500000000004                 
7560001300004U 060000000000000000000000000000000000000000000000000000000000000000000000200000000000000200000000000000000000000000000000002305202423052024    00000000000000000000000                       752118075600000000000000000000       
75600015         00000600000200000000000085000000000000000000000000000000000000000000000000000000000000000000000000                                                                                                                             
75699999         000001000008000000                                                                                                                                                                                                             
