75600000         232970660000191                    05631000000200980140EDUULMC CURSOS DE IDIOMAS LTDASICOOB                                  22307202409031200087508500000                                                                     
75600011T01  043 2032970660000191          563100002405631000000200980140EDUULMC CURSOS DE IDIOMAS LTDA                                                                                000000002307202400000000                                 
7560001300001T 0605631000000200980140000027343301011     138476180400000020072024000000000071232341070550                         091000027111775805CARLOS JOSE  FERREIRA DA COSTA          00000000000000000000003500000000004                 
7560001300002U 060000000000000000000000000000000000000000000000000000000000000000000000712320000000000712320000000000000000000000000000002207202422072024    00000000000000000000000                       767320375600000000000000000000       
7560001300003T 0605631000000200980140000027345801011     140662166300000020072024000000000025000341050810                         091000029424248857ELIEZER QUEIROZ JUNIOR                  00000000000000000000003500000000004                 
7560001300004U 060000000000000000000000000000000000000000000000000000000000000000000000250000000000000250000000000000000000000000000000002207202422072024    00000000000000000000000                       767315875600000000000000000000       
7560001300005T 0605631000000200980140000027346501011     142390175600000020072024000000000024719001001630                         091000043947232802FELLIPE FONSECA                         00000000000000000000003500000000004                 
7560001300006U 060000000000000000000000000000000000000000000000000000000000000000000000247190000000000247190000000000000000000000000000002207202422072024    00000000000000000000000                       767231975600000000000000000000       
7560001300007T 0605631000000200980140000027347201011     139221293000000020072024000000000065296001069140                         091000003696482854NADIR FRANCISCO DO AMARAL               00000000000000000000003500000000004                 
7560001300008U 060000000000000000000000000000000000000000000000000000000000000000000000652960000000000652960000000000000000000000000000002207202422072024    00000000000000000000000                       767452375600000000000000000000       
7560001300009T 0605631000000200980140000027349701011     137997156200000020072024000000000033231033001120                         091000026127394830PATRICIA PELEGRINI MEDINA JORGE         00000000000000000000003500000000004                 
7560001300010U 060000000000000000000000000000000000000000000000000000000000000000000000332310000000000332310000000000000000000000000000002207202422072024    00000000000000000000000                       767264775600000000000000000000       
7560001300011T 0605631000000200980140000027350501011     141175201100000020072024000000000065500237012310                         091000028341411857TATIANA CRISTINA CARNEIRO VITORIANO     00000000000000000000003500000000004                 
7560001300012U 060000000000000000000000000000000000000000000000000000000000000000000000655000000000000655000000000000000000000000000000002207202422072024    00000000000000000000000                       767258375600000000000000000000       
75600015         00001400000600000000000284978000000000000000000000000000000000000000000000000000000000000000000000                                                                                                                             
75699999         000001000016000000                                                                                                                                                                                                             
