75600000         229492820000120                    05631000000200873060ANEXA IDIOMAS LTDA            SICOOB                                  22606202410025600108208500000                                                                     
75600011T01  043 2029492820000120          563100002405631000000200873060ANEXA IDIOMAS LTDA                                                                                            000000002606202400000000                                 
7560001300001T 0605631000000200873060000027052101011     137034111500000025062024000000000028620237006580                         091000098449648491MARIA HELENA DOS REIS                   00000000000000000000003500000000004                 
7560001300002U 060000000000000000000000000000000000000000000000000000000000000000000000286200000000000286200000000000000000000000000000002506202425062024    00000000000000000000000                       760320675600000000000000000000       
7560001300003T 0605631000000200873060000027059201011     140274133700000025062024000000000017490237011930                         091000034193427803EDVANIA SILVA PEREIRA                   00000000000000000000003500000000004                 
7560001300004U 060000000000000000000000000000000000000000000000000000000000000000000000174900000000000174900000000000000000000000000000002506202425062024    00000000000000000000000                       760321375600000000000000000000       
75600015         00000600000200000000000046110000000000000000000000000000000000000000000000000000000000000000000000                                                                                                                             
75699999         000001000008000000                                                                                                                                                                                                             
