75600000         219895217000135                    05631000000200644540IWS CURSOS DE IDIOMAS LTDA    SICOOB                                  21401202509412300146408500000                                                                     
75600011T01  043 2019895217000135          563100002405631000000200644540IWS CURSOS DE IDIOMAS LTDA                                                                                    000000001401202500000000                                 
7560001300001T 0905631000000200644540000027238401011     138488179000000015072024000000000008000756056310                         091000028751297833EMANOEL AGRIPINO PADUA                 00000000000000000000003500000000013                 
7560001300002U 090000000000000000000000000000000000000000000000000000000000000000000000000000000000000000000000000000000000000000000000001301202513012025    00000000000000000000000                       813294475600000000000000000000       
7560001300003T 0905631000000200644540000027241701011     141092200700000015072024000000000006000756056310                         091000006158174670JOYCE ROBERTA LOPES DIAS                00000000000000000000003500000000013                 
7560001300004U 090000000000000000000000000000000000000000000000000000000000000000000000000000000000000000000000000000000000000000000000001301202513012025    00000000000000000000000                       813294575600000000000000000000       
7560001300005T 0905631000000200644540000027244901011     140131185400000015072024000000000009628756056310                         091000002688745492MARTA MIKAELLE TORRES                   00000000000000000000003500000000013                 
7560001300006U 090000000000000000000000000000000000000000000000000000000000000000000000000000000000000000000000000000000000000000000000001301202513012025    00000000000000000000000                       813293475600000000000000000000       
7560001300007T 0905631000000200644540000027249501011     142981179700000015072024000000000009000756056310                         091000038938785807PALOMA LOURENCO DOS SANTOS              00000000000000000000003500000000013                 
7560001300008U 090000000000000000000000000000000000000000000000000000000000000000000000000000000000000000000000000000000000000000000000001301202513012025    00000000000000000000000                       813293575600000000000000000000       
7560001300009T 0905631000000200644540000027250301011     143010179700000015072024000000000004000756056310                         091000038938785807PALOMA LOURENCO DOS SANTOS              00000000000000000000003500000000013                 
7560001300010U 090000000000000000000000000000000000000000000000000000000000000000000000000000000000000000000000000000000000000000000000001301202513012025    00000000000000000000000                       813293675600000000000000000000       
7560001300011T 0905631000000200644540000027251001011     142996207300000015072024000000000009000756056310                         091000033745263812TIAGO MARCIANO DA SILVA                 00000000000000000000003500000000013                 
7560001300012U 090000000000000000000000000000000000000000000000000000000000000000000000000000000000000000000000000000000000000000000000001301202513012025    00000000000000000000000                       813293775600000000000000000000       
7560001300013T 0905631000000200644540000027252801011     143008207300000015072024000000000004000756056310                         091000033745263812TIAGO MARCIANO DA SILVA                 00000000000000000000003500000000013                 
7560001300014U 090000000000000000000000000000000000000000000000000000000000000000000000000000000000000000000000000000000000000000000000001301202513012025    00000000000000000000000                       813293875600000000000000000000       
7560001300015T 0905631000000200644540000027254201011     137913156000000015072024000000000026500756056310                         091000036374365828DRIELE PINHEIRO SANTOS                  00000000000000000000003500000000013                 
7560001300016U 090000000000000000000000000000000000000000000000000000000000000000000000000000000000000000000000000000000000000000000000001301202513012025    00000000000000000000000                       813293975600000000000000000000       
7560001300017T 0905631000000200644540000027261401011     141488170400000015072024000000000019775756056310                         091000016027907878MARCIA SAPATA DA SILVA                  00000000000000000000003500000000013                 
7560001300018U 090000000000000000000000000000000000000000000000000000000000000000000000000000000000000000000000000000000000000000000000001301202513012025    00000000000000000000000                       813292875600000000000000000000       
7560001300019T 0905631000000200644540000027271801011     137371685000000015072024000000000029589756056310                         091000040434550892BRUNO FERRAZ PEREIRA                    00000000000000000000003500000000013                 
7560001300020U 090000000000000000000000000000000000000000000000000000000000000000000000000000000000000000000000000000000000000000000000001301202513012025    00000000000000000000000                       813292975600000000000000000000       
7560001300021T 0905631000000200644540000027273201011     140806137200000015072024000000000026526756056310                         091000044202915836LAIS CREPALDI                           00000000000000000000003500000000013                 
7560001300022U 090000000000000000000000000000000000000000000000000000000000000000000000000000000000000000000000000000000000000000000000001301202513012025    00000000000000000000000                       813293075600000000000000000000       
7560001300023T 0605631000000200644540000029065801011     139717183000000010012025000000000028302237005930                         091000032988336814CARLOS HENRIQUE DE OLIVEIRA             00000000000000000000003500000000004                 
7560001300024U 060000000000005930000000000000000000000000000000000000000000000000000000288950000000000288950000000000000000000000000000001301202513012025    00000000000000000000000                       812945575600000000000000000000       
75600015         00002600001200000000000180320000000000000000000000000000000000000000000000000000000000000000000000                                                                                                                             
75699999         000001000028000000                                                                                                                                                                                                             
