75600000         219895217000135                    05631000000200644540IWS CURSOS DE IDIOMAS LTDA    SICOOB                                  20310202409431600140308500000                                                                     
75600011T01  043 2019895217000135          563100002405631000000200644540IWS CURSOS DE IDIOMAS LTDA                                                                                    000000000310202400000000                                 
7560001300001T 0605631000000200644540000025429301011     138292422000000010092024000000000031482104040800                         091000053378733853PEDRO TAMOTSU HARA                      00000000000000000000003500000000004                 
7560001300002U 060000000000000000000000000000000000000000000000000000000000000000000000314820000000000314820000000000000000000000000000000209202402092024    00000000000000000000000                       777571375600000000000000000000       
7560001300003T 0905631000000200644540000025791601011     141251153300000005032024000000000035000756056310                         091000018506198836ALESSANDRA PEREIRA DA SILVA             00000000000000000000003500000000013                 
7560001300004U 090000000000000000000000000000000000000000000000000000000000000000000000000000000000000000000000000000000000000000000000000209202402092024    00000000000000000000000                       777758375600000000000000000000       
7560001300005T 0905631000000200644540000025802201011     135024400000000010032024000000000030000756056310                         091000039857755836ALINE NUNES DAL SOGLIO GUIDI            00000000000000000000003500000000013                 
7560001300006U 090000000000000000000000000000000000000000000000000000000000000000000000000000000000000000000000000000000000000000000000000909202409092024    00000000000000000000000                       779743775600000000000000000000       
7560001300007T 0905631000000200644540000025803001011     136172169700000010032024000000000029000756056310                         091000028580799864BRUNO LIGUORI PESCE                     00000000000000000000003500000000013                 
7560001300008U 090000000000000000000000000000000000000000000000000000000000000000000000000000000000000000000000000000000000000000000000000909202409092024    00000000000000000000000                       779743875600000000000000000000       
7560001300009T 0905631000000200644540000025806101011     139707183000000010032024000000000028302756056310                         091000032988336814CARLOS HENRIQUE DE OLIVEIRA             00000000000000000000003500000000013                 
7560001300010U 090000000000000000000000000000000000000000000000000000000000000000000000000000000000000000000000000000000000000000000000000909202409092024    00000000000000000000000                       779743975600000000000000000000       
7560001300011T 0905631000000200644540000025810101011     139779188000000005032024000000000047700756056310                         091000013428220803EDIVANIA CONCEICAO MEDEIROS DA SILVA    00000000000000000000003500000000013                 
7560001300012U 090000000000000000000000000000000000000000000000000000000000000000000000000000000000000000000000000000000000000000000000000209202402092024    00000000000000000000000                       777758575600000000000000000000       
7560001300013T 0905631000000200644540000025815801011     130708953000000005032024000000000022000756056310                         091000021895277833ERIC HENRIQUE VASCONCELLOS SANTOS       00000000000000000000003500000000013                 
7560001300014U 090000000000000000000000000000000000000000000000000000000000000000000000000000000000000000000000000000000000000000000000000209202402092024    00000000000000000000000                       777789975600000000000000000000       
7560001300015T 0905631000000200644540000025818001011     141196201300000005032024000000000035000756056310                         091000048357994881HENRIQUE ADRIANO DE SOUSA SANTOS        00000000000000000000003500000000013                 
7560001300016U 090000000000000000000000000000000000000000000000000000000000000000000000000000000000000000000000000000000000000000000000000209202402092024    00000000000000000000000                       777790175600000000000000000000       
7560001300017T 0905631000000200644540000025822001011     137019264000000010032024000000000023320756056310                         091000026634012857JERRISLEI BENTO NOGUEIRA                00000000000000000000003500000000013                 
7560001300018U 090000000000000000000000000000000000000000000000000000000000000000000000000000000000000000000000000000000000000000000000000909202409092024    00000000000000000000000                       779744075600000000000000000000       
7560001300019T 0905631000000200644540000025823701011     139995162800000010032024000000000040810756056310                         091000039507762817JESSICA BARBOSA DE SOUZA                00000000000000000000003500000000013                 
7560001300020U 090000000000000000000000000000000000000000000000000000000000000000000000000000000000000000000000000000000000000000000000000909202409092024    00000000000000000000000                       779744175600000000000000000000       
7560001300021T 0905631000000200644540000025831601011     137945143500000005032024000000000056710756056310                         091000009664163848LILIAN DE FATIMA SILVA                  00000000000000000000003500000000013                 
7560001300022U 090000000000000000000000000000000000000000000000000000000000000000000000000000000000000000000000000000000000000000000000000209202402092024    00000000000000000000000                       777790375600000000000000000000       
7560001300023T 0905631000000200644540000025835501011     137981119800000005032024000000000021200756056310                         091000029939095848DIEGO GOMES                             00000000000000000000003500000000013                 
7560001300024U 090000000000000000000000000000000000000000000000000000000000000000000000000000000000000000000000000000000000000000000000000209202402092024    00000000000000000000000                       777790575600000000000000000000       
7560001300025T 0905631000000200644540000025836201011     141184158200000005032024000000000025000756056310                         091000046056861856NAYARA PEREIRA NASCIMENTO               00000000000000000000003500000000013                 
7560001300026U 090000000000000000000000000000000000000000000000000000000000000000000000000000000000000000000000000000000000000000000000000209202402092024    00000000000000000000000                       777790775600000000000000000000       
7560001300027T 0905631000000200644540000025856001011     136667292000000005032024000000000064821756056310                         091000021603861890ZHAO KEHUI                              00000000000000000000003500000000013                 
7560001300028U 090000000000000000000000000000000000000000000000000000000000000000000000000000000000000000000000000000000000000000000000000209202402092024    00000000000000000000000                       777790975600000000000000000000       
7560001300029T 0905631000000200644540000025857701011     137534141300000005032024000000000029138756056310                         091000010760816654LAURA CRISTINA LIMA DINIZ               00000000000000000000003500000000013                 
7560001300030U 090000000000000000000000000000000000000000000000000000000000000000000000000000000000000000000000000000000000000000000000000209202402092024    00000000000000000000000                       777791175600000000000000000000       
7560001300031T 0905631000000200644540000025916701011     141101199600000015032024000000000005000756056310                         091000007704856693DELUMA AGUILAR HORTA                    00000000000000000000003500000000013                 
7560001300032U 090000000000000000000000000000000000000000000000000000000000000000000000000000000000000000000000000000000000000000000000001209202412092024    00000000000000000000000                       781401475600000000000000000000       
7560001300033T 0905631000000200644540000025917401011     140574199600000015032024000000000009000756056310                         091000007704856693DELUMA AGUILAR HORTA                    00000000000000000000003500000000013                 
7560001300034U 090000000000000000000000000000000000000000000000000000000000000000000000000000000000000000000000000000000000000000000000001209202412092024    00000000000000000000000                       781401575600000000000000000000       
7560001300035T 0905631000000200644540000025919901011     139923299000000015032024000000000014711756056310                         091000009158540903GUILHERME BARBOSA MENDES                00000000000000000000003500000000013                 
7560001300036U 090000000000000000000000000000000000000000000000000000000000000000000000000000000000000000000000000000000000000000000000001209202412092024    00000000000000000000000                       781401675600000000000000000000       
7560001300037T 0905631000000200644540000025925301011     140091185300000015032024000000000009628756056310                         091000009526613490MARIA EMILIA DE SOUZA SILVA             00000000000000000000003500000000013                 
7560001300038U 090000000000000000000000000000000000000000000000000000000000000000000000000000000000000000000000000000000000000000000000001209202412092024    00000000000000000000000                       781401775600000000000000000000       
7560001300039T 0905631000000200644540000025926001011     140127185400000015032024000000000009628756056310                         091000002688745492MARTA MIKAELLE TORRES                   00000000000000000000003500000000013                 
7560001300040U 090000000000000000000000000000000000000000000000000000000000000000000000000000000000000000000000000000000000000000000000001209202412092024    00000000000000000000000                       781401875600000000000000000000       
7560001300041T 0905631000000200644540000025929201011     137694192400000015032024000000000024750756056310                         091000025493112809VIVIAN MARQUES                          00000000000000000000003500000000013                 
7560001300042U 090000000000000000000000000000000000000000000000000000000000000000000000000000000000000000000000000000000000000000000000001209202412092024    00000000000000000000000                       781401975600000000000000000000       
7560001300043T 0905631000000200644540000025930001011     140410198100000015032024000000000026700756056310                         091000050510566871BRUNO ROCHA RODRIGUES                   00000000000000000000003500000000013                 
7560001300044U 090000000000000000000000000000000000000000000000000000000000000000000000000000000000000000000000000000000000000000000000001209202412092024    00000000000000000000000                       781402075600000000000000000000       
7560001300045T 0905631000000200644540000025931801011     141182198100000015032024000000000007500756056310                         091000050510566871BRUNO ROCHA RODRIGUES                   00000000000000000000003500000000013                 
7560001300046U 090000000000000000000000000000000000000000000000000000000000000000000000000000000000000000000000000000000000000000000000001209202412092024    00000000000000000000000                       781402175600000000000000000000       
7560001300047T 0905631000000200644540000025933201011     137909156000000015032024000000000026500756056310                         091000036374365828DRIELE PINHEIRO SANTOS                  00000000000000000000003500000000013                 
7560001300048U 090000000000000000000000000000000000000000000000000000000000000000000000000000000000000000000000000000000000000000000000001209202412092024    00000000000000000000000                       781402275600000000000000000000       
7560001300049T 0905631000000200644540000025937101011     138226141900000015032024000000000022142756056310                         091000000980658829FRANCISCA MIRIAN SOUZA SANTOS PINHEIRO  00000000000000000000003500000000013                 
7560001300050U 090000000000000000000000000000000000000000000000000000000000000000000000000000000000000000000000000000000000000000000000001209202412092024    00000000000000000000000                       781402375600000000000000000000       
7560001300051T 0905631000000200644540000025939601011     136244170400000015032024000000000018656756056310                         091000016027907878MARCIA SAPATA DA SILVA                  00000000000000000000003500000000013                 
7560001300052U 090000000000000000000000000000000000000000000000000000000000000000000000000000000000000000000000000000000000000000000000001209202412092024    00000000000000000000000                       781402475600000000000000000000       
7560001300053T 0905631000000200644540000025945001011     137367685000000015032024000000000029589756056310                         091000040434550892BRUNO FERRAZ PEREIRA                    00000000000000000000003500000000013                 
7560001300054U 090000000000000000000000000000000000000000000000000000000000000000000000000000000000000000000000000000000000000000000000001209202412092024    00000000000000000000000                       781402575600000000000000000000       
7560001300055T 0905631000000200644540000025988701011     141635202300000015032024000000000015000756056310                         091000052570518859VITOR VIEIRA ALBUQUERQUE                00000000000000000000003500000000013                 
7560001300056U 090000000000000000000000000000000000000000000000000000000000000000000000000000000000000000000000000000000000000000000000001209202412092024    00000000000000000000000                       781402675600000000000000000000       
7560001300057T 0905631000000200644540000025989401011     141647202300000015032024000000000007000756056310                         091000052570518859VITOR VIEIRA ALBUQUERQUE                00000000000000000000003500000000013                 
7560001300058U 090000000000000000000000000000000000000000000000000000000000000000000000000000000000000000000000000000000000000000000000001209202412092024    00000000000000000000000                       781402775600000000000000000000       
7560001300059T 0905631000000200644540000026001001011     137885116300000020032024000000000031482756056310                         091000047950320842ANA CLARA DE SOUZA RODRIGUES            00000000000000000000003500000000013                 
7560001300060U 090000000000000000000000000000000000000000000000000000000000000000000000000000000000000000000000000000000000000000000000001709202417092024    00000000000000000000000                       782711375600000000000000000000       
7560001300061T 0905631000000200644540000026002701011     139623183700000020032024000000000019080756056310                         091000016695147817RENATO BEZERRA SANTANA                  00000000000000000000003500000000013                 
7560001300062U 090000000000000000000000000000000000000000000000000000000000000000000000000000000000000000000000000000000000000000000000001709202417092024    00000000000000000000000                       782711475600000000000000000000       
7560001300063T 0905631000000200644540000026003401011     139683165300000020032024000000000029150756056310                         091000015954461848ALESSANDRA BARBOSA DE BARROS            00000000000000000000003500000000013                 
7560001300064U 090000000000000000000000000000000000000000000000000000000000000000000000000000000000000000000000000000000000000000000000001709202417092024    00000000000000000000000                       782711575600000000000000000000       
7560001300065T 0905631000000200644540000026005901011     141255201500000020032024000000000019900756056310                         091000018352738828SILVIA CRISTINA DE SOUZA                00000000000000000000003500000000013                 
7560001300066U 090000000000000000000000000000000000000000000000000000000000000000000000000000000000000000000000000000000000000000000000001709202417092024    00000000000000000000000                       782711675600000000000000000000       
7560001300067T 0905631000000200644540000026006601011     140972184300000020032024000000000007500756056310                         091000021895277833ERIC HENRIQUE VASCONCELLOS SANTOS       00000000000000000000003500000000013                 
7560001300068U 090000000000000000000000000000000000000000000000000000000000000000000000000000000000000000000000000000000000000000000000001709202417092024    00000000000000000000000                       782710575600000000000000000000       
7560001300069T 0905631000000200644540000026007301011     139827184300000020032024000000000019080756056310                         091000021895277833ERIC HENRIQUE VASCONCELLOS SANTOS       00000000000000000000003500000000013                 
7560001300070U 090000000000000000000000000000000000000000000000000000000000000000000000000000000000000000000000000000000000000000000000001709202417092024    00000000000000000000000                       782710675600000000000000000000       
7560001300071T 0905631000000200644540000026011301011     139863184700000020032024000000000020564756056310                         091000021895277833ERIC HENRIQUE VASCONCELLOS SANTOS       00000000000000000000003500000000013                 
7560001300072U 090000000000000000000000000000000000000000000000000000000000000000000000000000000000000000000000000000000000000000000000001709202417092024    00000000000000000000000                       782710775600000000000000000000       
7560001300073T 0905631000000200644540000026012001011     140974184700000020032024000000000007500756056310                         091000021895277833ERIC HENRIQUE VASCONCELLOS SANTOS       00000000000000000000003500000000013                 
7560001300074U 090000000000000000000000000000000000000000000000000000000000000000000000000000000000000000000000000000000000000000000000001709202417092024    00000000000000000000000                       782710875600000000000000000000       
7560001300075T 0905631000000200644540000026013801011     140587147600000020032024000000000007500756056310                         091000043062398884KARINE ARAUJO DOS ANJOS                 00000000000000000000003500000000013                 
7560001300076U 090000000000000000000000000000000000000000000000000000000000000000000000000000000000000000000000000000000000000000000000001709202417092024    00000000000000000000000                       782710975600000000000000000000       
7560001300077T 0905631000000200644540000026014501011     140007147600000020032024000000000035000756056310                         091000043062398884KARINE ARAUJO DOS ANJOS                 00000000000000000000003500000000013                 
7560001300078U 090000000000000000000000000000000000000000000000000000000000000000000000000000000000000000000000000000000000000000000000001709202417092024    00000000000000000000000                       782711075600000000000000000000       
7560001300079T 0905631000000200644540000026015201011     139325322000000020032024000000000026500756056310                         091000037621716886LAYS MELO DE OLIVEIRA                   00000000000000000000003500000000013                 
7560001300080U 090000000000000000000000000000000000000000000000000000000000000000000000000000000000000000000000000000000000000000000000001709202417092024    00000000000000000000000                       782709975600000000000000000000       
7560001300081T 0905631000000200644540000026020001011     140980376000000020032024000000000025000756056310                         091000031073432858MARIA ISABEL OLIVEIRA HAYASHI           00000000000000000000003500000000013                 
7560001300082U 090000000000000000000000000000000000000000000000000000000000000000000000000000000000000000000000000000000000000000000000001709202417092024    00000000000000000000000                       782710075600000000000000000000       
7560001300083T 0905631000000200644540000026021701011     141707202700000020032024000000000020000756056310                         091000050507642899REBECA ALVIN ROCHA                      00000000000000000000003500000000013                 
7560001300084U 090000000000000000000000000000000000000000000000000000000000000000000000000000000000000000000000000000000000000000000000001709202417092024    00000000000000000000000                       782710175600000000000000000000       
7560001300085T 0905631000000200644540000026022401011     141719202700000020032024000000000005000756056310                         091000050507642899REBECA ALVIN ROCHA                      00000000000000000000003500000000013                 
7560001300086U 090000000000000000000000000000000000000000000000000000000000000000000000000000000000000000000000000000000000000000000000001709202417092024    00000000000000000000000                       782710275600000000000000000000       
7560001300087T 0905631000000200644540000026024901011     138544572000000020032024000000000037100756056310                         091000026425715804WALQUIRIA BATISTA DA SILVA              00000000000000000000003500000000013                 
7560001300088U 090000000000000000000000000000000000000000000000000000000000000000000000000000000000000000000000000000000000000000000000001709202417092024    00000000000000000000000                       782710375600000000000000000000       
7560001300089T 0905631000000200644540000026057101011     141781183700000020032024000000000005000756056310                         091000016695147817RENATO BEZERRA SANTANA                  00000000000000000000003500000000013                 
7560001300090U 090000000000000000000000000000000000000000000000000000000000000000000000000000000000000000000000000000000000000000000000001709202417092024    00000000000000000000000                       782710475600000000000000000000       
7560001300091T 0905631000000200644540000026063601011     139073188400000025032024000000000043460756056310                         091000033081822890DANIEL RIBEIRO NOGUEIRA PORTO           00000000000000000000003500000000013                 
7560001300092U 090000000000000000000000000000000000000000000000000000000000000000000000000000000000000000000000000000000000000000000000002309202423092024    00000000000000000000000                       783969375600000000000000000000       
7560001300093T 0905631000000200644540000026065001011     137933155900000030032024000000000014712756056310                         091000003251742965JONAS ROBERTO KOEHLER                   00000000000000000000003500000000013                 
7560001300094U 090000000000000000000000000000000000000000000000000000000000000000000000000000000000000000000000000000000000000000000000002709202427092024    00000000000000000000000                       785006275600000000000000000000       
7560001300095T 0905631000000200644540000026066801011     140347197700000031032024000000000018000756056310                         091000005159507426JOSE ALAN GALINDO PEREIRA               00000000000000000000003500000000013                 
7560001300096U 090000000000000000000000000000000000000000000000000000000000000000000000000000000000000000000000000000000000000000000000003009202430092024    00000000000000000000000                       785459575600000000000000000000       
7560001300097T 0905631000000200644540000026068201011     139611189600000028032024000000000025440756056310                         091000013037278897NORMA SUELY COUTO SANTANA               00000000000000000000003500000000013                 
7560001300098U 090000000000000000000000000000000000000000000000000000000000000000000000000000000000000000000000000000000000000000000000002509202425092024    00000000000000000000000                       784435275600000000000000000000       
7560001300099T 0905631000000200644540000026072201011     135096700000000030032024000000000031800756056310                         091000021472802837DAYANE FEITOSA LIMA                     00000000000000000000003500000000013                 
7560001300100U 090000000000000000000000000000000000000000000000000000000000000000000000000000000000000000000000000000000000000000000000002709202427092024    00000000000000000000000                       785006475600000000000000000000       
7560001300101T 0905631000000200644540000026075401011     138695196300000030032024000000000015000756056310                         091000045433892808GABRIELA LOPES PESTANA                  00000000000000000000003500000000013                 
7560001300102U 090000000000000000000000000000000000000000000000000000000000000000000000000000000000000000000000000000000000000000000000002709202427092024    00000000000000000000000                       785006675600000000000000000000       
7560001300103T 0905631000000200644540000026083301011     138833183800000031032024000000000035000756056310                         091000042637520582JOSE LUCIANO TRANZILLO DOS SANTOS       00000000000000000000003500000000013                 
7560001300104U 090000000000000000000000000000000000000000000000000000000000000000000000000000000000000000000000000000000000000000000000003009202430092024    00000000000000000000000                       785460175600000000000000000000       
7560001300105T 0905631000000200644540000026084001011     138845123800000025032024000000000029150756056310                         091000028186309837JOSI GALVAO                             00000000000000000000003500000000013                 
7560001300106U 090000000000000000000000000000000000000000000000000000000000000000000000000000000000000000000000000000000000000000000000002309202423092024    00000000000000000000000                       783969575600000000000000000000       
7560001300107T 0905631000000200644540000026085801011     138919123800000025032024000000000028875756056310                         091000028186309837JOSI GALVAO                             00000000000000000000003500000000013                 
7560001300108U 090000000000000000000000000000000000000000000000000000000000000000000000000000000000000000000000000000000000000000000000002309202423092024    00000000000000000000000                       783969775600000000000000000000       
7560001300109T 0905631000000200644540000026092001011     139457180700000030032024000000000019080756056310                         091000082692009568SHEILA RIBEIRO DOS SANTOS               00000000000000000000003500000000013                 
7560001300110U 090000000000000000000000000000000000000000000000000000000000000000000000000000000000000000000000000000000000000000000000002709202427092024    00000000000000000000000                       785006875600000000000000000000       
7560001300111T 0905631000000200644540000026094401011     140295136900000025032024000000000046640756056310                         091000041134587821TIAGO ARAUJO CARVALHO                   00000000000000000000003500000000013                 
7560001300112U 090000000000000000000000000000000000000000000000000000000000000000000000000000000000000000000000000000000000000000000000002309202423092024    00000000000000000000000                       783969975600000000000000000000       
7560001300113T 0905631000000200644540000026096901011     136148480000000030032024000000000029580756056310                         091000041970584890ANA VITORIA ROLIM FRANCESCHI            00000000000000000000003500000000013                 
7560001300114U 090000000000000000000000000000000000000000000000000000000000000000000000000000000000000000000000000000000000000000000000002709202427092024    00000000000000000000000                       785007075600000000000000000000       
7560001300115T 0905631000000200644540000026101101011     138005435000000030032024000000000032741756056310                         091000041970583819RICARDO FRANCESCHI FILHO                00000000000000000000003500000000013                 
7560001300116U 090000000000000000000000000000000000000000000000000000000000000000000000000000000000000000000000000000000000000000000000002709202427092024    00000000000000000000000                       785007275600000000000000000000       
7560001300117T 0905631000000200644540000026129701011     140439198300000020032024000000000025000756056310                         091000044504887843CAMILA SILVA BARCELOS                   00000000000000000000003500000000013                 
7560001300118U 090000000000000000000000000000000000000000000000000000000000000000000000000000000000000000000000000000000000000000000000001709202417092024    00000000000000000000000                       782709375600000000000000000000       
7560001300119T 0905631000000200644540000026130501011     141817203600000020032024000000000028700756056310                         091000036613110850NATALIA APARECIDA DE PAULA RIBEIRO      00000000000000000000003500000000013                 
7560001300120U 090000000000000000000000000000000000000000000000000000000000000000000000000000000000000000000000000000000000000000000000001709202417092024    00000000000000000000000                       782709475600000000000000000000       
7560001300121T 0905631000000200644540000026131201011     141816182700000030032024000000000014000756056310                         091000039053153861SAMMYA M. DA S. SOUSA                   00000000000000000000003500000000013                 
7560001300122U 090000000000000000000000000000000000000000000000000000000000000000000000000000000000000000000000000000000000000000000000002709202427092024    00000000000000000000000                       785007475600000000000000000000       
7560001300123T 0905631000000200644540000026135101011     141889700000000030032024000000000005000756056310                         091000021472802837DAYANE FEITOSA LIMA                     00000000000000000000003500000000013                 
7560001300124U 090000000000000000000000000000000000000000000000000000000000000000000000000000000000000000000000000000000000000000000000002709202427092024    00000000000000000000000                       785007675600000000000000000000       
7560001300125T 0905631000000200644540000026148701011     138774590000000001042024000000000027620756056310                         091000035158681864ARIANE PLAGLIACCI GARITA                00000000000000000000003500000000013                 
7560001300126U 090000000000000000000000000000000000000000000000000000000000000000000000000000000000000000000000000000000000000000000000003009202430092024    00000000000000000000000                       785236275600000000000000000000       
7560001300127T 0605631000000200644540000027677901011     142016192600000031082024000000000031235033007280                         091000026592685840DANIELLY VAZ CORONADO                   00000000000000000000003500000000004                 
7560001300128U 060000000000000000000000000000000000000000000000000000000000000000000000312350000000000312350000000000000000000000000000000209202402092024    00000000000000000000000                       777807175600000000000000000000       
7560001300129T 0605631000000200644540000027688001011     139102143000000031082024000000000038503341019760                         091000041922650870DEBORA SIQUEIRA DA SILVA                00000000000000000000003500000000004                 
7560001300130U 060000000000000000000000000000000000000000000000000000000000000000000000385030000000000385030000000000000000000000000000000209202402092024    00000000000000000000000                       777606775600000000000000000000       
7560001300131T 0605631000000200644540000027695101011     139258950000000025082024000000000024253237009650                         091000009304309808JOAO GABRIEL ZUANETTI                   00000000000000000000003500000000004                 
7560001300132U 060000000000005570000000000000000000000000000000000000000000000000000000248100000000000248100000000000000000000000000000000309202403092024    00000000000000000000000                       778021575600000000000000000000       
7560001300133T 0605631000000200644540000027698301011     138267144800000030082024000000000020000748040310                         091000096218444600PATRICIA ALEXANDRINA DA SILVA MORAIS    00000000000000000000003500000000004                 
7560001300134U 060000000000004210000000000000000000000000000000000000000000000000000000204210000000000204210000000000000000000000000000000209202402092024    00000000000000000000000                       777623775600000000000000000000       
7560001300135T 0605631000000200644540000027708201011     137926178600000030082024000000000037100237035680                         091000018874492804DANIELA DE SIQUEIRA AUDRA.              00000000000000000000003500000000004                 
7560001300136U 060000000000007780000000000000000000000000000000000000000000000000000000378780000000000378780000000000000000000000000000000209202402092024    00000000000000000000000                       777804875600000000000000000000       
7560001300137T 0605631000000200644540000027746201011     143760210800000030082024000000000026700260000010                         091000048444666823ALYSON VINICIUS FREITAS DOS SANTOS      00000000000000000000003500000000004                 
7560001300138U 060000000000005610000000000000000000000000000000000000000000000000000000272610000000000272610000000000000000000000000000000209202402092024    00000000000000000000000                       777548275600000000000000000000       
7560001300139T 0605631000000200644540000027750201011     142722733000000005092024000000000032027341065600                         091000002135412899FELICIA DEL GALLO ROCHA                 00000000000000000000003500000000004                 
7560001300140U 060000000000000000000000000000000000000000000000000000000000000000000000320270000000000320270000000000000000000000000000000309202403092024    00000000000000000000000                       778038475600000000000000000000       
7560001300141T 0605631000000200644540000027751001011     140491198800000005092024000000000078800033008210                         091000039743835814HUDSON CARDOSO DE OLIVEIRA              00000000000000000000003500000000004                 
7560001300142U 060000000000000000000000000000000000000000000000000000000000000000000000788000000000000788000000000000000000000000000000000509202405092024    00000000000000000000000                       778671875600000000000000000000       
7560001300143T 0605631000000200644540000027753401011     141613202100000005092024000000000030000033010360                         091000029247398886ANGELA MARIA DIAS DOS REIS              00000000000000000000003500000000004                 
7560001300144U 060000000000000000000000000000000000000000000000000000000000000000000000300000000000000300000000000000000000000000000000000209202402092024    00000000000000000000000                       777591075600000000000000000000       
7560001300145T 0905631000000200644540000027755901011     139821183100000005092024000000000028302756056310                         091000034078049893ELLEN DOS SANTOS FRANCO                 00000000000000000000003500000000009                 
7560001300146U 090000000000000000000000000000000000000000000000000000000000000000000000000000000000000000000000000000000000000000000000000209202402092024    00000000000000000000000                       777477775600000000000000000000       
7560001300147T 0605631000000200644540000027756601011     139151148600000005092024000000000031482104002720                         091000025313672843FABIOLA GURGEL                          00000000000000000000003500000000004                 
7560001300148U 060000000000000000000000000000000000000000000000000000000000000000000000314820000000000314820000000000000000000000000000000209202402092024    00000000000000000000000                       777564575600000000000000000000       
7560001300149T 0605631000000200644540000027757301011     139893181000000005092024000000000021200104032780                         091000029619296877DEBORA DO CARMO ALVES DA SILVA          00000000000000000000003500000000004                 
7560001300150U 060000000000004520000000000000000000000000000000000000000000000000000000216520000000000216520000000000000000000000000000000909202409092024    00000000000000000000000                       779610675600000000000000000000       
7560001300151T 0605631000000200644540000027759801011     141502169600000005092024000000000030740104002720                         091000025313672843FABIOLA GURGEL                          00000000000000000000003500000000004                 
7560001300152U 060000000000000000000000000000000000000000000000000000000000000000000000307400000000000307400000000000000000000000000000000309202403092024    00000000000000000000000                       778012475600000000000000000000       
7560001300153T 0605631000000200644540000027761301011     139965185200000005092024000000000021094237020030                         091000008563118803SIMONE SOARES ZUANETTI                  00000000000000000000003500000000004                 
7560001300154U 060000000000000000000000000000000000000000000000000000000000000000000000210940000000000210940000000000000000000000000000000509202405092024    00000000000000000000000                       778664875600000000000000000000       
7560001300155T 0605631000000200644540000027762001011     141804138800000005092024000000000045000104030410                         091000027156202847DEBORA FERREIRA TRINDADE                00000000000000000000003500000000004                 
7560001300156U 060000000000000000000000000000000000000000000000000000000000000000000000450000000000000450000000000000000000000000000000000509202405092024    00000000000000000000000                       778841375600000000000000000000       
7560001300157T 0605631000000200644540000027763801011     138768966000000005092024000000000032000033010360                         091000045489539810KETYLIN DOS SANTOS                      00000000000000000000003500000000004                 
7560001300158U 060000000000000000000000000000000000000000000000000000000000000000000000320000000000000320000000000000000000000000000000000309202403092024    00000000000000000000000                       778129975600000000000000000000       
7560001300159T 0605631000000200644540000027765201011     142428595000000005092024000000000028302033010360                         091000098867539000LUCIANA HISAYO ENDO                     00000000000000000000003500000000004                 
7560001300160U 060000000000000000000000000000000000000000000000000000000000000000000000283020000000000283020000000000000000000000000000000309202403092024    00000000000000000000000                       778160575600000000000000000000       
7560001300161T 0605631000000200644540000027767701011     140181420000000005092024000000000028230033039610                         091000011632733846PAULO SERGIO GONCALVES DE OLIVEIRA      00000000000000000000003500000000004                 
7560001300162U 060000000000000000000000000000000000000000000000000000000000000000000000282300000000000282300000000000000000000000000000000209202402092024    00000000000000000000000                       777813275600000000000000000000       
7560001300163T 0605631000000200644540000027768401011     140241181900000005092024000000000024804237005930                         091000028597539828ROSANGELA DE LOURDES MENDES             00000000000000000000003500000000004                 
7560001300164U 060000000000000000000000000000000000000000000000000000000000000000000000248040000000000248040000000000000000000000000000000509202405092024    00000000000000000000000                       778662675600000000000000000000       
7560001300165T 0605631000000200644540000027769101011     143317155700000005092024000000000028090341066900                         091000043483096809SABRINA DE OLIVEIRA TAVARES             00000000000000000000003500000000004                 
7560001300166U 060000000000000000000000000000000000000000000000000000000000000000000000280900000000000280900000000000000000000000000000000409202404092024    00000000000000000000000                       778275975600000000000000000000       
7560001300167T 0605631000000200644540000027771701011     139043840000000005092024000000000023320341062410                         091000015257641879CARLOS ALEXANDRE RIBEIRINHO             00000000000000000000003500000000004                 
7560001300168U 060000000000000000000000000000000000000000000000000000000000000000000000233200000000000233200000000000000000000000000000000509202405092024    00000000000000000000000                       778687275600000000000000000000       
7560001300169T 0605631000000200644540000027772401011     141454694000000005092024000000000038154033017840                         091000036768656856CINTIA DEZASSO QUINI                    00000000000000000000003500000000004                 
7560001300170U 060000000000000000000000000000000000000000000000000000000000000000000000381540000000000381540000000000000000000000000000000509202405092024    00000000000000000000000                       778855375600000000000000000000       
7560001300171T 0605631000000200644540000027774901011     142452153200000005092024000000000037100341062410                         091000015257641879CARLOS ALEXANDRE RIBEIRINHO             00000000000000000000003500000000004                 
7560001300172U 060000000000000000000000000000000000000000000000000000000000000000000000371000000000000371000000000000000000000000000000000509202405092024    00000000000000000000000                       778718175600000000000000000000       
7560001300173T 0605631000000200644540000027800601011     143835194900000031082024000000000021000033039610                         091000045242750880CAMILA CARVALHO BARBOSA NEVES DIAS      00000000000000000000003500000000004                 
7560001300174U 060000000000000000000000000000000000000000000000000000000000000000000000210000000000000210000000000000000000000000000000000209202402092024    00000000000000000000000                       777595775600000000000000000000       
7560001300175T 0605631000000200644540000027802001011     143837195000000031082024000000000021000341014910                         091000044237668843AMERICO RICARDO COUTINHO DIAS           00000000000000000000003500000000004                 
7560001300176U 060000000000000000000000000000000000000000000000000000000000000000000000210000000000000210000000000000000000000000000000000209202402092024    00000000000000000000000                       777605775600000000000000000000       
7560001300177T 0605631000000200644540000027804501011     139761131000000015092024000000000014711085011630                         091000004099091902DANIEL FELIPE FILACHOWSKI               00000000000000000000003500000000004                 
7560001300178U 060000000000003040000000000000000000000000000000000000000000000000000000150150000000000150150000000000000000000000000000001709202417092024    00000000000000000000000                       782507875600000000000000000000       
7560001300179T 0605631000000200644540000027806001011     139139207000000010092024000000000032762001029220                         091000009240151796FABIANA CRISTINA DE OLIVEIRA            00000000000000000000003500000000004                 
7560001300180U 060000000000000000000000000000000000000000000000000000000000000000000000327620000000000327620000000000000000000000000000000209202402092024    00000000000000000000000                       777554275600000000000000000000       
7560001300181T 0605631000000200644540000027807701011     138244120100000010092024000000000032648033002360                         091000037917191818JACQUELINE ALVES TAMURA                 00000000000000000000003500000000004                 
7560001300182U 060000000000000000000000000000000000000000000000000000000000000000000000326480000000000326480000000000000000000000000000001009202410092024    00000000000000000000000                       780355675600000000000000000000       
7560001300183T 0605631000000200644540000027808401011     140796100900000015092024000000000007416237025200                         091000001652584625JOSE ARGENTINO DE OLIVEIRA NETO         00000000000000000000003500000000004                 
7560001300184U 060000000000000000000000000000000000000000000000000000000000000000000000074160000000000074160000000000000000000000000000000509202405092024    00000000000000000000000                       778850575600000000000000000000       
7560001300185T 0605631000000200644540000027809101011     142101192300000015092024000000000026235341085360                         091000039856088810LUCAS DE PAULA OLTREMARI                00000000000000000000003500000000004                 
7560001300186U 060000000000000000000000000000000000000000000000000000000000000000000000262350000000000262350000000000000000000000000000001309202413092024    00000000000000000000000                       781565575600000000000000000000       
7560001300187T 0605631000000200644540000027810001011     143415192300000015092024000000000005000341085360                         091000039856088810LUCAS DE PAULA OLTREMARI                00000000000000000000003500000000004                 
7560001300188U 060000000000000000000000000000000000000000000000000000000000000000000000050000000000000050000000000000000000000000000000001309202413092024    00000000000000000000000                       781581675600000000000000000000       
7560001300189T 0605631000000200644540000027811701011     140097185300000015092024000000000009628260000010                         091000009526613490MARIA EMILIA DE SOUZA SILVA             00000000000000000000003500000000004                 
7560001300190U 060000000000000000000000000000000000000000000000000000000000000000000000096280000000000096280000000000000000000000000000001609202416092024    00000000000000000000000                       782402275600000000000000000000       
7560001300191T 0605631000000200644540000027813101011     140145391000000015092024000000000014712341031500                         091000032679656830MAURO AUGUSTO LINO DE ARAUJO            00000000000000000000003500000000004                 
7560001300192U 060000000000000000000000000000000000000000000000000000000000000000000000147120000000000147120000000000000000000000000000000909202409092024    00000000000000000000000                       779586175600000000000000000000       
7560001300193T 0605631000000200644540000027814901011     141942204400000015092024000000000006000341007180                         091000043289016803MICHELE DA PAZ ALVES                    00000000000000000000003500000000004                 
7560001300194U 060000000000000000000000000000000000000000000000000000000000000000000000060000000000000060000000000000000000000000000000000209202402092024    00000000000000000000000                       777854475600000000000000000000       
7560001300195T 0605631000000200644540000027815601011     139403129900000015092024000000000045000033007280                         091000028789640802MONALIZA MARIA ALVES                    00000000000000000000003500000000004                 
7560001300196U 060000000000000000000000000000000000000000000000000000000000000000000000450000000000000450000000000000000000000000000000001609202416092024    00000000000000000000000                       782097475600000000000000000000       
7560001300197T 0605631000000200644540000027818801011     140465198600000010092024000000000026700001070710                         091000013507076861ALEXANDRE LEAO LUCCHESI                 00000000000000000000003500000000004                 
7560001300198U 060000000000000000000000000000000000000000000000000000000000000000000000267000000000000267000000000000000000000000000000000909202409092024    00000000000000000000000                       779615875600000000000000000000       
7560001300199T 0605631000000200644540000027821001011     143637209700000010092024000000000005000237001540                         091000034482455857CRISTIANE DE JESUS PEREIRA              00000000000000000000003500000000004                 
7560001300200U 060000000000000000000000000000000000000000000000000000000000000000000000050000000000000050000000000000000000000000000000000909202409092024    00000000000000000000000                       779607375600000000000000000000       
7560001300201T 0605631000000200644540000027822801011     141418169700000010092024000000000030740077000010                         091000028580799864BRUNO LIGUORI PESCE                     00000000000000000000003500000000004                 
7560001300202U 060000000000000000000000000000000000000000000000000000000000000000000000307400000000000307400000000000000000000000000000000509202405092024    00000000000000000000000                       778917475600000000000000000000       
7560001300203T 0605631000000200644540000027824201011     139713183000000010092024000000000028302237005930                         091000032988336814CARLOS HENRIQUE DE OLIVEIRA             00000000000000000000003500000000004                 
7560001300204U 060000000000000000000000000000000000000000000000000000000000000000000000283020000000000283020000000000000000000000000000000609202406092024    00000000000000000000000                       779199875600000000000000000000       
7560001300205T 0605631000000200644540000027825001011     139737184200000010092024000000000028302260000010                         091000040323474845CHRISTOPHER PAULO CRUZ                  00000000000000000000003500000000004                 
7560001300206U 060000000000000000000000000000000000000000000000000000000000000000000000283020000000000283020000000000000000000000000000000909202409092024    00000000000000000000000                       779371975600000000000000000000       
7560001300207T 0605631000000200644540000027826701011     139749163300000015092024000000000019080341031500                         091000030578064812CLEBER ROBERTO BERGER                   00000000000000000000003500000000004                 
7560001300208U 060000000000000000000000000000000000000000000000000000000000000000000000190800000000000190800000000000000000000000000000001309202413092024    00000000000000000000000                       781560075600000000000000000000       
7560001300209T 0605631000000200644540000027827401011     143478208400000010092024000000000038720341040880                         091000015095382830CRISTINA MAKIKO SAITO HIRANO            00000000000000000000003500000000004                 
7560001300210U 060000000000000000000000000000000000000000000000000000000000000000000000387200000000000387200000000000000000000000000000000609202406092024    00000000000000000000000                       779066275600000000000000000000       
7560001300211T 0605631000000200644540000027828101011     140429198200000010092024000000000022500001068210                         091000032864696886DANILO NOVO OTAVIANO                    00000000000000000000003500000000004                 
7560001300212U 060000000000000000000000000000000000000000000000000000000000000000000000225000000000000225000000000000000000000000000000000309202403092024    00000000000000000000000                       778110975600000000000000000000       
7560001300213T 0605631000000200644540000027829901011     142919206800000010092024000000000035200341090330                         091000022022841840DENISE VALENTE EVA                      00000000000000000000003500000000004                 
7560001300214U 060000000000000000000000000000000000000000000000000000000000000000000000352000000000000352000000000000000000000000000000000609202406092024    00000000000000000000000                       779222375600000000000000000000       
7560001300215T 0605631000000200644540000027831401011     139797189800000015092024000000000021094633000010                         091000032297933827THALITA ALESSANDRA DE SOUZA             00000000000000000000003500000000004                 
7560001300216U 060000000000000000000000000000000000000000000000000000000000000000000000210940000000000210940000000000000000000000000000001609202416092024    00000000000000000000000                       781801275600000000000000000000       
7560001300217T 0605631000000200644540000027832101011     143733210600000010092024000000000077440341008200                         091000033922017827EDUARDO LOURENCO SILVA                  00000000000000000000003500000000004                 
7560001300218U 060000000000000000000000000000000000000000000000000000000000000000000000774400000000000774400000000000000000000000000000000909202409092024    00000000000000000000000                       779590175600000000000000000000       
7560001300219T 0605631000000200644540000027833901011     143745210600000010092024000000000005000341008200                         091000033922017827EDUARDO LOURENCO SILVA                  00000000000000000000003500000000004                 
7560001300220U 060000000000000000000000000000000000000000000000000000000000000000000000050000000000000050000000000000000000000000000000001009202410092024    00000000000000000000000                       780346475600000000000000000000       
7560001300221T 0605631000000200644540000027834601011     141700124000000015092024000000000031500033001400                         091000052522627805ERIC VINICIUS DA SILVA MARTINS          00000000000000000000003500000000004                 
7560001300222U 060000000000000000000000000000000000000000000000000000000000000000000000315000000000000315000000000000000000000000000000001309202413092024    00000000000000000000000                       781656275600000000000000000000       
7560001300223T 0605631000000200644540000027835301011     139127131900000015092024000000000065720341038090                         091000027899694850EVANDRO DE SANTANA CAVICCHIO            00000000000000000000003500000000004                 
7560001300224U 060000000000000000000000000000000000000000000000000000000000000000000000657200000000000657200000000000000000000000000000001609202416092024    00000000000000000000000                       781900575600000000000000000000       
7560001300225T 0605631000000200644540000027836001011     141478169200000010092024000000000024000237012310                         091000011874897867LUIZ ALEXANDRE PROFITTI                 00000000000000000000003500000000004                 
7560001300226U 060000000000000000000000000000000000000000000000000000000000000000000000240000000000000240000000000000000000000000000000000909202409092024    00000000000000000000000                       779605075600000000000000000000       
7560001300227T 0605631000000200644540000027837801011     142566206500000015092024000000000037000033043390                         091000032100160893FERNANDA GHIRALDI NOBRE                 00000000000000000000003500000000004                 
7560001300228U 060000000000000000000000000000000000000000000000000000000000000000000000370000000000000370000000000000000000000000000000001609202416092024    00000000000000000000000                       782091575600000000000000000000       
7560001300229T 0605631000000200644540000027838501011     142053152800000015092024000000000024000237039250                         091000031112058869MARCIA ROSA DE ARRUDA                   00000000000000000000003500000000004                 
7560001300230U 060000000000000000000000000000000000000000000000000000000000000000000000240000000000000240000000000000000000000000000000000909202409092024    00000000000000000000000                       779979975600000000000000000000       
7560001300231T 0605631000000200644540000027839201011     143803211100000010092024000000000028700077000010                         091000062383501301GABRIEL MELO GAGLIONI                   00000000000000000000003500000000004                 
7560001300232U 060000000000000000000000000000000000000000000000000000000000000000000000287000000000000287000000000000000000000000000000000609202406092024    00000000000000000000000                       779142975600000000000000000000       
7560001300233T 0605631000000200644540000027842501011     143716210400000010092024000000000038000033000890                         091000035003158874GABRIELA CARVALHO                       00000000000000000000003500000000004                 
7560001300234U 060000000000000000000000000000000000000000000000000000000000000000000000380000000000000380000000000000000000000000000000000609202406092024    00000000000000000000000                       779203775600000000000000000000       
7560001300235T 0605631000000200644540000027843201011     143727210400000010092024000000000005000033000890                         091000035003158874GABRIELA CARVALHO                       00000000000000000000003500000000004                 
7560001300236U 060000000000000000000000000000000000000000000000000000000000000000000000050000000000000050000000000000000000000000000000000909202409092024    00000000000000000000000                       779854775600000000000000000000       
7560001300237T 0605631000000200644540000027845701011     142770256000000010092024000000000039551001067610                         091000007810479865IDERALDO ELMER RIBEIRO                  00000000000000000000003500000000004                 
7560001300238U 060000000000000000000000000000000000000000000000000000000000000000000000395510000000000395510000000000000000000000000000000909202409092024    00000000000000000000000                       779835475600000000000000000000       
7560001300239T 0605631000000200644540000027846401011     141278201700000010092024000000000010000341074220                         091000009727368670ISABELA KRISTINA MESQUITA SILVA         00000000000000000000003500000000004                 
7560001300240U 060000000000000000000000000000000000000000000000000000000000000000000000100000000000000100000000000000000000000000000000001009202410092024    00000000000000000000000                       780607575600000000000000000000       
7560001300241T 0605631000000200644540000027847101011     143422207900000010092024000000000032000033022710                         091000014810831710ISABELLE SILVA MENDES                   00000000000000000000003500000000004                 
7560001300242U 060000000000000000000000000000000000000000000000000000000000000000000000320000000000000320000000000000000000000000000000001009202410092024    00000000000000000000000                       780778375600000000000000000000       
7560001300243T 0605631000000200644540000027848901011     143503208600000010092024000000000021000001030260                         091000034465431805JACIANE IZIDORIO DE OLIVEIRA SOUZA      00000000000000000000003500000000004                 
7560001300244U 060000000000000000000000000000000000000000000000000000000000000000000000210000000000000210000000000000000000000000000000000609202406092024    00000000000000000000000                       779029275600000000000000000000       
7560001300245T 0605631000000200644540000027850401011     140772190300000015092024000000000015900633000010                         091000032297933827THALITA ALESSANDRA DE SOUZA             00000000000000000000003500000000004                 
7560001300246U 060000000000000000000000000000000000000000000000000000000000000000000000159000000000000159000000000000000000000000000000001609202416092024    00000000000000000000000                       782047575600000000000000000000       
7560001300247T 0605631000000200644540000027851101011     143491208500000015092024000000000021000341038090                         091000028048739860MARCELO DORNAS PANHOTTA NEVES           00000000000000000000003500000000004                 
7560001300248U 060000000000000000000000000000000000000000000000000000000000000000000000210000000000000210000000000000000000000000000000001609202416092024    00000000000000000000000                       781844075600000000000000000000       
7560001300249T 0605631000000200644540000027852901011     143550208500000015092024000000000005000341038090                         091000028048739860MARCELO DORNAS PANHOTTA NEVES           00000000000000000000003500000000004                 
7560001300250U 060000000000000000000000000000000000000000000000000000000000000000000000050000000000000050000000000000000000000000000000001609202416092024    00000000000000000000000                       781825975600000000000000000000       
7560001300251T 0605631000000200644540000027853601011     142404264000000010092024000000000024719033010360                         091000026634012857JERRISLEI BENTO NOGUEIRA                00000000000000000000003500000000004                 
7560001300252U 060000000000000000000000000000000000000000000000000000000000000000000000247190000000000247190000000000000000000000000000000209202402092024    00000000000000000000000                       777637375600000000000000000000       
7560001300253T 0605631000000200644540000027854301011     138256157000000010092024000000000053000001001400                         091000007057855990KAUANNE FERREIRA DE MELO                00000000000000000000003500000000004                 
7560001300254U 060000000000000000000000000000000000000000000000000000000000000000000000530000000000000530000000000000000000000000000000000209202402092024    00000000000000000000000                       777725675600000000000000000000       
7560001300255T 0605631000000200644540000027855001011     143544157000000010092024000000000007500001001400                         091000007057855990KAUANNE FERREIRA DE MELO                00000000000000000000003500000000004                 
7560001300256U 060000000000000000000000000000000000000000000000000000000000000000000000075000000000000075000000000000000000000000000000000209202402092024    00000000000000000000000                       777840775600000000000000000000       
7560001300257T 0605631000000200644540000027856801011     143818211200000015092024000000000036800104002710                         091000018600076862CAYO PARDOS LASTIRI                     00000000000000000000003500000000004                 
7560001300258U 060000000000000000000000000000000000000000000000000000000000000000000000368000000000000368000000000000000000000000000000001609202416092024    00000000000000000000000                       782057475600000000000000000000       
7560001300259T 0605631000000200644540000027857501011     142289205400000015092024000000000032000341088120                         091000033338296819LEIDIANE DOS SANTOS GOMES               00000000000000000000003500000000004                 
7560001300260U 060000000000000000000000000000000000000000000000000000000000000000000000320000000000000320000000000000000000000000000000001609202416092024    00000000000000000000000                       782076175600000000000000000000       
7560001300261T 0605631000000200644540000027858201011     140049184500000010092024000000000028302260000010                         091000042564299806LETTICIA POSCHI MOTA                    00000000000000000000003500000000004                 
7560001300262U 060000000000000000000000000000000000000000000000000000000000000000000000283020000000000283020000000000000000000000000000000609202406092024    00000000000000000000000                       779168575600000000000000000000       
7560001300263T 0605631000000200644540000027859001011     138899158300000015092024000000000069960237003680                         091000024985557811VIVIANE MAGLIANO                        00000000000000000000003500000000004                 
7560001300264U 060000000000000000000000000000000000000000000000000000000000000000000000699600000000000699600000000000000000000000000000001609202416092024    00000000000000000000000                       782193675600000000000000000000       
7560001300265T 0605631000000200644540000027860801011     143221178400000010092024000000000022472104040770                         091000025385360813BENEDITA BISPO DA HORA                  00000000000000000000003500000000004                 
7560001300266U 060000000000000000000000000000000000000000000000000000000000000000000000224720000000000224720000000000000000000000000000000609202406092024    00000000000000000000000                       779040775600000000000000000000       
7560001300267T 0605631000000200644540000027861501011     143647209800000010092024000000000055000341038090                         091000006694524838MARIA LUIZA ARDIZZONE ROSSI             00000000000000000000003500000000004                 
7560001300268U 060000000000000000000000000000000000000000000000000000000000000000000000550000000000000550000000000000000000000000000000000509202405092024    00000000000000000000000                       778740175600000000000000000000       
7560001300269T 0605631000000200644540000027862201011     141010199300000015092024000000000019000001067610                         091000016909083865CATIA CIRLENE DE OLIVEIRA SANTOS        00000000000000000000003500000000004                 
7560001300270U 060000000000000000000000000000000000000000000000000000000000000000000000190000000000000190000000000000000000000000000000001209202412092024    00000000000000000000000                       781207875600000000000000000000       
7560001300271T 0605631000000200644540000027863001011     140832167100000010092024000000000019775001059670                         091000099343460872WANDERLEY JOSE RAMOS VENANCIO           00000000000000000000003500000000004                 
7560001300272U 060000000000000000000000000000000000000000000000000000000000000000000000197750000000000197750000000000000000000000000000001009202410092024    00000000000000000000000                       780296675600000000000000000000       
7560001300273T 0605631000000200644540000027864701011     141853203800000015092024000000000018000341038090                         091000028048739860MARCELO DORNAS PANHOTTA NEVES           00000000000000000000003500000000004                 
7560001300274U 060000000000000000000000000000000000000000000000000000000000000000000000180000000000000180000000000000000000000000000000001609202416092024    00000000000000000000000                       781814775600000000000000000000       
7560001300275T 0605631000000200644540000027865401011     141841203700000015092024000000000020000341038090                         091000028048739860MARCELO DORNAS PANHOTTA NEVES           00000000000000000000003500000000004                 
7560001300276U 060000000000000000000000000000000000000000000000000000000000000000000000200000000000000200000000000000000000000000000000001609202416092024    00000000000000000000000                       781805875600000000000000000000       
7560001300277T 0605631000000200644540000027866101011     141586169000000010092024000000000024000237012310                         091000011874897867LUIZ ALEXANDRE PROFITTI                 00000000000000000000003500000000004                 
7560001300278U 060000000000000000000000000000000000000000000000000000000000000000000000240000000000000240000000000000000000000000000000000909202409092024    00000000000000000000000                       779642175600000000000000000000       
7560001300279T 0605631000000200644540000027867901011     140253182700000010092024000000000025472237005930                         091000039053153861SAMMYA M. DA S. SOUSA                   00000000000000000000003500000000004                 
7560001300280U 060000000000000000000000000000000000000000000000000000000000000000000000254720000000000254720000000000000000000000000000001009202410092024    00000000000000000000000                       780656175600000000000000000000       
7560001300281T 0605631000000200644540000027868601011     140868190000000010092024000000000022260237020030                         091000008563118803SIMONE SOARES ZUANETTI                  00000000000000000000003500000000004                 
7560001300282U 060000000000000000000000000000000000000000000000000000000000000000000000222600000000000222600000000000000000000000000000001009202410092024    00000000000000000000000                       780658875600000000000000000000       
7560001300283T 0605631000000200644540000027869301011     142866537000000010092024000000000055618341070550                         091000009017220813SUZI SANTOS MONIZ                       00000000000000000000003500000000004                 
7560001300284U 060000000000000000000000000000000000000000000000000000000000000000000000556180000000000556180000000000000000000000000000000209202402092024    00000000000000000000000                       777615675600000000000000000000       
7560001300285T 0605631000000200644540000027870101011     140289187300000010092024000000000031800033000600                         091000032837190802THAIS CRISTINA DA COSTA GHIDELLI CAMPOS 00000000000000000000003500000000004                 
7560001300286U 060000000000000000000000000000000000000000000000000000000000000000000000318000000000000318000000000000000000000000000000001009202410092024    00000000000000000000000                       780554775600000000000000000000       
7560001300287T 0605631000000200644540000027871901011     140916151400000010092024000000000022247033001070                         091000004913644823VALQUIRIA DE CASSIA NUNES SOARES        00000000000000000000003500000000004                 
7560001300288U 060000000000000000000000000000000000000000000000000000000000000000000000222470000000000222470000000000000000000000000000001009202410092024    00000000000000000000000                       780554975600000000000000000000       
7560001300289T 0605631000000200644540000027873301011     139535185600000015092024000000000028000341020000                         091000049482848829WEVERTON BATISTA DOS SANTOS             00000000000000000000003500000000004                 
7560001300290U 060000000000000000000000000000000000000000000000000000000000000000000000280000000000000280000000000000000000000000000000001609202416092024    00000000000000000000000                       782275475600000000000000000000       
7560001300291T 0605631000000200644540000027876501011     143089143100000010092024000000000043259001058030                         091000017612949890ELISABETH NOGUEIRA MARTINS              00000000000000000000003500000000004                 
7560001300292U 060000000000000000000000000000000000000000000000000000000000000000000000432590000000000432590000000000000000000000000000001009202410092024    00000000000000000000000                       780432475600000000000000000000       
7560001300293T 0605631000000200644540000027877201011     142650140000000010092024000000000028090341006460                         091000048087608860BIANCA OLIVEIRA SILVA                   00000000000000000000003500000000004                 
7560001300294U 060000000000000000000000000000000000000000000000000000000000000000000000280900000000000280900000000000000000000000000000000909202409092024    00000000000000000000000                       779590375600000000000000000000       
7560001300295T 0605631000000200644540000027878001011     139701134100000010092024000000000040810341040530                         091000017533829808CLEBER ANTONIO CHINELATO                00000000000000000000003500000000004                 
7560001300296U 060000000000000000000000000000000000000000000000000000000000000000000000408100000000000408100000000000000000000000000000001009202410092024    00000000000000000000000                       780279975600000000000000000000       
7560001300297T 0605631000000200644540000027879701011     139725134400000010092024000000000036729341040530                         091000017533829808CLEBER ANTONIO CHINELATO                00000000000000000000003500000000004                 
7560001300298U 060000000000000000000000000000000000000000000000000000000000000000000000367290000000000367290000000000000000000000000000001009202410092024    00000000000000000000000                       780214775600000000000000000000       
7560001300299T 0605631000000200644540000027880501011     140628128000000010092024000000000030905033001540                         091000098638726287DAN SHINKAI                             00000000000000000000003500000000004                 
7560001300300U 060000000000006280000000000000000000000000000000000000000000000000000000315330000000000315330000000000000000000000000000001109202411092024    00000000000000000000000                       780903975600000000000000000000       
7560001300301T 0605631000000200644540000027881201011     142746748000000015092024000000000042442033034090                         091000051097253813GABRIELA HIGA MONJAR SECKLER            00000000000000000000003500000000004                 
7560001300302U 060000000000000000000000000000000000000000000000000000000000000000000000424420000000000424420000000000000000000000000000001309202413092024    00000000000000000000000                       781552675600000000000000000000       
7560001300303T 0605631000000200644540000027883701011     138887124200000015092024000000000036729237001560                         091000017129471840LISANDRA MARQUES ALISEDA SEDRANI        00000000000000000000003500000000004                 
7560001300304U 060000000000000000000000000000000000000000000000000000000000000000000000367290000000000367290000000000000000000000000000001109202411092024    00000000000000000000000                       781089175600000000000000000000       
7560001300305T 0605631000000200644540000027953801011     143904183700000010092024000000000019080212000010                         091000016695147817RENATO BEZERRA SANTANA                  00000000000000000000003500000000004                 
7560001300306U 060000000000000000000000000000000000000000000000000000000000000000000000190800000000000190800000000000000000000000000000000409202404092024    00000000000000000000000                       778383375600000000000000000000       
7560001300307T 0605631000000200644540000027954501011     141348400000000015092024000000000218000456000020                         092010911237000269MIMAKI RECIFE                           00000000000000000000003500000000004                 
7560001300308U 060000000000000000000000000000000000000000000000000000000000000000000002180000000000002180000000000000000000000000000000001609202416092024    00000000000000000000000                       781917075600000000000000000000       
7560001300309T 0605631000000200644540000027955201011     141360300000000015092024000000000327000033009380                         092010911237000340MIMAKI BLUMENAL                         00000000000000000000003500000000004                 
7560001300310U 060000000000000000000000000000000000000000000000000000000000000000000003270000000000003270000000000000000000000000000000001609202416092024    00000000000000000000000                       781966175600000000000000000000       
7560001300311T 0605631000000200644540000027956001011     141372100000000015092024000000000436000456000020                         092010911237000188MIMAKI SAO PAULO                        00000000000000000000003500000000004                 
7560001300312U 060000000000000000000000000000000000000000000000000000000000000000000004360000000000004360000000000000000000000000000000001609202416092024    00000000000000000000000                       781854675600000000000000000000       
7560001300313T 0605631000000200644540000027957701011     141384160000000015092024000000000109000456000020                         092010911237000420MIMAKI BH                               00000000000000000000003500000000004                 
7560001300314U 060000000000000000000000000000000000000000000000000000000000000000000001090000000000001090000000000000000000000000000000001609202416092024    00000000000000000000000                       781836375600000000000000000000       
7560001300315T 0605631000000200644540000027958401011     143030240000000009092024000000000185235341000460                         092062430194000112BRASPAR                                 00000000000000000000003500000000004                 
7560001300316U 060000000000000000000000000000000000000000000000000000000000000000000001852350000000001852350000000000000000000000000000000909202409092024    00000000000000000000000                       779593575600000000000000000000       
7560001300317T 0605631000000200644540000027959101011     143519210000000010092024000000000425855341014800                         092004731867000178INNOVAPACK                              00000000000000000000003500000000004                 
7560001300318U 060000000000000000000000000000000000000000000000000000000000000000000004258550000000004258550000000000000000000000000000001009202410092024    00000000000000000000000                       780345075600000000000000000000       
7560001300319T 0605631000000200644540000027961701011     143905300000000025092024000000000031800341089100                         092008952410000144HOLLYTEC                                00000000000000000000003500000000004                 
7560001300320U 060000000000000000000000000000000000000000000000000000000000000000000000318000000000000318000000000000000000000000000000002309202423092024    00000000000000000000000                       783704675600000000000000000000       
7560001300321T 0605631000000200644540000027962401011     143917151500000015092024000000000048400341040810                         091000071010386972CARLOS EDUARDO TONELLI COBO             00000000000000000000003500000000004                 
7560001300322U 060000000000000000000000000000000000000000000000000000000000000000000000484000000000000484000000000000000000000000000000001609202416092024    00000000000000000000000                       782082775600000000000000000000       
7560001300323T 0605631000000200644540000027963101011     143876211600000010092024000000000026700237005930                         091000039945420810ALANA SANTANA DE SOUZA                  00000000000000000000003500000000004                 
7560001300324U 060000000000000000000000000000000000000000000000000000000000000000000000267000000000000267000000000000000000000000000000001009202410092024    00000000000000000000000                       780357875600000000000000000000       
7560001300325T 0605631000000200644540000027964901011     143890211600000010092024000000000007500237005930                         091000039945420810ALANA SANTANA DE SOUZA                  00000000000000000000003500000000004                 
7560001300326U 060000000000000000000000000000000000000000000000000000000000000000000000075000000000000075000000000000000000000000000000000909202409092024    00000000000000000000000                       779605475600000000000000000000       
7560001300327T 0605631000000200644540000027970301011     139773153000000020092024000000000004904033034090                         091000032300678861DIOGO NEVES MARINHO                     00000000000000000000003500000000004                 
7560001300328U 060000000000000000000000000000000000000000000000000000000000000000000000049040000000000049040000000000000000000000000000002009202420092024    00000000000000000000000                       783340175600000000000000000000       
7560001300329T 0605631000000200644540000027975001011     139845189400000020092024000000000025440033010360                         091000032198572800EVANDRO CARDOSO SOUZA                   00000000000000000000003500000000004                 
7560001300330U 060000000000000000000000000000000000000000000000000000000000000000000000254400000000000254400000000000000000000000000000002009202420092024    00000000000000000000000                       783337175600000000000000000000       
7560001300331T 0605631000000200644540000027976701011     139857189400000020092024000000000025440033010360                         091000032198572800EVANDRO CARDOSO SOUZA                   00000000000000000000003500000000004                 
7560001300332U 060000000000000000000000000000000000000000000000000000000000000000000000254400000000000254400000000000000000000000000000002009202420092024    00000000000000000000000                       783376075600000000000000000000       
7560001300333T 0605631000000200644540000027979901011     140013147600000020092024000000000031500033010360                         091000043062398884KARINE ARAUJO DOS ANJOS                 00000000000000000000003500000000004                 
7560001300334U 060000000000006600000000000000000000000000000000000000000000000000000000321600000000000321600000000000000000000000000000002309202423092024    00000000000000000000000                       783680775600000000000000000000       
7560001300335T 0605631000000200644540000027982101011     142842354000000020092024000000000026993033007660                         091000021920881832MARCELO DA SILVA FREIRE                 00000000000000000000003500000000004                 
7560001300336U 060000000000000000000000000000000000000000000000000000000000000000000000269930000000000269930000000000000000000000000000002009202420092024    00000000000000000000000                       783336875600000000000000000000       
7560001300337T 0605631000000200644540000027983901011     140073161700000020092024000000000023203033010360                         091000025095916819EDUARDO ALMEIDA ALENCAR ARRAIS          00000000000000000000003500000000004                 
7560001300338U 060000000000000000000000000000000000000000000000000000000000000000000000232030000000000232030000000000000000000000000000001609202416092024    00000000000000000000000                       782096775600000000000000000000       
7560001300339T 0605631000000200644540000027986001011     143346207700000020092024000000000034500001015550                         091000027757867827MIRIAN FREIRE IWATA                     00000000000000000000003500000000004                 
7560001300340U 060000000000000000000000000000000000000000000000000000000000000000000000345000000000000345000000000000000000000000000000002009202420092024    00000000000000000000000                       783313375600000000000000000000       
7560001300341T 0605631000000200644540000027989201011     143704210300000020092024000000000026700260000010                         091000054195109876WANESSA MORAES                          00000000000000000000003500000000004                 
7560001300342U 060000000000000000000000000000000000000000000000000000000000000000000000267000000000000267000000000000000000000000000000002009202420092024    00000000000000000000000                       783455275600000000000000000000       
7560001300343T 0605631000000200644540000027991801011     139283489000000020092024000000000027961237001560                         091000048915085825JOYCE BOLOGNANI ROVERI                  00000000000000000000003500000000004                 
7560001300344U 060000000000000000000000000000000000000000000000000000000000000000000000279610000000000279610000000000000000000000000000002009202420092024    00000000000000000000000                       783327475600000000000000000000       
7560001300345T 0605631000000200644540000027992501011     142806114300000020092024000000000074200341090730                         091000053372620763LILIAN VALERIO MARTELLETO               00000000000000000000003500000000004                 
7560001300346U 060000000000000000000000000000000000000000000000000000000000000000000000742000000000000742000000000000000000000000000000000909202409092024    00000000000000000000000                       779671375600000000000000000000       
7560001300347T 0605631000000200644540000027993201011     139487132200000020092024000000000034280341062410                         091000000887279805THAIS FAE LAVAREDA DE SOUZA             00000000000000000000003500000000004                 
7560001300348U 060000000000000000000000000000000000000000000000000000000000000000000000342800000000000342800000000000000000000000000000002009202420092024    00000000000000000000000                       783358675600000000000000000000       
7560001300349T 0605631000000200644540000028015001011     139079188400000025092024000000000043460341096270                         091000033081822890DANIEL RIBEIRO NOGUEIRA PORTO           00000000000000000000003500000000004                 
7560001300350U 060000000000009390000000000000000000000000000000000000000000000000000000443990000000000443990000000000000000000000000000003009202430092024    00000000000000000000000                       785120975600000000000000000000       
7560001300351T 0605631000000200644540000028020801011     143761210800000030092024000000000026700260000010                         091000048444666823ALYSON VINICIUS FREITAS DOS SANTOS      00000000000000000000003500000000004                 
7560001300352U 060000000000000000000000000000000000000000000000000000000000000000000000267000000000000267000000000000000000000000000000003009202430092024    00000000000000000000000                       785049575600000000000000000000       
7560001300353T 0605631000000200644540000028021501011     143772210800000030092024000000000007500260000010                         091000048444666823ALYSON VINICIUS FREITAS DOS SANTOS      00000000000000000000003500000000004                 
7560001300354U 060000000000000000000000000000000000000000000000000000000000000000000000075000000000000075000000000000000000000000000000003009202430092024    00000000000000000000000                       785049875600000000000000000000       
7560001300355T 0605631000000200644540000028022201011     142614195000000030092024000000000021000341014910                         091000044237668843AMERICO RICARDO COUTINHO DIAS           00000000000000000000003500000000004                 
7560001300356U 060000000000000000000000000000000000000000000000000000000000000000000000210000000000000210000000000000000000000000000000003009202430092024    00000000000000000000000                       785326575600000000000000000000       
7560001300357T 0605631000000200644540000028023001011     139617189600000030092024000000000025440260000010                         091000013037278897NORMA SUELY COUTO SANTANA               00000000000000000000003500000000004                 
7560001300358U 060000000000000000000000000000000000000000000000000000000000000000000000254400000000000254400000000000000000000000000000003009202430092024    00000000000000000000000                       785433675600000000000000000000       
7560001300359T 0605631000000200644540000028024701011     139561197400000025092024000000000018000104002500                         091000028682214830MARCIA SILVA BONFIM DE SOUZA            00000000000000000000003500000000004                 
7560001300360U 060000000000000000000000000000000000000000000000000000000000000000000000180000000000000180000000000000000000000000000000002309202423092024    00000000000000000000000                       783663975600000000000000000000       
7560001300361T 0605631000000200644540000028025401011     143749210700000030092024000000000023000756043400                         091000022943219878CINTIA REGINA DE FREITAS                00000000000000000000003500000000006                 
7560001300362U 060000000000000000000000000000000000000000000000000000000000000000000000230000000000000230000000000000000000000000000000002009202420092024    00000000000000000000000                       783611575600000000000000000000       
7560001300363T 0605631000000200644540000028026101011     142662720000000025092024000000000039551104040420                         091000033774740801BRUNA BRITO DE MIRANDA                  00000000000000000000003500000000004                 
7560001300364U 060000000000000000000000000000000000000000000000000000000000000000000000395510000000000395510000000000000000000000000000001309202413092024    00000000000000000000000                       781649175600000000000000000000       
7560001300365T 0605631000000200644540000028027901011     142698194900000030092024000000000021000033039610                         091000045242750880CAMILA CARVALHO BARBOSA NEVES DIAS      00000000000000000000003500000000004                 
7560001300366U 060000000000000000000000000000000000000000000000000000000000000000000000210000000000000210000000000000000000000000000000003009202430092024    00000000000000000000000                       785098275600000000000000000000       
7560001300367T 0605631000000200644540000028030101011     141877942000000025092024000000000065000341040990                         091000015450028865ELISABETE JOIA MINELLI CAMPOS           00000000000000000000003500000000004                 
7560001300368U 060000000000000000000000000000000000000000000000000000000000000000000000650000000000000650000000000000000000000000000000002309202423092024    00000000000000000000000                       783696875600000000000000000000       
7560001300369T 0605631000000200644540000028031901011     138502180300000025092024000000000078864341059550                         091000035707793860FRANCINE RAMONEDA NUNES DOS SANTOS      00000000000000000000003500000000004                 
7560001300370U 060000000000000000000000000000000000000000000000000000000000000000000000788640000000000788640000000000000000000000000000002409202424092024    00000000000000000000000                       784132775600000000000000000000       
7560001300371T 0605631000000200644540000028032601011     143777210900000030092024000000000023000033010360                         091000029447536816JANAINE CIRILA SILVA                    00000000000000000000003500000000004                 
7560001300372U 060000000000000000000000000000000000000000000000000000000000000000000000230000000000000230000000000000000000000000000000001209202412092024    00000000000000000000000                       781424775600000000000000000000       
7560001300373T 0605631000000200644540000028033301011     139175181300000025092024000000000018985104002500                         091000028682214830MARCIA SILVA BONFIM DE SOUZA            00000000000000000000003500000000004                 
7560001300374U 060000000000000000000000000000000000000000000000000000000000000000000000189850000000000189850000000000000000000000000000002309202423092024    00000000000000000000000                       783712875600000000000000000000       
7560001300375T 0605631000000200644540000028035801011     138815125000000025092024000000000040810033001400                         091000042566921857GUSTAVO SALES SANCHES                   00000000000000000000003500000000004                 
7560001300376U 060000000000000000000000000000000000000000000000000000000000000000000000408100000000000408100000000000000000000000000000001309202413092024    00000000000000000000000                       781549375600000000000000000000       
7560001300377T 0605631000000200644540000028036501011     139953161100000025092024000000000023203104032310                         091000016059959830SILVANA FERREIRA DAMACENA               00000000000000000000003500000000004                 
7560001300378U 060000000000000000000000000000000000000000000000000000000000000000000000232030000000000232030000000000000000000000000000002409202424092024    00000000000000000000000                       784031675600000000000000000000       
7560001300379T 0605631000000200644540000028037201011     143641161100000025092024000000000005000033008350                         091000016059959830SILVANA FERREIRA DAMACENA               00000000000000000000003500000000004                 
7560001300380U 060000000000000000000000000000000000000000000000000000000000000000000000050000000000000050000000000000000000000000000000002509202425092024    00000000000000000000000                       784294575600000000000000000000       
7560001300381T 0605631000000200644540000028040501011     138839183800000030092024000000000035000237010430                         091000042637520582JOSE LUCIANO TRANZILLO DOS SANTOS       00000000000000000000003500000000004                 
7560001300382U 060000000000000000000000000000000000000000000000000000000000000000000000350000000000000350000000000000000000000000000000003009202430092024    00000000000000000000000                       785303175600000000000000000000       
7560001300383T 0605631000000200644540000028041201011     143839211300000030092024000000000038700001068150                         091000042656568897LAYANA BRITO LIMA                       00000000000000000000003500000000004                 
7560001300384U 060000000000000000000000000000000000000000000000000000000000000000000000387000000000000387000000000000000000000000000000003009202430092024    00000000000000000000000                       785289075600000000000000000000       
7560001300385T 0605631000000200644540000028042001011     142970207200000030092024000000000034320341051410                         091000010402298918LUIGI SILVA FILIPPETTO                  00000000000000000000003500000000004                 
7560001300386U 060000000000000000000000000000000000000000000000000000000000000000000000343200000000000343200000000000000000000000000000003009202430092024    00000000000000000000000                       785111775600000000000000000000       
7560001300387T 0605631000000200644540000028045101011     139415125800000025092024000000000040810341003750                         091000044218123829NATHALIA VIRGINIA GOMES                 00000000000000000000003500000000004                 
7560001300388U 060000000000000000000000000000000000000000000000000000000000000000000000408100000000000408100000000000000000000000000000002509202425092024    00000000000000000000000                       784300175600000000000000000000       
7560001300389T 0605631000000200644540000028048301011     139451125900000025092024000000000037100033007660                         091000041028268823RODRIGO SANTIEGO DA SILVA               00000000000000000000003500000000004                 
7560001300390U 060000000000000000000000000000000000000000000000000000000000000000000000371000000000000371000000000000000000000000000000002409202424092024    00000000000000000000000                       784038275600000000000000000000       
7560001300391T 0605631000000200644540000028051601011     139905127700000025092024000000000036729001058030                         091000054691277889GABRIEL NOGUEIRA MARTINS ALVARENGA      00000000000000000000003500000000004                 
7560001300392U 060000000000000000000000000000000000000000000000000000000000000000000000367290000000000367290000000000000000000000000000001209202412092024    00000000000000000000000                       781409175600000000000000000000       
7560001300393T 0605631000000200644540000028053001011     142089323000000030092024000000000025872341008660                         091000004471029908LEANDRO AUGUSTO CALIXTO                 00000000000000000000003500000000004                 
7560001300394U 060000000000000000000000000000000000000000000000000000000000000000000000258720000000000258720000000000000000000000000000003009202430092024    00000000000000000000000                       785104675600000000000000000000       
7560001300395T 0605631000000200644540000028054801011     143245389000000030092024000000000204016033021460                         091000011588248828MAURICIO MARTINELLI SILVA LUPERI        00000000000000000000003500000000004                 
7560001300396U 060000000000000000000000000000000000000000000000000000000000000000000002040160000000002040160000000000000000000000000000003009202430092024    00000000000000000000000                       785094375600000000000000000000       
7560001300397T 0605631000000200644540000028056201011     139499128200000030092024000000000040810260000010                         091000041725138832ULISSES TIAGO DO NASCIMENTO FIGUEIREDO G00000000000000000000003500000000004                 
7560001300398U 060000000000000000000000000000000000000000000000000000000000000000000000408100000000000408100000000000000000000000000000003009202430092024    00000000000000000000000                       785050175600000000000000000000       
7560001300399T 0605631000000200644540000028086301011     144085179700000017092024000000000004500237038580                         091000038938785807PALOMA LOURENCO DOS SANTOS              00000000000000000000003500000000004                 
7560001300400U 060000000000000000000000000000000000000000000000000000000000000000000000045000000000000045000000000000000000000000000000001709202417092024    00000000000000000000000                       782651875600000000000000000000       
7560001300401T 0605631000000200644540000028100201011     138769966000000005102024000000000032000033010360                         091000045489539810KETYLIN DOS SANTOS                      00000000000000000000003500000000004                 
7560001300402U 060000000000000000000000000000000000000000000000000000000000000000000000320000000000000320000000000000000000000000000000003009202430092024    00000000000000000000000                       785311675600000000000000000000       
7560001300403T 0605631000000200644540000028107301011     140929102200000005102024000000000032629077000010                         091000043704621854VICTOR TONETTO MARQUES                  00000000000000000000003500000000004                 
7560001300404U 060000000000000000000000000000000000000000000000000000000000000000000000326290000000000326290000000000000000000000000000002609202426092024    00000000000000000000000                       784775375600000000000000000000       
7560001300405T 0605631000000200644540000028143901011     143479208400000010102024000000000038720341040880                         091000015095382830CRISTINA MAKIKO SAITO HIRANO            00000000000000000000003500000000004                 
7560001300406U 060000000000000000000000000000000000000000000000000000000000000000000000387200000000000387200000000000000000000000000000002509202425092024    00000000000000000000000                       784367475600000000000000000000       
7560001300407T 0605631000000200644540000028144601011     140430198200000010102024000000000022500001068210                         091000032864696886DANILO NOVO OTAVIANO                    00000000000000000000003500000000004                 
7560001300408U 060000000000000000000000000000000000000000000000000000000000000000000000225000000000000225000000000000000000000000000000002609202426092024    00000000000000000000000                       784510875600000000000000000000       
7560001300409T 0605631000000200644540000028166801011     143588422000000010102024000000000033371104040800                         091000053378733853PEDRO TAMOTSU HARA                      00000000000000000000003500000000004                 
7560001300410U 060000000000000000000000000000000000000000000000000000000000000000000000333710000000000333710000000000000000000000000000003009202430092024    00000000000000000000000                       785080075600000000000000000000       
7560001300411T 0605631000000200644540000028169001011     142867537000000010102024000000000055618341070550                         091000009017220813SUZI SANTOS MONIZ                       00000000000000000000003500000000004                 
7560001300412U 060000000000000000000000000000000000000000000000000000000000000000000000556180000000000556180000000000000000000000000000002509202425092024    00000000000000000000000                       784370275600000000000000000000       
