75600000         219895217000135                    05631000000200644540IWS CURSOS DE IDIOMAS LTDA    SICOOB                                  22511202410252900143408500000                                                                     
75600011T01  043 2019895217000135          563100002405631000000200644540IWS CURSOS DE IDIOMAS LTDA                                                                                    000000002511202400000000                                 
7560001300001T 0905631000000200644540000026701201011     139411125800000025052024000000000040810756056310                         091000044218123829NATHALIA VIRGINIA GOMES                 00000000000000000000003500000000013                 
7560001300002U 090000000000000000000000000000000000000000000000000000000000000000000000000000000000000000000000000000000000000000000000002211202422112024    00000000000000000000000                       799479275600000000000000000000       
7560001300003T 0905631000000200644540000026702001011     140852190500000025052024000000000019080756056310                         091000027567853850CRISTIANE DORNAS PANHOTTA ARAUJO        00000000000000000000003500000000013                 
7560001300004U 090000000000000000000000000000000000000000000000000000000000000000000000000000000000000000000000000000000000000000000000002211202422112024    00000000000000000000000                       799479375600000000000000000000       
7560001300005T 0905631000000200644540000026703701011     139447125900000025052024000000000037100756056310                         091000041028268823RODRIGO SANTIEGO DA SILVA               00000000000000000000003500000000013                 
7560001300006U 090000000000000000000000000000000000000000000000000000000000000000000000000000000000000000000000000000000000000000000000002211202422112024    00000000000000000000000                       799479475600000000000000000000       
7560001300007T 0905631000000200644540000026707601011     141317201900000025052024000000000020000756056310                         091000012934327760WHENNY OLIVEIRA RIBEIRO                 00000000000000000000003500000000013                 
7560001300008U 090000000000000000000000000000000000000000000000000000000000000000000000000000000000000000000000000000000000000000000000002211202422112024    00000000000000000000000                       799479575600000000000000000000       
7560001300009T 0905631000000200644540000026722701011     139075188400000025052024000000000043460756056310                         091000033081822890DANIEL RIBEIRO NOGUEIRA PORTO           00000000000000000000003500000000013                 
7560001300010U 090000000000000000000000000000000000000000000000000000000000000000000000000000000000000000000000000000000000000000000000002211202422112024    00000000000000000000000                       799479675600000000000000000000       
7560001300011T 0905631000000200644540000026724101011     142240197400000025052024000000000005000756056310                         091000028682214830MARCIA SILVA BONFIM DE SOUZA            00000000000000000000003500000000013                 
7560001300012U 090000000000000000000000000000000000000000000000000000000000000000000000000000000000000000000000000000000000000000000000002211202422112024    00000000000000000000000                       799479775600000000000000000000       
7560001300013T 0905631000000200644540000026725901011     137357720000000025052024000000000037312756056310                         091000033774740801BRUNA BRITO DE MIRANDA                  00000000000000000000003500000000013                 
7560001300014U 090000000000000000000000000000000000000000000000000000000000000000000000000000000000000000000000000000000000000000000000002211202422112024    00000000000000000000000                       799479875600000000000000000000       
7560001300015T 0905631000000200644540000026729801011     138811125000000025052024000000000040810756056310                         091000042566921857GUSTAVO SALES SANCHES                   00000000000000000000003500000000013                 
7560001300016U 090000000000000000000000000000000000000000000000000000000000000000000000000000000000000000000000000000000000000000000000002211202422112024    00000000000000000000000                       799479975600000000000000000000       
7560001300017T 0905631000000200644540000026732001011     139411125800000025052024000000000040810756056310                         091000044218123829NATHALIA VIRGINIA GOMES                 00000000000000000000003500000000013                 
7560001300018U 090000000000000000000000000000000000000000000000000000000000000000000000000000000000000000000000000000000000000000000000002211202422112024    00000000000000000000000                       799480075600000000000000000000       
7560001300019T 0905631000000200644540000026733801011     140852190500000025052024000000000019080756056310                         091000027567853850CRISTIANE DORNAS PANHOTTA ARAUJO        00000000000000000000003500000000013                 
7560001300020U 090000000000000000000000000000000000000000000000000000000000000000000000000000000000000000000000000000000000000000000000002211202422112024    00000000000000000000000                       799480175600000000000000000000       
7560001300021T 0905631000000200644540000026736001011     139901127700000025052024000000000036729756056310                         091000054691277889GABRIEL NOGUEIRA MARTINS ALVARENGA      00000000000000000000003500000000013                 
7560001300022U 090000000000000000000000000000000000000000000000000000000000000000000000000000000000000000000000000000000000000000000000002211202422112024    00000000000000000000000                       799480275600000000000000000000       
7560001300023T 0905631000000200644540000026749501011     142494188400000025052024000000000043460756056310                         091000033081822890DANIEL RIBEIRO NOGUEIRA PORTO           00000000000000000000003500000000013                 
7560001300024U 090000000000000000000000000000000000000000000000000000000000000000000000000000000000000000000000000000000000000000000000002211202422112024    00000000000000000000000                       799480375600000000000000000000       
7560001300025T 0905631000000200644540000026753501011     142498942000000025052024000000000065000756056310                         091000015450028865ELISABETE JOIA MINELLI CAMPOS           00000000000000000000003500000000013                 
7560001300026U 090000000000000000000000000000000000000000000000000000000000000000000000000000000000000000000000000000000000000000000000002211202422112024    00000000000000000000000                       799480475600000000000000000000       
7560001300027T 0905631000000200644540000026754201011     142499180300000025052024000000000078864756056310                         091000035707793860FRANCINE RAMONEDA NUNES DOS SANTOS      00000000000000000000003500000000013                 
7560001300028U 090000000000000000000000000000000000000000000000000000000000000000000000000000000000000000000000000000000000000000000000002211202422112024    00000000000000000000000                       799480575600000000000000000000       
7560001300029T 0905631000000200644540000026755001011     142500181300000025052024000000000018985756056310                         091000028682214830MARCIA SILVA BONFIM DE SOUZA            00000000000000000000003500000000013                 
7560001300030U 090000000000000000000000000000000000000000000000000000000000000000000000000000000000000000000000000000000000000000000000002211202422112024    00000000000000000000000                       799480775600000000000000000000       
7560001300031T 0905631000000200644540000026795401011     142530205200000025052024000000000015000756056310                         091000051428027807SOPHIA REIS MAIA                        00000000000000000000003500000000013                 
7560001300032U 090000000000000000000000000000000000000000000000000000000000000000000000000000000000000000000000000000000000000000000000002211202422112024    00000000000000000000000                       799480875600000000000000000000       
7560001300033T 0605631000000200644540000028686401011     141879942000000025112024000000000065000341040990                         091000015450028865ELISABETE JOIA MINELLI CAMPOS           00000000000000000000003500000000004                 
7560001300034U 060000000000000000000000000000000000000000000000000000000000000000000000650000000000000650000000000000000000000000000000002211202422112024    00000000000000000000000                       799298075600000000000000000000       
75600015         00003600001700000000000626500000000000000000000000000000000000000000000000000000000000000000000000                                                                                                                             
75699999         000001000038000000                                                                                                                                                                                                             
