75600000         219895217000135                    05631000000200644540IWS CURSOS DE IDIOMAS LTDA    SICOOB                                  20509202409425600138608500000                                                                     
75600011T01  043 2019895217000135          563100002405631000000200644540IWS CURSOS DE IDIOMAS LTDA                                                                                    000000000509202400000000                                 
7560001300001T 0605631000000200644540000027769101011     143317155700000005092024000000000028090341066900                         091000043483096809SABRINA DE OLIVEIRA TAVARES             00000000000000000000003500000000004                 
7560001300002U 060000000000000000000000000000000000000000000000000000000000000000000000280900000000000280900000000000000000000000000000000409202404092024    00000000000000000000000                       778275975600000000000000000000       
7560001300003T 0605631000000200644540000027953801011     143904183700000010092024000000000019080212000010                         091000016695147817RENATO BEZERRA SANTANA                  00000000000000000000003500000000004                 
7560001300004U 060000000000000000000000000000000000000000000000000000000000000000000000190800000000000190800000000000000000000000000000000409202404092024    00000000000000000000000                       778383375600000000000000000000       
75600015         00000600000200000000000047170000000000000000000000000000000000000000000000000000000000000000000000                                                                                                                             
75699999         000001000008000000                                                                                                                                                                                                             
