75600000         229492820000120                    05631000000200873060ANEXA IDIOMAS LTDA            SICOOB                                  20406202410024600106808500000                                                                     
75600011T01  043 2029492820000120          563100002405631000000200873060ANEXA IDIOMAS LTDA                                                                                            000000000406202400000000                                 
7560001300001T 0905631000000200873060000024992501011     135735186900000005122023000000000017900756056310                         091000019275440840DANIELA APARECIDA FERREIRA CHAVES       00000000000000000000003500000000013                 
7560001300002U 090000000000000000000000000000000000000000000000000000000000000000000000000000000000000000000000000000000000000000000000000306202403062024    00000000000000000000000                       754075275600000000000000000000       
7560001300003T 0605631000000200873060000026763601011     139231127000000030052024000000000017750001032660                         091000073446530363ANTONIO IRAILSON BEZERRA SABOIA         00000000000000000000003500000000004                 
7560001300004U 060000000000003790000000000000000000000000000000000000000000000000000000181290000000000181290000000000000000000000000000000306202403062024    00000000000000000000000                       753772775600000000000000000000       
7560001300005T 0605631000000200873060000026772201011     139267186000000031052024000000000030000341022790                         091000032827595842JONATHAN ARAUJO DE SOUZA                00000000000000000000003500000000004                 
7560001300006U 060000000000006300000000000000000000000000000000000000000000000000000000306300000000000306300000000000000000000000000000000306202403062024    00000000000000000000000                       753820075600000000000000000000       
7560001300007T 0605631000000200873060000026865201011     141914204200000010062024000000000022880341073860                         091000041101415835CAROLINE BRITO DE DEUS OLIVEIRA         00000000000000000000003500000000004                 
7560001300008U 060000000000000000000000000000000000000000000000000000000000000000000000228800000000000228800000000000000000000000000000000306202403062024    00000000000000000000000                       753860375600000000000000000000       
7560001300009T 0605631000000200873060000026875601011     142501206200000010062024000000000030000341037850                         091000033198171830KARINA DE CASSIA CARVALHO MANOEL        00000000000000000000003500000000004                 
7560001300010U 060000000000000000000000000000000000000000000000000000000000000000000000300000000000000300000000000000000000000000000000000306202403062024    00000000000000000000000                       754106375600000000000000000000       
7560001300011T 0605631000000200873060000026889901011     140262134000000005062024000000000040810341096360                         091000010823630811SANDRO APARECIDO IGNACIO                00000000000000000000003500000000004                 
7560001300012U 060000000000000000000000000000000000000000000000000000000000000000000000408100000000000408100000000000000000000000000000000306202403062024    00000000000000000000000                       753865875600000000000000000000       
7560001300013T 0605631000000200873060000026982001011     141079200600000015062024000000000022000341070550                         091000017121273810MARCIA CASTRO OLIVEIRA                  00000000000000000000003500000000004                 
7560001300014U 060000000000000000000000000000000000000000000000000000000000000000000000220000000000000220000000000000000000000000000000000306202403062024    00000000000000000000000                       754112875600000000000000000000       
75600015         00001600000700000000000181340000000000000000000000000000000000000000000000000000000000000000000000                                                                                                                             
75699999         000001000018000000                                                                                                                                                                                                             
