75600000         219895217000135                    05631000000200644540IWS CURSOS DE IDIOMAS LTDA    SICOOB                                  21709202408024900139408500000                                                                     
75600011T01  043 2019895217000135          563100002405631000000200644540IWS CURSOS DE IDIOMAS LTDA                                                                                    000000001709202400000000                                 
7560001300001T 0605631000000200644540000027811701011     140097185300000015092024000000000009628260000010                         091000009526613490MARIA EMILIA DE SOUZA SILVA             00000000000000000000003500000000004                 
7560001300002U 060000000000000000000000000000000000000000000000000000000000000000000000096280000000000096280000000000000000000000000000001609202416092024    00000000000000000000000                       782402275600000000000000000000       
7560001300003T 0605631000000200644540000027815601011     139403129900000015092024000000000045000033007280                         091000028789640802MONALIZA MARIA ALVES                    00000000000000000000003500000000004                 
7560001300004U 060000000000000000000000000000000000000000000000000000000000000000000000450000000000000450000000000000000000000000000000001609202416092024    00000000000000000000000                       782097475600000000000000000000       
7560001300005T 0605631000000200644540000027831401011     139797189800000015092024000000000021094633000010                         091000032297933827THALITA ALESSANDRA DE SOUZA             00000000000000000000003500000000004                 
7560001300006U 060000000000000000000000000000000000000000000000000000000000000000000000210940000000000210940000000000000000000000000000001609202416092024    00000000000000000000000                       781801275600000000000000000000       
7560001300007T 0605631000000200644540000027835301011     139127131900000015092024000000000065720341038090                         091000027899694850EVANDRO DE SANTANA CAVICCHIO            00000000000000000000003500000000004                 
7560001300008U 060000000000000000000000000000000000000000000000000000000000000000000000657200000000000657200000000000000000000000000000001609202416092024    00000000000000000000000                       781900575600000000000000000000       
7560001300009T 0605631000000200644540000027837801011     142566206500000015092024000000000037000033043390                         091000032100160893FERNANDA GHIRALDI NOBRE                 00000000000000000000003500000000004                 
7560001300010U 060000000000000000000000000000000000000000000000000000000000000000000000370000000000000370000000000000000000000000000000001609202416092024    00000000000000000000000                       782091575600000000000000000000       
7560001300011T 0605631000000200644540000027850401011     140772190300000015092024000000000015900633000010                         091000032297933827THALITA ALESSANDRA DE SOUZA             00000000000000000000003500000000004                 
7560001300012U 060000000000000000000000000000000000000000000000000000000000000000000000159000000000000159000000000000000000000000000000001609202416092024    00000000000000000000000                       782047575600000000000000000000       
7560001300013T 0605631000000200644540000027851101011     143491208500000015092024000000000021000341038090                         091000028048739860MARCELO DORNAS PANHOTTA NEVES           00000000000000000000003500000000004                 
7560001300014U 060000000000000000000000000000000000000000000000000000000000000000000000210000000000000210000000000000000000000000000000001609202416092024    00000000000000000000000                       781844075600000000000000000000       
7560001300015T 0605631000000200644540000027852901011     143550208500000015092024000000000005000341038090                         091000028048739860MARCELO DORNAS PANHOTTA NEVES           00000000000000000000003500000000004                 
7560001300016U 060000000000000000000000000000000000000000000000000000000000000000000000050000000000000050000000000000000000000000000000001609202416092024    00000000000000000000000                       781825975600000000000000000000       
7560001300017T 0605631000000200644540000027856801011     143818211200000015092024000000000036800104002710                         091000018600076862CAYO PARDOS LASTIRI                     00000000000000000000003500000000004                 
7560001300018U 060000000000000000000000000000000000000000000000000000000000000000000000368000000000000368000000000000000000000000000000001609202416092024    00000000000000000000000                       782057475600000000000000000000       
7560001300019T 0605631000000200644540000027857501011     142289205400000015092024000000000032000341088120                         091000033338296819LEIDIANE DOS SANTOS GOMES               00000000000000000000003500000000004                 
7560001300020U 060000000000000000000000000000000000000000000000000000000000000000000000320000000000000320000000000000000000000000000000001609202416092024    00000000000000000000000                       782076175600000000000000000000       
7560001300021T 0605631000000200644540000027859001011     138899158300000015092024000000000069960237003680                         091000024985557811VIVIANE MAGLIANO                        00000000000000000000003500000000004                 
7560001300022U 060000000000000000000000000000000000000000000000000000000000000000000000699600000000000699600000000000000000000000000000001609202416092024    00000000000000000000000                       782193675600000000000000000000       
7560001300023T 0605631000000200644540000027864701011     141853203800000015092024000000000018000341038090                         091000028048739860MARCELO DORNAS PANHOTTA NEVES           00000000000000000000003500000000004                 
7560001300024U 060000000000000000000000000000000000000000000000000000000000000000000000180000000000000180000000000000000000000000000000001609202416092024    00000000000000000000000                       781814775600000000000000000000       
7560001300025T 0605631000000200644540000027865401011     141841203700000015092024000000000020000341038090                         091000028048739860MARCELO DORNAS PANHOTTA NEVES           00000000000000000000003500000000004                 
7560001300026U 060000000000000000000000000000000000000000000000000000000000000000000000200000000000000200000000000000000000000000000000001609202416092024    00000000000000000000000                       781805875600000000000000000000       
7560001300027T 0605631000000200644540000027873301011     139535185600000015092024000000000028000341020000                         091000049482848829WEVERTON BATISTA DOS SANTOS             00000000000000000000003500000000004                 
7560001300028U 060000000000000000000000000000000000000000000000000000000000000000000000280000000000000280000000000000000000000000000000001609202416092024    00000000000000000000000                       782275475600000000000000000000       
7560001300029T 0605631000000200644540000027954501011     141348400000000015092024000000000218000456000020                         092010911237000269MIMAKI RECIFE                           00000000000000000000003500000000004                 
7560001300030U 060000000000000000000000000000000000000000000000000000000000000000000002180000000000002180000000000000000000000000000000001609202416092024    00000000000000000000000                       781917075600000000000000000000       
7560001300031T 0605631000000200644540000027955201011     141360300000000015092024000000000327000033009380                         092010911237000340MIMAKI BLUMENAL                         00000000000000000000003500000000004                 
7560001300032U 060000000000000000000000000000000000000000000000000000000000000000000003270000000000003270000000000000000000000000000000001609202416092024    00000000000000000000000                       781966175600000000000000000000       
7560001300033T 0605631000000200644540000027956001011     141372100000000015092024000000000436000456000020                         092010911237000188MIMAKI SAO PAULO                        00000000000000000000003500000000004                 
7560001300034U 060000000000000000000000000000000000000000000000000000000000000000000004360000000000004360000000000000000000000000000000001609202416092024    00000000000000000000000                       781854675600000000000000000000       
7560001300035T 0605631000000200644540000027957701011     141384160000000015092024000000000109000456000020                         092010911237000420MIMAKI BH                               00000000000000000000003500000000004                 
7560001300036U 060000000000000000000000000000000000000000000000000000000000000000000001090000000000001090000000000000000000000000000000001609202416092024    00000000000000000000000                       781836375600000000000000000000       
7560001300037T 0605631000000200644540000027962401011     143917151500000015092024000000000048400341040810                         091000071010386972CARLOS EDUARDO TONELLI COBO             00000000000000000000003500000000004                 
7560001300038U 060000000000000000000000000000000000000000000000000000000000000000000000484000000000000484000000000000000000000000000000001609202416092024    00000000000000000000000                       782082775600000000000000000000       
7560001300039T 0605631000000200644540000027983901011     140073161700000020092024000000000023203033010360                         091000025095916819EDUARDO ALMEIDA ALENCAR ARRAIS          00000000000000000000003500000000004                 
7560001300040U 060000000000000000000000000000000000000000000000000000000000000000000000232030000000000232030000000000000000000000000000001609202416092024    00000000000000000000000                       782096775600000000000000000000       
75600015         00004200002000000000001586705000000000000000000000000000000000000000000000000000000000000000000000                                                                                                                             
75699999         000001000044000000                                                                                                                                                                                                             
