75600000         219895217000135                    05631000000200644540IWS CURSOS DE IDIOMAS LTDA    SICOOB                                  20711202409030700142608500000                                                                     
75600011T01  043 2019895217000135          563100002405631000000200644540IWS CURSOS DE IDIOMAS LTDA                                                                                    000000000711202400000000                                 
7560001300001T 0605631000000200644540000028437001011     139739184200000010112024000000000028302260000010                         091000040323474845CHRISTOPHER PAULO CRUZ                  00000000000000000000003500000000004                 
7560001300002U 060000000000000000000000000000000000000000000000000000000000000000000000283020000000000283020000000000000000000000000000000611202406112024    00000000000000000000000                       794882775600000000000000000000       
7560001300003T 0605631000000200644540000028445901011     141480169200000010112024000000000024000237012310                         091000011874897867LUIZ ALEXANDRE PROFITTI                 00000000000000000000003500000000004                 
7560001300004U 060000000000000000000000000000000000000000000000000000000000000000000000240000000000000240000000000000000000000000000000000611202406112024    00000000000000000000000                       794685075600000000000000000000       
7560001300005T 0605631000000200644540000028447301011     143805211100000010112024000000000028700341050810                         091000062383501301GABRIEL MELO GAGLIONI                   00000000000000000000003500000000004                 
7560001300006U 060000000000000000000000000000000000000000000000000000000000000000000000287000000000000287000000000000000000000000000000000611202406112024    00000000000000000000000                       794822375600000000000000000000       
7560001300007T 0605631000000200644540000028458401011     139249128400000010112024000000000034662341007560                         091000000623528819ANTONIO CARLOS DA SILVA                 00000000000000000000003500000000004                 
7560001300008U 060000000000000000000000000000000000000000000000000000000000000000000000346620000000000346620000000000000000000000000000000611202406112024    00000000000000000000000                       794696275600000000000000000000       
7560001300009T 0605631000000200644540000028468801011     143649209800000010112024000000000055000341038090                         091000006694524838MARIA LUIZA ARDIZZONE ROSSI             00000000000000000000003500000000004                 
7560001300010U 060000000000000000000000000000000000000000000000000000000000000000000000550000000000000550000000000000000000000000000000000611202406112024    00000000000000000000000                       794718375600000000000000000000       
7560001300011T 0605631000000200644540000028469501011     140834167100000010112024000000000019775001059670                         091000099343460872WANDERLEY JOSE RAMOS VENANCIO           00000000000000000000003500000000004                 
7560001300012U 060000000000000000000000000000000000000000000000000000000000000000000000197750000000000197750000000000000000000000000000000611202406112024    00000000000000000000000                       794794475600000000000000000000       
7560001300013T 0605631000000200644540000028474201011     141588169000000010112024000000000024000237012310                         091000011874897867LUIZ ALEXANDRE PROFITTI                 00000000000000000000003500000000004                 
7560001300014U 060000000000000000000000000000000000000000000000000000000000000000000000240000000000000240000000000000000000000000000000000611202406112024    00000000000000000000000                       794714375600000000000000000000       
75600015         00001600000700000000000214439000000000000000000000000000000000000000000000000000000000000000000000                                                                                                                             
75699999         000001000018000000                                                                                                                                                                                                             
