75600000         232970660000191                    05631000000200980140EDUULMC CURSOS DE IDIOMAS LTDASICOOB                                  23105202409423700085008500000                                                                     
75600011T01  043 2032970660000191          563100002405631000000200980140EDUULMC CURSOS DE IDIOMAS LTDA                                                                                000000003105202400000000                                 
7560001300001T 0905631000000200980140000024885401011     137230191900000030112023000000000025000756056310                         091000041416631828GABRIEL RODRIGUES BATISTA               00000000000000000000003500000000013                 
7560001300002U 090000000000000000000000000000000000000000000000000000000000000000000000000000000000000000000000000000000000000000000000002905202429052024    00000000000000000000000                       753468975600000000000000000000       
7560001300003T 0905631000000200980140000024887901011     133594311000000030112023000000000018742756056310                         091000035117172809KAREN STUART SILVA                      00000000000000000000003500000000013                 
7560001300004U 090000000000000000000000000000000000000000000000000000000000000000000000000000000000000000000000000000000000000000000000002905202429052024    00000000000000000000000                       753469075600000000000000000000       
7560001300005T 0605631000000200980140000026739101011     138952196800000029052024000000000026700237005030                         091000063283298815MARIANGELA NUNES SOARES                 00000000000000000000003500000000004                 
7560001300006U 060000000000000000000000000000000000000000000000000000000000000000000000267000000000000267000000000000000000000000000000002905202429052024    00000000000000000000000                       753289075600000000000000000000       
75600015         00000800000300000000000070442000000000000000000000000000000000000000000000000000000000000000000000                                                                                                                             
75699999         000001000010000000                                                                                                                                                                                                             
