75600000         232970660000191                    05631000000200980140EDUULMC CURSOS DE IDIOMAS EIRESICOOB                                  22105202408412300084608500000                                                                     
75600011T01  043 2032970660000191          563100002405631000000200980140EDUULMC CURSOS DE IDIOMAS EIRE                                                                                000000002105202400000000                                 
7560001300001T 0905631000000200980140000024829101011     134656164800000020112023000000000025000756056310                         091000033152532857VINICIUS GONCALVES BENEDETTI            00000000000000000000003500000000013                 
7560001300002U 090000000000000000000000000000000000000000000000000000000000000000000000000000000000000000000000000000000000000000000000002005202420052024    00000000000000000000000                       751604675600000000000000000000       
7560001300003T 0605631000000200980140000026713001011     138474180400000020052024000000000071232341070550                         091000027111775805CARLOS JOSE  FERREIRA DA COSTA          00000000000000000000003500000000004                 
7560001300004U 060000000000000000000000000000000000000000000000000000000000000000000000712320000000000712320000000000000000000000000000002005202420052024    00000000000000000000000                       751131175600000000000000000000       
7560001300005T 0605631000000200980140000026714801011     139087158400000020052024000000000023203237001540                         091000043877622844DANIELLE AQUINO GASPAR                  00000000000000000000003500000000004                 
7560001300006U 060000000000000000000000000000000000000000000000000000000000000000000000232030000000000232030000000000000000000000000000002005202420052024    00000000000000000000000                       751187075600000000000000000000       
7560001300007T 0605631000000200980140000026715501011     136985175600000020052024000000000023320001001630                         091000043947232802FELLIPE FONSECA                         00000000000000000000003500000000004                 
7560001300008U 060000000000000000000000000000000000000000000000000000000000000000000000233200000000000233200000000000000000000000000000002005202420052024    00000000000000000000000                       751208475600000000000000000000       
7560001300009T 0605631000000200980140000026716201011     139219293000000020052024000000000065296033001150                         091000003696482854NADIR FRANCISCO DO AMARAL               00000000000000000000003500000000004                 
7560001300010U 060000000000000000000000000000000000000000000000000000000000000000000000652960000000000652960000000000000000000000000000002005202420052024    00000000000000000000000                       751425375600000000000000000000       
75600015         00001200000500000000000208051000000000000000000000000000000000000000000000000000000000000000000000                                                                                                                             
75699999         000001000014000000                                                                                                                                                                                                             
