75600000         229492820000120                    05631000000200873060ANEXA IDIOMAS LTDA            SICOOB                                  20410202409031700113308500000                                                                     
75600011T01  043 2029492820000120          563100002405631000000200873060ANEXA IDIOMAS LTDA                                                                                            000000000410202400000000                                 
7560001300001T 0905631000000200873060000026206701011     139648186900000005042024000000000018974756056310                         091000019275440840DANIELA APARECIDA FERREIRA CHAVES       00000000000000000000003500000000013                 
7560001300002U 090000000000000000000000000000000000000000000000000000000000000000000000000000000000000000000000000000000000000000000000000310202403102024    00000000000000000000000                       786169275600000000000000000000       
7560001300003T 0605631000000200873060000028284001011     140122136300000015102024000000000064130237011950                         091000011975390857ROSANA GONCALVES DE OLIVEIRA            00000000000000000000003500000000004                 
7560001300004U 060000000000000000000000000000000000000000000000000000000000000000000000641300000000000641300000000000000000000000000000000310202403102024    00000000000000000000000                       786256675600000000000000000000       
75600015         00000600000200000000000083104000000000000000000000000000000000000000000000000000000000000000000000                                                                                                                             
75699999         000001000008000000                                                                                                                                                                                                             
