75600000         229492820000120                    05631000000200873060ANEXA IDIOMAS LTDA            SICOOB                                  20507202408231900108708500000                                                                     
75600011T01  043 2029492820000120          563100002405631000000200873060ANEXA IDIOMAS LTDA                                                                                            000000000507202400000000                                 
7560001300001T 0905631000000200873060000025205001011     135736186900000005012024000000000017900756056310                         091000019275440840DANIELA APARECIDA FERREIRA CHAVES       00000000000000000000003500000000013                 
7560001300002U 090000000000000000000000000000000000000000000000000000000000000000000000000000000000000000000000000000000000000000000000000407202404072024    00000000000000000000000                       762578775600000000000000000000       
7560001300003T 0605631000000200873060000027143701011     141464191700000005072024000000000039432341037470                         091000011682946819CLEBER JOSE RICARDO MARQUES             00000000000000000000003500000000004                 
7560001300004U 060000000000000000000000000000000000000000000000000000000000000000000000394320000000000394320000000000000000000000000000000407202404072024    00000000000000000000000                       762548975600000000000000000000       
7560001300005T 0605631000000200873060000027189501011     141955204500000010072024000000000022200341086380                         091000033025700823SHIRLEI BATISTA MORILLO                 00000000000000000000003500000000004                 
7560001300006U 060000000000000000000000000000000000000000000000000000000000000000000000222000000000000222000000000000000000000000000000000407202404072024    00000000000000000000000                       762559175600000000000000000000       
7560001300007T 0605631000000200873060000027276101011     137877178000000015072024000000000063600033038530                         091000017234413847ALESSANDRA MORAIS DE GRAZIA             00000000000000000000003500000000004                 
7560001300008U 060000000000000000000000000000000000000000000000000000000000000000000000636000000000000636000000000000000000000000000000000407202404072024    00000000000000000000000                       762327675600000000000000000000       
75600015         00001000000400000000000143132000000000000000000000000000000000000000000000000000000000000000000000                                                                                                                             
75699999         000001000012000000                                                                                                                                                                                                             
