75600000         232970660000191                    05631000000200980140EDUULMC CURSOS DE IDIOMAS LTDASICOOB                                  20201202512412000095008500000                                                                     
75600011T01  043 2032970660000191          563100002405631000000200980140EDUULMC CURSOS DE IDIOMAS LTDA                                                                                000000000201202500000000                                 
7560001300001T 0905631000000200980140000026998001011     142902158200000001072024000000000016667756056310                         091000046056861856NAYARA PEREIRA NASCIMENTO               00000000000000000000003500000000013                 
7560001300002U 090000000000000000000000000000000000000000000000000000000000000000000000000000000000000000000000000000000000000000000000003012202430122024    00000000000000000000000                       809379075600000000000000000000       
7560001300003T 0905631000000200980140000027113901011     142062191900000030062024000000000026500756056310                         091000041416631828GABRIEL RODRIGUES BATISTA               00000000000000000000003500000000013                 
7560001300004U 090000000000000000000000000000000000000000000000000000000000000000000000000000000000000000000000000000000000000000000000003012202430122024    00000000000000000000000                       809358875600000000000000000000       
7560001300005T 0605631000000200980140000029009501011     142032153000000030122024000000000034607001070250                         091000047064514850FERNANDO VASCONDE DE ARRUDA             00000000000000000000003500000000004                 
7560001300006U 060000000000000000000000000000000000000000000000000000000000000000000000346070000000000346070000000000000000000000000000003012202430122024    00000000000000000000000                       809148275600000000000000000000       
7560001300007T 0605631000000200980140000029014201011     141147198000000030122024000000000010000033000600                         091000026605186885ARIANA ACQUESTA CANAL                   00000000000000000000003500000000004                 
7560001300008U 060000000000000000000000000000000000000000000000000000000000000000000000100000000000000100000000000000000000000000000000003012202430122024    00000000000000000000000                       809165675600000000000000000000       
7560001300009T 0605631000000200980140000029020701011     144607215500000030122024000000000024072079000010                         091000054348414840MATHEUS DE OLIVEIRA VANKAICK LAMEIRINHA 00000000000000000000003500000000004                 
7560001300010U 060000000000000000000000000000000000000000000000000000000000000000000000240720000000000240720000000000000000000000000000003012202430122024    00000000000000000000000                       809494175600000000000000000000       
7560001300011T 0605631000000200980140000029201001011     141554188300000015012025000000000024062033010360                         091000042672802823NAYARA VIEIRA DA SILVA                  00000000000000000000003500000000004                 
7560001300012U 060000000000000000000000000000000000000000000000000000000000000000000000240620000000000240620000000000000000000000000000003012202430122024    00000000000000000000000                       809255275600000000000000000000       
7560001300013T 0605631000000200980140000029202801011     144342188300000015012025000000000005000033010360                         091000042672802823NAYARA VIEIRA DA SILVA                  00000000000000000000003500000000004                 
7560001300014U 060000000000000000000000000000000000000000000000000000000000000000000000050000000000000050000000000000000000000000000000003012202430122024    00000000000000000000000                       809236075600000000000000000000       
75600015         00001600000700000000000140908000000000000000000000000000000000000000000000000000000000000000000000                                                                                                                             
75699999         000001000018000000                                                                                                                                                                                                             
