75600000         229492820000120                    05631000000200873060ANEXA IDIOMAS LTDA            SICOOB                                  21710202408424300114108500000                                                                     
75600011T01  043 2029492820000120          563100002405631000000200873060ANEXA IDIOMAS LTDA                                                                                            000000001710202400000000                                 
7560001300001T 0605631000000200873060000028280001011     140761163200000016102024000000000022360341002630                         091000026421529879RENATA CRISTINA SOLHA PEREZ             00000000000000000000003500000000004                 
7560001300002U 060000000000000000000000000000000000000000000000000000000000000000000000223600000000000223600000000000000000000000000000001610202416102024    00000000000000000000000                       790110575600000000000000000000       
75600015         00000400000100000000000022360000000000000000000000000000000000000000000000000000000000000000000000                                                                                                                             
75699999         000001000006000000                                                                                                                                                                                                             
