75600000         219895217000135                    05631000000200644540IWS CURSOS DE IDIOMAS LTDA    SICOOB                                  22211202409024900143308500000                                                                     
75600011T01  043 2019895217000135          563100002405631000000200644540IWS CURSOS DE IDIOMAS LTDA                                                                                    000000002211202400000000                                 
7560001300001T 0605631000000200644540000028631001011     142712155800000020112024000000000030899341008440                         091000029368330867FABIO JURCZYSZYN                        00000000000000000000003500000000004                 
7560001300002U 060000000000000000000000000000000000000000000000000000000000000000000000308990000000000308990000000000000000000000000000002111202421112024    00000000000000000000000                       798870575600000000000000000000       
7560001300003T 0605631000000200644540000028633401011     140015147600000020112024000000000031500033010360                         091000043062398884KARINE ARAUJO DOS ANJOS                 00000000000000000000003500000000004                 
7560001300004U 060000000000000000000000000000000000000000000000000000000000000000000000315000000000000315000000000000000000000000000000002111202421112024    00000000000000000000000                       798903675600000000000000000000       
7560001300005T 0605631000000200644540000028636601011     142844354000000020112024000000000026993033007660                         091000021920881832MARCELO DA SILVA FREIRE                 00000000000000000000003500000000004                 
7560001300006U 060000000000000000000000000000000000000000000000000000000000000000000000269930000000000269930000000000000000000000000000002111202421112024    00000000000000000000000                       798903575600000000000000000000       
7560001300007T 0605631000000200644540000028639801011     144326213500000020112024000000000069600237017690                         091000042363400895MARIA TEREZA BORATTO BARBOSA            00000000000000000000003500000000004                 
7560001300008U 060000000000000000000000000000000000000000000000000000000000000000000000696000000000000696000000000000000000000000000000002111202421112024    00000000000000000000000                       798836675600000000000000000000       
7560001300009T 0605631000000200644540000028640601011     143348207700000020112024000000000034500001015550                         091000027757867827MIRIAN FREIRE IWATA                     00000000000000000000003500000000004                 
7560001300010U 060000000000000000000000000000000000000000000000000000000000000000000000345000000000000345000000000000000000000000000000002111202421112024    00000000000000000000000                       798812675600000000000000000000       
7560001300011T 0605631000000200644540000028643801011     143706210300000020112024000000000026700341016000                         091000054195109876WANESSA MORAES                          00000000000000000000003500000000004                 
7560001300012U 060000000000000000000000000000000000000000000000000000000000000000000000267000000000000267000000000000000000000000000000002111202421112024    00000000000000000000000                       798872075600000000000000000000       
7560001300013T 0605631000000200644540000028645201011     139285489000000020112024000000000027961237001560                         091000048915085825JOYCE BOLOGNANI ROVERI                  00000000000000000000003500000000004                 
7560001300014U 060000000000000000000000000000000000000000000000000000000000000000000000279610000000000279610000000000000000000000000000002111202421112024    00000000000000000000000                       798831875600000000000000000000       
7560001300015T 0605631000000200644540000028647701011     139489132200000020112024000000000034280341062410                         091000000887279805THAIS FAE LAVAREDA DE SOUZA             00000000000000000000003500000000004                 
7560001300016U 060000000000000000000000000000000000000000000000000000000000000000000000342800000000000342800000000000000000000000000000002111202421112024    00000000000000000000000                       798879275600000000000000000000       
7560001300017T 0605631000000200644540000028680001011     139563197400000025112024000000000018000104002500                         091000028682214830MARCIA SILVA BONFIM DE SOUZA            00000000000000000000003500000000004                 
7560001300018U 060000000000000000000000000000000000000000000000000000000000000000000000180000000000000180000000000000000000000000000000002111202421112024    00000000000000000000000                       798824675600000000000000000000       
7560001300019T 0605631000000200644540000028689601011     139177181300000025112024000000000018985104002500                         091000028682214830MARCIA SILVA BONFIM DE SOUZA            00000000000000000000003500000000004                 
7560001300020U 060000000000000000000000000000000000000000000000000000000000000000000000189850000000000189850000000000000000000000000000002111202421112024    00000000000000000000000                       798896275600000000000000000000       
75600015         00002200001000000000000319418000000000000000000000000000000000000000000000000000000000000000000000                                                                                                                             
75699999         000001000024000000                                                                                                                                                                                                             
