75600000         229492820000120                    05631000000200873060ANEXA IDIOMAS LTDA            SICOOB                                  21105202411425600105908500000                                                                     
75600011T01  043 2029492820000120          563100002405631000000200873060ANEXA IDIOMAS LTDA                                                                                            000000001105202400000000                                 
7560001300001T 0605631000000200873060000026568901011     141900204100000010052024000000000022880237001120                         091000082872864849AIDE BRITO DE DEUS OLIVEIRA             00000000000000000000003500000000004                 
7560001300002U 060000000000000000000000000000000000000000000000000000000000000000000000228800000000000228800000000000000000000000000000001005202410052024    00000000000000000000000                       748559375600000000000000000000       
7560001300003T 0605631000000200873060000026569601011     137875178000000015052024000000000063600033038530                         091000017234413847ALESSANDRA MORAIS DE GRAZIA             00000000000000000000003500000000004                 
7560001300004U 060000000000000000000000000000000000000000000000000000000000000000000000636000000000000636000000000000000000000000000000001005202410052024    00000000000000000000000                       748908175600000000000000000000       
7560001300005T 0605631000000200873060000026572901011     139015185100000010052024000000000028832341037500                         091000027245205809ANSELMO DOS SANTOS                      00000000000000000000003500000000004                 
7560001300006U 060000000000000000000000000000000000000000000000000000000000000000000000288320000000000288320000000000000000000000000000001005202410052024    00000000000000000000000                       748751675600000000000000000000       
7560001300007T 0605631000000200873060000026577501011     138343194600000015052024000000000017900341073860                         091000000580681637VIVIANE DALCIN GARCIA DE OLIVEIRA       00000000000000000000003500000000004                 
7560001300008U 060000000000000000000000000000000000000000000000000000000000000000000000179000000000000179000000000000000000000000000000001005202410052024    00000000000000000000000                       748525175600000000000000000000       
7560001300009T 0605631000000200873060000026578201011     136597172600000010052024000000000018974033047230                         091000020533601860LUCIANA CARVALHO                        00000000000000000000003500000000004                 
7560001300010U 060000000000000000000000000000000000000000000000000000000000000000000000189740000000000189740000000000000000000000000000001005202410052024    00000000000000000000000                       748755775600000000000000000000       
7560001300011T 0605631000000200873060000026582201011     140648190600000010052024000000000028376237013220                         091000044197827814EDUARDO ARENS BENI                      00000000000000000000003500000000004                 
7560001300012U 060000000000000000000000000000000000000000000000000000000000000000000000283760000000000283760000000000000000000000000000001005202410052024    00000000000000000000000                       748866775600000000000000000000       
7560001300013T 0605631000000200873060000026583001011     137441473000000010052024000000000024363237003950                         091000016773035813VILMA DE OLIVEIRA GALVEZ BARBOSA        00000000000000000000003500000000004                 
7560001300014U 060000000000000000000000000000000000000000000000000000000000000000000000243630000000000243630000000000000000000000000000001005202410052024    00000000000000000000000                       748864675600000000000000000000       
7560001300015T 0605631000000200873060000026585401011     140527199000000010052024000000000022000237023850                         091000034614329896MANOEL J NETO                           00000000000000000000003500000000004                 
7560001300016U 060000000000000000000000000000000000000000000000000000000000000000000000220000000000000220000000000000000000000000000000001005202410052024    00000000000000000000000                       748550075600000000000000000000       
7560001300017T 0605631000000200873060000026588601011     137477113000000010052024000000000040810033046320                         091000027109212866ALESSANDRA DOURADO MELO                 00000000000000000000003500000000004                 
7560001300018U 060000000000000000000000000000000000000000000000000000000000000000000000408100000000000408100000000000000000000000000000001005202410052024    00000000000000000000000                       748909075600000000000000000000       
7560001300019T 0605631000000200873060000026592601011     139243128400000010052024000000000034662341007560                         091000000623528819ANTONIO CARLOS DA SILVA                 00000000000000000000003500000000004                 
7560001300020U 060000000000000000000000000000000000000000000000000000000000000000000000346620000000000346620000000000000000000000000000001005202410052024    00000000000000000000000                       748533575600000000000000000000       
7560001300021T 0605631000000200873060000026611101011     136753174300000010052024000000000021094001028970                         091000026203136867IRIS DE SOUZA REIS                      00000000000000000000003500000000004                 
7560001300022U 060000000000000000000000000000000000000000000000000000000000000000000000210940000000000210940000000000000000000000000000001005202410052024    00000000000000000000000                       748574975600000000000000000000       
7560001300023T 0605631000000200873060000026617501011     138031523000000010052024000000000025338033015720                         091000008745532885VANDA UTINO MOREIRA                     00000000000000000000003500000000004                 
7560001300024U 060000000000000000000000000000000000000000000000000000000000000000000000253380000000000253380000000000000000000000000000001005202410052024    00000000000000000000000                       748872975600000000000000000000       
7560001300025T 0605631000000200873060000026711301011     141727202800000020052024000000000035200033015720                         091000043469702810RENAN FERREIRA DIAS                     00000000000000000000003500000000004                 
7560001300026U 060000000000000000000000000000000000000000000000000000000000000000000000352000000000000352000000000000000000000000000000001005202410052024    00000000000000000000000                       748757575600000000000000000000       
75600015         00002800001300000000000384029000000000000000000000000000000000000000000000000000000000000000000000                                                                                                                             
75699999         000001000030000000                                                                                                                                                                                                             
