75600000         219895217000135                    05631000000200644540IWS CURSOS DE IDIOMAS LTDA    SICOOB                                  21607202408030400135508500000                                                                     
75600011T01  043 2019895217000135          563100002405631000000200644540IWS CURSOS DE IDIOMAS LTDA                                                                                    000000001607202400000000                                 
7560001300001T 0905631000000200644540000025224301011     138482179000000015012024000000000008000756056310                         091000028751297833EMANOEL AGRIPINO PADUA                 00000000000000000000003500000000013                 
7560001300002U 090000000000000000000000000000000000000000000000000000000000000000000000000000000000000000000000000000000000000000000000001507202415072024    00000000000000000000000                       765911075600000000000000000000       
7560001300003T 0905631000000200644540000025227501011     134346299000000015012024000000000013878756056310                         091000009158540903GUILHERME BARBOSA MENDES                00000000000000000000003500000000013                 
7560001300004U 090000000000000000000000000000000000000000000000000000000000000000000000000000000000000000000000000000000000000000000000001507202415072024    00000000000000000000000                       765911175600000000000000000000       
7560001300005T 0905631000000200644540000025233001011     135585185400000015012024000000000009083756056310                         091000002688745492MARTA MIKAELLE TORRES                   00000000000000000000003500000000013                 
7560001300006U 090000000000000000000000000000000000000000000000000000000000000000000000000000000000000000000000000000000000000000000000001507202415072024    00000000000000000000000                       765911275600000000000000000000       
7560001300007T 0905631000000200644540000025237901011     137692192400000015012024000000000024750756056310                         091000025493112809VIVIAN MARQUES                          00000000000000000000003500000000013                 
7560001300008U 090000000000000000000000000000000000000000000000000000000000000000000000000000000000000000000000000000000000000000000000001507202415072024    00000000000000000000000                       765911375600000000000000000000       
7560001300009T 0905631000000200644540000025247201011     135082101400000015012024000000000015000756056310                         091000045549512866DANIELLE CARDOSO ALVES CARNEIRO         00000000000000000000003500000000013                 
7560001300010U 090000000000000000000000000000000000000000000000000000000000000000000000000000000000000000000000000000000000000000000000001507202415072024    00000000000000000000000                       765911475600000000000000000000       
7560001300011T 0905631000000200644540000025248001011     137907156000000015012024000000000026500756056310                         091000036374365828DRIELE PINHEIRO SANTOS                  00000000000000000000003500000000013                 
7560001300012U 090000000000000000000000000000000000000000000000000000000000000000000000000000000000000000000000000000000000000000000000001507202415072024    00000000000000000000000                       765911575600000000000000000000       
7560001300013T 0905631000000200644540000025253701011     138224141900000015012024000000000022142756056310                         091000000980658829FRANCISCA MIRIAN SOUZA SANTOS PINHEIRO  00000000000000000000003500000000013                 
7560001300014U 090000000000000000000000000000000000000000000000000000000000000000000000000000000000000000000000000000000000000000000000001507202415072024    00000000000000000000000                       765911675600000000000000000000       
7560001300015T 0905631000000200644540000025254401011     136653152800000015012024000000000025652756056310                         091000031112058869MARCIA ROSA DE ARRUDA                   00000000000000000000003500000000013                 
7560001300016U 090000000000000000000000000000000000000000000000000000000000000000000000000000000000000000000000000000000000000000000000001507202415072024    00000000000000000000000                       765911775600000000000000000000       
7560001300017T 0905631000000200644540000025255101011     136242170400000015012024000000000018656756056310                         091000016027907878MARCIA SAPATA DA SILVA                  00000000000000000000003500000000013                 
7560001300018U 090000000000000000000000000000000000000000000000000000000000000000000000000000000000000000000000000000000000000000000000001507202415072024    00000000000000000000000                       765911875600000000000000000000       
7560001300019T 0905631000000200644540000025275901011     133920149200000015012024000000000121000756056310                         091000024985557811VIVIANE MAGLIANO                        00000000000000000000003500000000013                 
7560001300020U 090000000000000000000000000000000000000000000000000000000000000000000000000000000000000000000000000000000000000000000000001507202415072024    00000000000000000000000                       765911975600000000000000000000       
7560001300021T 0905631000000200644540000025276601011     135610185600000015012024000000000058000756056310                         091000049482848829WEVERTON BATISTA DOS SANTOS             00000000000000000000003500000000013                 
7560001300022U 090000000000000000000000000000000000000000000000000000000000000000000000000000000000000000000000000000000000000000000000001507202415072024    00000000000000000000000                       765912075600000000000000000000       
7560001300023T 0905631000000200644540000025281301011     137365685000000015012024000000000029589756056310                         091000040434550892BRUNO FERRAZ PEREIRA                    00000000000000000000003500000000013                 
7560001300024U 090000000000000000000000000000000000000000000000000000000000000000000000000000000000000000000000000000000000000000000000001507202415072024    00000000000000000000000                       765912175600000000000000000000       
7560001300025T 0905631000000200644540000025419001011     140345197700000015012024000000000018000756056310                         091000005159507426JOSE ALAN GALINDO PEREIRA               00000000000000000000003500000000013                 
7560001300026U 090000000000000000000000000000000000000000000000000000000000000000000000000000000000000000000000000000000000000000000000001507202415072024    00000000000000000000000                       765912275600000000000000000000       
7560001300027T 0905631000000200644540000025420801011     140357197700000015012024000000000007500756056310                         091000005159507426JOSE ALAN GALINDO PEREIRA               00000000000000000000003500000000013                 
7560001300028U 090000000000000000000000000000000000000000000000000000000000000000000000000000000000000000000000000000000000000000000000001507202415072024    00000000000000000000000                       765912375600000000000000000000       
7560001300029T 0605631000000200644540000027236001011     141428151500000015072024000000000047700341040810                         091000071010386972CARLOS EDUARDO TONELLI COBO             00000000000000000000003500000000004                 
7560001300030U 060000000000000000000000000000000000000000000000000000000000000000000000477000000000000477000000000000000000000000000000001507202415072024    00000000000000000000000                       765420875600000000000000000000       
7560001300031T 0605631000000200644540000027237701011     139759131000000015072024000000000014711085011630                         091000004099091902DANIEL FELIPE FILACHOWSKI               00000000000000000000003500000000004                 
7560001300032U 060000000000000000000000000000000000000000000000000000000000000000000000147110000000000147110000000000000000000000000000001507202415072024    00000000000000000000000                       765409375600000000000000000000       
7560001300033T 0605631000000200644540000027239101011     139927299000000015072024000000000014711033009380                         091000009158540903GUILHERME BARBOSA MENDES                00000000000000000000003500000000004                 
7560001300034U 060000000000000000000000000000000000000000000000000000000000000000000000147110000000000147110000000000000000000000000000001507202415072024    00000000000000000000000                       765789175600000000000000000000       
7560001300035T 0605631000000200644540000027240001011     140794100900000015072024000000000007416237025200                         091000001652584625JOSE ARGENTINO DE OLIVEIRA NETO         00000000000000000000003500000000004                 
7560001300036U 060000000000000000000000000000000000000000000000000000000000000000000000074160000000000074160000000000000000000000000000001507202415072024    00000000000000000000000                       765439975600000000000000000000       
7560001300037T 0605631000000200644540000027242401011     142099192300000015072024000000000026235341010240                         091000039856088810LUCAS DE PAULA OLTREMARI                00000000000000000000003500000000004                 
7560001300038U 060000000000000000000000000000000000000000000000000000000000000000000000262350000000000262350000000000000000000000000000001507202415072024    00000000000000000000000                       765875575600000000000000000000       
7560001300039T 0605631000000200644540000027243101011     140095185300000015072024000000000009628237002860                         091000009526613490MARIA EMILIA DE SOUZA SILVA             00000000000000000000003500000000004                 
7560001300040U 060000000000000000000000000000000000000000000000000000000000000000000000096280000000000096280000000000000000000000000000001507202415072024    00000000000000000000000                       765997675600000000000000000000       
7560001300041T 0605631000000200644540000027248801011     139401129900000015072024000000000045000033007280                         091000028789640802MONALIZA MARIA ALVES                    00000000000000000000003500000000004                 
7560001300042U 060000000000000000000000000000000000000000000000000000000000000000000000450000000000000450000000000000000000000000000000001507202415072024    00000000000000000000000                       765435575600000000000000000000       
7560001300043T 0605631000000200644540000027255001011     139795189800000015072024000000000021094633000010                         091000032297933827THALITA ALESSANDRA DE SOUZA             00000000000000000000003500000000004                 
7560001300044U 060000000000000000000000000000000000000000000000000000000000000000000000210940000000000210940000000000000000000000000000001507202415072024    00000000000000000000000                       765557175600000000000000000000       
7560001300045T 0605631000000200644540000027256701011     141698124000000015072024000000000035000033001400                         091000052522627805ERIC VINICIUS DA SILVA MARTINS          00000000000000000000003500000000004                 
7560001300046U 060000000000000000000000000000000000000000000000000000000000000000000000350000000000000350000000000000000000000000000000001507202415072024    00000000000000000000000                       766006775600000000000000000000       
7560001300047T 0605631000000200644540000027257401011     139125131900000015072024000000000065720341038090                         091000027899694850EVANDRO DE SANTANA CAVICCHIO            00000000000000000000003500000000004                 
7560001300048U 060000000000000000000000000000000000000000000000000000000000000000000000657200000000000657200000000000000000000000000000001507202415072024    00000000000000000000000                       765421475600000000000000000000       
7560001300049T 0605631000000200644540000027262101011     140770190300000015072024000000000015900633000010                         091000032297933827THALITA ALESSANDRA DE SOUZA             00000000000000000000003500000000004                 
7560001300050U 060000000000000000000000000000000000000000000000000000000000000000000000159000000000000159000000000000000000000000000000001507202415072024    00000000000000000000000                       765552775600000000000000000000       
7560001300051T 0605631000000200644540000027263901011     142245190300000015072024000000000005000633000010                         091000032297933827THALITA ALESSANDRA DE SOUZA             00000000000000000000003500000000004                 
7560001300052U 060000000000000000000000000000000000000000000000000000000000000000000000050000000000000050000000000000000000000000000000001507202415072024    00000000000000000000000                       765549475600000000000000000000       
7560001300053T 0605631000000200644540000027264601011     142287205400000015072024000000000032000341088120                         091000033338296819LEIDIANE DOS SANTOS GOMES               00000000000000000000003500000000004                 
7560001300054U 060000000000000000000000000000000000000000000000000000000000000000000000320000000000000320000000000000000000000000000000001507202415072024    00000000000000000000000                       766017575600000000000000000000       
7560001300055T 0605631000000200644540000027266001011     141008199300000015072024000000000019000001067610                         091000016909083865CATIA CIRLENE DE OLIVEIRA SANTOS        00000000000000000000003500000000004                 
7560001300056U 060000000000000000000000000000000000000000000000000000000000000000000000190000000000000190000000000000000000000000000000001507202415072024    00000000000000000000000                       765454275600000000000000000000       
7560001300057T 0605631000000200644540000027267801011     141851203800000015072024000000000018000341038090                         091000028048739860MARCELO DORNAS PANHOTTA NEVES           00000000000000000000003500000000004                 
7560001300058U 060000000000000000000000000000000000000000000000000000000000000000000000180000000000000180000000000000000000000000000000001507202415072024    00000000000000000000000                       765641975600000000000000000000       
7560001300059T 0605631000000200644540000027268501011     141839203700000015072024000000000020000341038090                         091000028048739860MARCELO DORNAS PANHOTTA NEVES           00000000000000000000003500000000004                 
7560001300060U 060000000000000000000000000000000000000000000000000000000000000000000000200000000000000200000000000000000000000000000000001507202415072024    00000000000000000000000                       765588075600000000000000000000       
7560001300061T 0605631000000200644540000027269201011     141639202300000015072024000000000015000341015960                         091000052570518859VITOR VIEIRA ALBUQUERQUE                00000000000000000000003500000000004                 
7560001300062U 060000000000000000000000000000000000000000000000000000000000000000000000150000000000000150000000000000000000000000000000001507202415072024    00000000000000000000000                       765423575600000000000000000000       
7560001300063T 0605631000000200644540000027270001011     139533185600000015072024000000000028000341020000                         091000049482848829WEVERTON BATISTA DOS SANTOS             00000000000000000000003500000000004                 
7560001300064U 060000000000000000000000000000000000000000000000000000000000000000000000280000000000000280000000000000000000000000000000001507202415072024    00000000000000000000000                       765422975600000000000000000000       
7560001300065T 0605631000000200644540000027272501011     137467748000000015072024000000000040040341037890                         091000051097253813GABRIELA HIGA MONJAR SECKLER            00000000000000000000003500000000004                 
7560001300066U 060000000000000000000000000000000000000000000000000000000000000000000000400400000000000400400000000000000000000000000000001507202415072024    00000000000000000000000                       765380175600000000000000000000       
7560001300067T 0605631000000200644540000027302101011     141346400000000015072024000000000218000033045500                         092010911237000269MIMAKI RECIFE                           00000000000000000000003500000000004                 
7560001300068U 060000000000000000000000000000000000000000000000000000000000000000000002180000000000002180000000000000000000000000000000001507202415072024    00000000000000000000000                       765385475600000000000000000000       
7560001300069T 0605631000000200644540000027303901011     141358300000000015072024000000000327000033009380                         092010911237000340MIMAKI BLUMENAL                         00000000000000000000003500000000004                 
7560001300070U 060000000000000000000000000000000000000000000000000000000000000000000003270000000000003270000000000000000000000000000000001507202415072024    00000000000000000000000                       765388875600000000000000000000       
7560001300071T 0605631000000200644540000027304601011     141370100000000015072024000000000436000033045500                         092010911237000188MIMAKI SAO PAULO                        00000000000000000000003500000000004                 
7560001300072U 060000000000000000000000000000000000000000000000000000000000000000000004360000000000004360000000000000000000000000000000001507202415072024    00000000000000000000000                       765631975600000000000000000000       
7560001300073T 0605631000000200644540000027305301011     141382160000000015072024000000000163500033045500                         092010911237000420MIMAKI BH                               00000000000000000000003500000000004                 
7560001300074U 060000000000000000000000000000000000000000000000000000000000000000000001635000000000001635000000000000000000000000000000001507202415072024    00000000000000000000000                       765582875600000000000000000000       
7560001300075T 0605631000000200644540000027309201011     139771153000000020072024000000000004904033034090                         091000032300678861DIOGO NEVES MARINHO                     00000000000000000000003500000000004                 
7560001300076U 060000000000000000000000000000000000000000000000000000000000000000000000049040000000000049040000000000000000000000000000001507202415072024    00000000000000000000000                       765432475600000000000000000000       
7560001300077T 0605631000000200644540000027324301011     140071161700000020072024000000000023203033010360                         091000025095916819EDUARDO ALMEIDA ALENCAR ARRAIS          00000000000000000000003500000000004                 
7560001300078U 060000000000000000000000000000000000000000000000000000000000000000000000232030000000000232030000000000000000000000000000001507202415072024    00000000000000000000000                       765435875600000000000000000000       
7560001300079T 0605631000000200644540000027327501011     141821203600000020072024000000000028700077000010                         091000036613110850NATALIA APARECIDA DE PAULA RIBEIRO      00000000000000000000003500000000004                 
7560001300080U 060000000000000000000000000000000000000000000000000000000000000000000000287000000000000287000000000000000000000000000000001507202415072024    00000000000000000000000                       765593575600000000000000000000       
7560001300081T 0605631000000200644540000027354401011     137359720000000025072024000000000037312104040420                         091000033774740801BRUNA BRITO DE MIRANDA                  00000000000000000000003500000000004                 
7560001300082U 060000000000000000000000000000000000000000000000000000000000000000000000373120000000000373120000000000000000000000000000001507202415072024    00000000000000000000000                       765448075600000000000000000000       
7560001300083T 0605631000000200644540000027359001011     139951161100000025072024000000000023203104016720                         091000016059959830SILVANA FERREIRA DAMACENA               00000000000000000000003500000000004                 
7560001300084U 060000000000000000000000000000000000000000000000000000000000000000000000232030000000000232030000000000000000000000000000001507202415072024    00000000000000000000000                       765738775600000000000000000000       
75600015         00008600004200000000002139727000000000000000000000000000000000000000000000000000000000000000000000                                                                                                                             
75699999         000001000088000000                                                                                                                                                                                                             
