75600000         232970660000191                    05631000000200980140EDUULMC CURSOS DE IDIOMAS LTDASICOOB                                  20108202409422700088008500000                                                                     
75600011T01  043 2032970660000191          563100002405631000000200980140EDUULMC CURSOS DE IDIOMAS LTDA                                                                                000000000108202400000000                                 
7560001300001T 0605631000000200980140000027462501011     141573168200000005082024000000000024719212000010                         091000030755045807RENATA DOS REIS LIMA                    00000000000000000000003500000000004                 
7560001300002U 060000000000000000000000000000000000000000000000000000000000000000000000247190000000000247190000000000000000000000000000003107202431072024    00000000000000000000000                       769506675600000000000000000000       
7560001300003T 0605631000000200980140000027463201011     143408168200000005082024000000000005000260000010                         091000030755045807RENATA DOS REIS LIMA                    00000000000000000000003500000000004                 
7560001300004U 060000000000000000000000000000000000000000000000000000000000000000000000050000000000000050000000000000000000000000000000003107202431072024    00000000000000000000000                       769538775600000000000000000000       
7560001300005T 0605631000000200980140000027604101011     139354331000000015082024000000000081620237001560                         091000017129471840LISANDRA MARQUES ALISEDA SEDRANI        00000000000000000000003500000000004                 
7560001300006U 060000000000000000000000000000000000000000000000000000000000000000000000816200000000000816200000000000000000000000000000003107202431072024    00000000000000000000000                       769490775600000000000000000000       
75600015         00000800000300000000000111339000000000000000000000000000000000000000000000000000000000000000000000                                                                                                                             
75699999         000001000010000000                                                                                                                                                                                                             
