75600000         229492820000120                    05631000000200873060ANEXA IDIOMAS LTDA            SICOOB                                  22607202408423700109708500000                                                                     
75600011T01  043 2029492820000120          563100002405631000000200873060ANEXA IDIOMAS LTDA                                                                                            000000002607202400000000                                 
7560001300001T 0605631000000200873060000027368401011     142414111500000025072024000000000030337033029800                         091000098449648491MARIA HELENA DOS REIS                   00000000000000000000003500000000004                 
7560001300002U 060000000000000000000000000000000000000000000000000000000000000000000000303370000000000303370000000000000000000000000000002507202425072024    00000000000000000000000                       768249375600000000000000000000       
7560001300003T 0605631000000200873060000027371701011     140275133700000025072024000000000017490237011930                         091000034193427803EDVANIA SILVA PEREIRA                   00000000000000000000003500000000004                 
7560001300004U 060000000000000000000000000000000000000000000000000000000000000000000000174900000000000174900000000000000000000000000000002507202425072024    00000000000000000000000                       768139575600000000000000000000       
75600015         00000600000200000000000047827000000000000000000000000000000000000000000000000000000000000000000000                                                                                                                             
75699999         000001000008000000                                                                                                                                                                                                             
