75600000         232970660000191                    05631000000200980140EDUULMC CURSOS DE IDIOMAS LTDASICOOB                                  20808202408032500088508500000                                                                     
75600011T01  043 2032970660000191          563100002405631000000200980140EDUULMC CURSOS DE IDIOMAS LTDA                                                                                000000000808202400000000                                 
7560001300001T 0605631000000200980140000027542001011     142148173800000010082024000000000016517001047520                         091000050020255870VITOR ANTUNES PEREIRA                   00000000000000000000003500000000004                 
7560001300002U 060000000000000000000000000000000000000000000000000000000000000000000000165170000000000165170000000000000000000000000000000708202407082024    00000000000000000000000                       771333575600000000000000000000       
75600015         00000400000100000000000016517000000000000000000000000000000000000000000000000000000000000000000000                                                                                                                             
75699999         000001000006000000                                                                                                                                                                                                             
