75600000         229492820000120                    05631000000200873060ANEXA IDIOMAS LTDA            SICOOB                                  22012202415540400117308500000                                                                     
75600011T01  043 2029492820000120          563100002405631000000200873060ANEXA IDIOMAS LTDA                                                                                            000000002012202400000000                                 
7560001300001T 0605631000000200873060000028865001011     140596900000000020122024000000000218818341010170                         092060687639000119PLURY QUIMICAS                          00000000000000000000000000000000004                 
7560001300002U 060000000000000000000000000000000000000000000000000000000000000000000002188180000000002188180000000000000000000000000000002012202420122024    00000000000000000000000                       807511775600000000000000000000       
7560001300003T 0605631000000200873060000028994601011     141130200000000020122024000000000035200033020620                         091000032243380838NADLA ARAUJO DA SILVA                   00000000000000000000000000000000004                 
7560001300004U 060000000000000000000000000000000000000000000000000000000000000000000000352000000000000352000000000000000000000000000000002012202420122024    00000000000000000000000                       807503575600000000000000000000       
7560001300005T 0605631000000200873060000029000701011     141601171900000020122024000000000022360033047230                         091000020533601860LUCIANA CARVALHO                        00000000000000000000000000000000004                 
7560001300006U 060000000000000000000000000000000000000000000000000000000000000000000000223600000000000223600000000000000000000000000000002012202420122024    00000000000000000000000                       807507875600000000000000000000       
75600015         00000800000300000000000276378000000000000000000000000000000000000000000000000000000000000000000000                                                                                                                             
75699999         000001000010000000                                                                                                                                                                                                             
