75600000         229492820000120                    05631000000200873060ANEXA IDIOMAS LTDA            SICOOB                                  20407202409011000108608500000                                                                     
75600011T01  043 2029492820000120          563100002405631000000200873060ANEXA IDIOMAS LTDA                                                                                            000000000407202400000000                                 
7560001300001T 0605631000000200873060000027290501011     140119136300000015072024000000000064130237011950                         091000011975390857ROSANA GONCALVES DE OLIVEIRA            00000000000000000000003500000000004                 
7560001300002U 060000000000000000000000000000000000000000000000000000000000000000000000641300000000000641300000000000000000000000000000000307202403072024    00000000000000000000000                       762186475600000000000000000000       
75600015         00000400000100000000000064130000000000000000000000000000000000000000000000000000000000000000000000                                                                                                                             
75699999         000001000006000000                                                                                                                                                                                                             
