75600000         219895217000135                    05631000000200644540IWS CURSOS DE IDIOMAS LTDA    SICOOB                                  21710202408424300141408500000                                                                     
75600011T01  043 2019895217000135          563100002405631000000200644540IWS CURSOS DE IDIOMAS LTDA                                                                                    000000001710202400000000                                 
7560001300001T 0605631000000200644540000028311701011     140445198300000020102024000000000025000633000010                         091000044504887843CAMILA SILVA BARCELOS                   00000000000000000000003500000000004                 
7560001300002U 060000000000000000000000000000000000000000000000000000000000000000000000250000000000000250000000000000000000000000000000001610202416102024    00000000000000000000000                       790182175600000000000000000000       
7560001300003T 0605631000000200644540000028389001011     143750210700000030102024000000000023000756043400                         091000022943219878CINTIA REGINA DE FREITAS                00000000000000000000003500000000006                 
7560001300004U 060000000000000000000000000000000000000000000000000000000000000000000000230000000000000230000000000000000000000000000000001610202416102024    00000000000000000000000                       790346975600000000000000000000       
75600015         00000600000200000000000048000000000000000000000000000000000000000000000000000000000000000000000000                                                                                                                             
75699999         000001000008000000                                                                                                                                                                                                             
