75600000         232970660000191                    05631000000200980140EDUULMC CURSOS DE IDIOMAS LTDASICOOB                                  22810202409251400092008500000                                                                     
75600011T01  043 2032970660000191          563100002405631000000200980140EDUULMC CURSOS DE IDIOMAS LTDA                                                                                000000002810202400000000                                 
7560001300001T 0605631000000200980140000028360801011     138947196700000025102024000000000017800260000010                         091000042973398894ANNA JULIA DE PAULA ABREU               00000000000000000000003500000000004                 
7560001300002U 060000000000000000000000000000000000000000000000000000000000000000000000178000000000000178000000000000000000000000000000002510202425102024    00000000000000000000000                       792267275600000000000000000000       
7560001300003T 0605631000000200980140000028367901011     142304205500000025102024000000000070000237023800                         091000023105369899PABLO ALBERTO ALBANO                    00000000000000000000003500000000004                 
7560001300004U 060000000000000000000000000000000000000000000000000000000000000000000000700000000000000700000000000000000000000000000000002510202425102024    00000000000000000000000                       792168675600000000000000000000       
7560001300005T 0605631000000200980140000028368601011     139200149800000025102024000000000029150237001220                         091000027893285877ANA PAULA HAMMERMEISTER GIMENES         00000000000000000000003500000000004                 
7560001300006U 060000000000000000000000000000000000000000000000000000000000000000000000291500000000000291500000000000000000000000000000002510202425102024    00000000000000000000000                       792077775600000000000000000000       
7560001300007T 0605631000000200980140000028371901011     144055211800000025102024000000000028302260000010                         091000022651413801RAQUEL VIEIRA FONTES                    00000000000000000000003500000000004                 
7560001300008U 060000000000000000000000000000000000000000000000000000000000000000000000283020000000000283020000000000000000000000000000002510202425102024    00000000000000000000000                       792267575600000000000000000000       
7560001300009T 0605631000000200980140000028372601011     144067211800000025102024000000000003000260000010                         091000022651413801RAQUEL VIEIRA FONTES                    00000000000000000000003500000000004                 
7560001300010U 060000000000000000000000000000000000000000000000000000000000000000000000030000000000000030000000000000000000000000000000002510202425102024    00000000000000000000000                       792267875600000000000000000000       
75600015         00001200000500000000000148252000000000000000000000000000000000000000000000000000000000000000000000                                                                                                                             
75699999         000001000014000000                                                                                                                                                                                                             
