75600000         229492820000120                    05631000000200873060ANEXA IDIOMAS LTDA            SICOOB                                  22208202408424100111308500000                                                                     
75600011T01  043 2029492820000120          563100002405631000000200873060ANEXA IDIOMAS LTDA                                                                                            000000002208202400000000                                 
7560001300001T 0605631000000200873060000027648201011     138465832000000021082024000000000072758001047760                         091000017042999851AURORA CRISTINA DOMINGOS                00000000000000000000003500000000004                 
7560001300002U 060000000000000000000000000000000000000000000000000000000000000000000000727580000000000727580000000000000000000000000000002108202421082024    00000000000000000000000                       775533075600000000000000000000       
7560001300003T 0605631000000200873060000027649001011     141929204300000020082024000000000028300033044330                         091000026257486807ELIANA SOUSA DE OLIVEIRA                00000000000000000000003500000000004                 
7560001300004U 060000000000000000000000000000000000000000000000000000000000000000000000283000000000000283000000000000000000000000000000002108202421082024    00000000000000000000000                       775551075600000000000000000000       
7560001300005T 0605631000000200873060000027721601011     139390130700000025082024000000000023203104003460                         091000014930017874MARCOS DONIZETE DOS SANTOS              00000000000000000000003500000000004                 
7560001300006U 060000000000000000000000000000000000000000000000000000000000000000000000232030000000000232030000000000000000000000000000002108202421082024    00000000000000000000000                       775457375600000000000000000000       
75600015         00000800000300000000000124261000000000000000000000000000000000000000000000000000000000000000000000                                                                                                                             
75699999         000001000010000000                                                                                                                                                                                                             
