75600000         229492820000120                    05631000000200873060ANEXA IDIOMAS LTDA            SICOOB                                  21908202409245100111008500000                                                                     
75600011T01  043 2029492820000120          563100002405631000000200873060ANEXA IDIOMAS LTDA                                                                                            000000001908202400000000                                 
7560001300001T 0605631000000200873060000027594001011     140759163200000016082024000000000022360341002630                         091000026421529879RENATA CRISTINA SOLHA PEREZ             00000000000000000000003500000000004                 
7560001300002U 060000000000000000000000000000000000000000000000000000000000000000000000223600000000000223600000000000000000000000000000001608202416082024    00000000000000000000000                       774285175600000000000000000000       
75600015         00000400000100000000000022360000000000000000000000000000000000000000000000000000000000000000000000                                                                                                                             
75699999         000001000006000000                                                                                                                                                                                                             
