75600000         219895217000135                    05631000000200644540IWS CURSOS DE IDIOMAS LTDA    SICOOB                                  22808202409032100138008500000                                                                     
75600011T01  043 2019895217000135          563100002405631000000200644540IWS CURSOS DE IDIOMAS LTDA                                                                                    000000002808202400000000                                 
7560001300001T 0905631000000200644540000025667701011     137932155900000028022024000000000014712756056310                         091000003251742965JONAS ROBERTO KOEHLER                   00000000000000000000003500000000013                 
7560001300002U 090000000000000000000000000000000000000000000000000000000000000000000000000000000000000000000000000000000000000000000000002708202427082024    00000000000000000000000                       776739075600000000000000000000       
7560001300003T 0905631000000200644540000025668401011     140346197700000028022024000000000018000756056310                         091000005159507426JOSE ALAN GALINDO PEREIRA               00000000000000000000003500000000013                 
7560001300004U 090000000000000000000000000000000000000000000000000000000000000000000000000000000000000000000000000000000000000000000000002708202427082024    00000000000000000000000                       776739275600000000000000000000       
7560001300005T 0905631000000200644540000025669101011     140358197700000028022024000000000007500756056310                         091000005159507426JOSE ALAN GALINDO PEREIRA               00000000000000000000003500000000013                 
7560001300006U 090000000000000000000000000000000000000000000000000000000000000000000000000000000000000000000000000000000000000000000000002708202427082024    00000000000000000000000                       776739475600000000000000000000       
7560001300007T 0905631000000200644540000025683501011     135095700000000028022024000000000031800756056310                         091000021472802837DAYANE FEITOSA LIMA                     00000000000000000000003500000000013                 
7560001300008U 090000000000000000000000000000000000000000000000000000000000000000000000000000000000000000000000000000000000000000000000002708202427082024    00000000000000000000000                       776739675600000000000000000000       
7560001300009T 0905631000000200644540000025694601011     138694196300000028022024000000000015000756056310                         091000045433892808GABRIELA LOPES PESTANA                  00000000000000000000003500000000013                 
7560001300010U 090000000000000000000000000000000000000000000000000000000000000000000000000000000000000000000000000000000000000000000000002708202427082024    00000000000000000000000                       776739875600000000000000000000       
7560001300011T 0905631000000200644540000025714901011     139456180700000028022024000000000019080756056310                         091000082692009568SHEILA RIBEIRO DOS SANTOS               00000000000000000000003500000000013                 
7560001300012U 090000000000000000000000000000000000000000000000000000000000000000000000000000000000000000000000000000000000000000000000002708202427082024    00000000000000000000000                       776740075600000000000000000000       
7560001300013T 0905631000000200644540000025717001011     136147480000000028022024000000000029580756056310                         091000041970584890ANA VITORIA ROLIM FRANCESCHI            00000000000000000000003500000000013                 
7560001300014U 090000000000000000000000000000000000000000000000000000000000000000000000000000000000000000000000000000000000000000000000002708202427082024    00000000000000000000000                       776740275600000000000000000000       
7560001300015T 0905631000000200644540000025725001011     138004435000000028022024000000000032741756056310                         091000041970583819RICARDO FRANCESCHI FILHO                00000000000000000000003500000000013                 
7560001300016U 090000000000000000000000000000000000000000000000000000000000000000000000000000000000000000000000000000000000000000000000002708202427082024    00000000000000000000000                       776740475600000000000000000000       
7560001300017T 0905631000000200644540000025727401011     139492128200000028022024000000000040810756056310                         091000041725138832ULISSES TIAGO DO NASCIMENTO FIGUEIREDO G00000000000000000000003500000000013                 
7560001300018U 090000000000000000000000000000000000000000000000000000000000000000000000000000000000000000000000000000000000000000000000002708202427082024    00000000000000000000000                       776740675600000000000000000000       
7560001300019T 0605631000000200644540000027693701011     139952161100000025082024000000000023203104002500                         091000016059959830SILVANA FERREIRA DAMACENA               00000000000000000000003500000000004                 
7560001300020U 060000000000004800000000000000000000000000000000000000000000000000000000236830000000000236830000000000000000000000000000002708202427082024    00000000000000000000000                       776565975600000000000000000000       
7560001300021T 0605631000000200644540000027694401011     143640161100000025082024000000000005000104002500                         091000016059959830SILVANA FERREIRA DAMACENA               00000000000000000000003500000000004                 
7560001300022U 060000000000001040000000000000000000000000000000000000000000000000000000051040000000000051040000000000000000000000000000002708202427082024    00000000000000000000000                       776595175600000000000000000000       
7560001300023T 0605631000000200644540000027823501011     143601209500000010092024000000000023000104021980                         091000031086591895RODRIGO DIOGO PEREIRA                   00000000000000000000003500000000004                 
7560001300024U 060000000000000000000000000000000000000000000000000000000000000000000000230000000000000230000000000000000000000000000000002708202427082024    00000000000000000000000                       776567475600000000000000000000       
75600015         00002600001200000000000260426000000000000000000000000000000000000000000000000000000000000000000000                                                                                                                             
75699999         000001000028000000                                                                                                                                                                                                             
