75600000         229492820000120                    05631000000200873060ANEXA IDIOMAS LTDA            SICOOB                                  21911202409012000115708500000                                                                     
75600011T01  043 2029492820000120          563100002405631000000200873060ANEXA IDIOMAS LTDA                                                                                            000000001911202400000000                                 
7560001300001T 0905631000000200873060000026702701011     141161201000000020052024000000000018800756056310                         091000045097684869LUANA DA SILVA RODRIGUES                00000000000000000000003500000000013                 
7560001300002U 090000000000000000000000000000000000000000000000000000000000000000000000000000000000000000000000000000000000000000000000001811202418112024    00000000000000000000000                       798411575600000000000000000000       
7560001300003T 0905631000000200873060000026703401011     139877189100000020052024000000000033920756056310                         091000036517885803FERNANDO HENRIQUE CESTO ASCENSO         00000000000000000000003500000000013                 
7560001300004U 090000000000000000000000000000000000000000000000000000000000000000000000000000000000000000000000000000000000000000000000001811202418112024    00000000000000000000000                       798411775600000000000000000000       
7560001300005T 0905631000000200873060000026705901011     140105189500000020052024000000000033920756056310                         091000032577617836MARIA GISLENE DE HOLANDA                00000000000000000000003500000000013                 
7560001300006U 090000000000000000000000000000000000000000000000000000000000000000000000000000000000000000000000000000000000000000000000001811202418112024    00000000000000000000000                       798411975600000000000000000000       
7560001300007T 0905631000000200873060000026707301011     142339205800000020052024000000000005000756056310                         091000046586007810NICOLE DOS SANTOS                       00000000000000000000003500000000013                 
7560001300008U 090000000000000000000000000000000000000000000000000000000000000000000000000000000000000000000000000000000000000000000000001811202418112024    00000000000000000000000                       798412175600000000000000000000       
7560001300009T 0905631000000200873060000026713801011     139111186700000020052024000000000028970756056310                         091000032654262898DIEGO CESAR DE PAULA                    00000000000000000000003500000000013                 
7560001300010U 090000000000000000000000000000000000000000000000000000000000000000000000000000000000000000000000000000000000000000000000001811202418112024    00000000000000000000000                       798412375600000000000000000000       
7560001300011T 0905631000000200873060000026714501011     141161201000000020052024000000000018800756056310                         091000045097684869LUANA DA SILVA RODRIGUES                00000000000000000000003500000000013                 
7560001300012U 090000000000000000000000000000000000000000000000000000000000000000000000000000000000000000000000000000000000000000000000001811202418112024    00000000000000000000000                       798412575600000000000000000000       
7560001300013T 0905631000000200873060000026716001011     139877189100000020052024000000000033920756056310                         091000036517885803FERNANDO HENRIQUE CESTO ASCENSO         00000000000000000000003500000000013                 
7560001300014U 090000000000000000000000000000000000000000000000000000000000000000000000000000000000000000000000000000000000000000000000001811202418112024    00000000000000000000000                       798412775600000000000000000000       
7560001300015T 0905631000000200873060000026717701011     139363129800000020052024000000000017490756056310                         091000014026905845SOLANGE APARECIDA GRANGEIRO DE SOUZA    00000000000000000000003500000000013                 
7560001300016U 090000000000000000000000000000000000000000000000000000000000000000000000000000000000000000000000000000000000000000000000001811202418112024    00000000000000000000000                       798412975600000000000000000000       
7560001300017T 0905631000000200873060000026722401011     142339205800000020052024000000000005000756056310                         091000046586007810NICOLE DOS SANTOS                       00000000000000000000003500000000013                 
7560001300018U 090000000000000000000000000000000000000000000000000000000000000000000000000000000000000000000000000000000000000000000000001811202418112024    00000000000000000000000                       798413175600000000000000000000       
7560001300019T 0905631000000200873060000026723101011     142183204600000020052024000000000025470756056310                         091000031509949852VANDERLEIA ROSA DE SOUZA ANDRADE        00000000000000000000003500000000013                 
7560001300020U 090000000000000000000000000000000000000000000000000000000000000000000000000000000000000000000000000000000000000000000000001811202418112024    00000000000000000000000                       798413375600000000000000000000       
7560001300021T 0905631000000200873060000026724901011     142248204600000020052024000000000006000756056310                         091000031509949852VANDERLEIA ROSA DE SOUZA ANDRADE        00000000000000000000003500000000013                 
7560001300022U 090000000000000000000000000000000000000000000000000000000000000000000000000000000000000000000000000000000000000000000000001811202418112024    00000000000000000000000                       798413575600000000000000000000       
7560001300023T 0905631000000200873060000026726301011     141727202800000020052024000000000035200756056310                         091000043469702810RENAN FERREIRA DIAS                     00000000000000000000003500000000013                 
7560001300024U 090000000000000000000000000000000000000000000000000000000000000000000000000000000000000000000000000000000000000000000000001811202418112024    00000000000000000000000                       798413775600000000000000000000       
7560001300025T 0905631000000200873060000026728801011     141594171900000020052024000000000022360756056310                         091000020533601860LUCIANA CARVALHO                        00000000000000000000003500000000013                 
7560001300026U 090000000000000000000000000000000000000000000000000000000000000000000000000000000000000000000000000000000000000000000000001811202418112024    00000000000000000000000                       798413975600000000000000000000       
7560001300027T 0905631000000200873060000026743901011     142490204300000020052024000000000028300756056310                         091000026257486807ELIANA SOUSA DE OLIVEIRA                00000000000000000000003500000000013                 
7560001300028U 090000000000000000000000000000000000000000000000000000000000000000000000000000000000000000000000000000000000000000000000001811202418112024    00000000000000000000000                       798414175600000000000000000000       
7560001300029T 0905631000000200873060000026758901011     142516204300000020052024000000000028300756056310                         091000026257486807ELIANA SOUSA DE OLIVEIRA                00000000000000000000003500000000013                 
7560001300030U 090000000000000000000000000000000000000000000000000000000000000000000000000000000000000000000000000000000000000000000000001811202418112024    00000000000000000000000                       798414375600000000000000000000       
7560001300031T 0605631000000200873060000028600901011     139679133600000015112024000000000015741341073860                         091000034193427803EDVANIA SILVA PEREIRA                   00000000000000000000003500000000004                 
7560001300032U 060000000000000000000000000000000000000000000000000000000000000000000000157410000000000157410000000000000000000000000000001811202418112024    00000000000000000000000                       798184775600000000000000000000       
7560001300033T 0605631000000200873060000028606201011     140762163200000016112024000000000022360341002630                         091000026421529879RENATA CRISTINA SOLHA PEREZ             00000000000000000000003500000000004                 
7560001300034U 060000000000000000000000000000000000000000000000000000000000000000000000223600000000000223600000000000000000000000000000001811202418112024    00000000000000000000000                       797795275600000000000000000000       
7560001300035T 0605631000000200873060000028622001011     144478214400000015112024000000000028300237025750                         091000013236888466JULIANA KARLA FERREIRA GOES             00000000000000000000003500000000004                 
7560001300036U 060000000000000000000000000000000000000000000000000000000000000000000000283000000000000283000000000000000000000000000000001811202418112024    00000000000000000000000                       797914675600000000000000000000       
7560001300037T 0605631000000200873060000028623801011     144490214300000015112024000000000041600341040530                         091000035218589870RODRIGO BANDELLI GONCALVES              00000000000000000000003500000000004                 
7560001300038U 060000000000000000000000000000000000000000000000000000000000000000000000416000000000000416000000000000000000000000000000001811202418112024    00000000000000000000000                       797760975600000000000000000000       
75600015         00004000001900000000000449451000000000000000000000000000000000000000000000000000000000000000000000                                                                                                                             
75699999         000001000042000000                                                                                                                                                                                                             
