75600000         229492820000120                    05631000000200873060ANEXA IDIOMAS LTDA            SICOOB                                  21005202409425900105808500000                                                                     
75600011T01  043 2029492820000120          563100002405631000000200873060ANEXA IDIOMAS LTDA                                                                                            000000001005202400000000                                 
7560001300001T 0905631000000200873060000024719301011     136062189200000010112023000000000017900756056310                         091000026577600821ANA PAULA PEREIRA DA SILVA              00000000000000000000003500000000013                 
7560001300002U 090000000000000000000000000000000000000000000000000000000000000000000000000000000000000000000000000000000000000000000000000905202409052024    00000000000000000000000                       748465275600000000000000000000       
7560001300003T 0905631000000200873060000024725801011     134686120500000010112023000000000026000756056310                         091000001035046130CASSIA BUENO XIMENES MAYER              00000000000000000000003500000000013                 
7560001300004U 090000000000000000000000000000000000000000000000000000000000000000000000000000000000000000000000000000000000000000000000000905202409052024    00000000000000000000000                       748465375600000000000000000000       
7560001300005T 0905631000000200873060000024726501011     136192167600000010112023000000000055809756056310                         091000016314355826CELI PEREIRA DE OLIVEIRA                00000000000000000000003500000000013                 
7560001300006U 090000000000000000000000000000000000000000000000000000000000000000000000000000000000000000000000000000000000000000000000000905202409052024    00000000000000000000000                       748465475600000000000000000000       
7560001300007T 0905631000000200873060000024727201011     138732172900000010112023000000000005500756056310                         091000022128641837CELIA MATOS SILVA                       00000000000000000000003500000000013                 
7560001300008U 090000000000000000000000000000000000000000000000000000000000000000000000000000000000000000000000000000000000000000000000000905202409052024    00000000000000000000000                       748465575600000000000000000000       
7560001300009T 0905631000000200873060000024728001011     136603172900000010112023000000000023320756056310                         091000022128641837CELIA MATOS SILVA                       00000000000000000000003500000000013                 
7560001300010U 090000000000000000000000000000000000000000000000000000000000000000000000000000000000000000000000000000000000000000000000000905202409052024    00000000000000000000000                       748465675600000000000000000000       
7560001300011T 0905631000000200873060000024730501011     134271166800000010112023000000000019140756056310                         091000028041743870TATIANE BRUNHARO                        00000000000000000000003500000000013                 
7560001300012U 090000000000000000000000000000000000000000000000000000000000000000000000000000000000000000000000000000000000000000000000000905202409052024    00000000000000000000000                       748465775600000000000000000000       
7560001300013T 0905631000000200873060000024744801011     135503184800000010112023000000000026700756056310                         091000016158461822SERGIO APARECIDO DE BARROS SILVA        00000000000000000000003500000000013                 
7560001300014U 090000000000000000000000000000000000000000000000000000000000000000000000000000000000000000000000000000000000000000000000000905202409052024    00000000000000000000000                       748465875600000000000000000000       
7560001300015T 0905631000000200873060000024746201011     135873187800000010112023000000000031620756056310                         091000042915794898MAYARA LUCAS DE OLIVEIRA DUCA           00000000000000000000003500000000013                 
7560001300016U 090000000000000000000000000000000000000000000000000000000000000000000000000000000000000000000000000000000000000000000000000905202409052024    00000000000000000000000                       748465975600000000000000000000       
7560001300017T 0905631000000200873060000024747001011     134536130900000010112023000000000018151756056310                         091000016783525864DOMINIQUE ANTONIA COSTA                 00000000000000000000003500000000013                 
7560001300018U 090000000000000000000000000000000000000000000000000000000000000000000000000000000000000000000000000000000000000000000000000905202409052024    00000000000000000000000                       748466075600000000000000000000       
7560001300019T 0905631000000200873060000024751001011     134631166700000010112023000000000019404756056310                         091000028041743870TATIANE BRUNHARO                        00000000000000000000003500000000013                 
7560001300020U 090000000000000000000000000000000000000000000000000000000000000000000000000000000000000000000000000000000000000000000000000905202409052024    00000000000000000000000                       748466175600000000000000000000       
7560001300021T 0905631000000200873060000024752701011     135356123200000010112023000000000020871756056310                         091000012980636800ALEXANDRO SOARES                        00000000000000000000003500000000013                 
7560001300022U 090000000000000000000000000000000000000000000000000000000000000000000000000000000000000000000000000000000000000000000000000905202409052024    00000000000000000000000                       748466275600000000000000000000       
7560001300023T 0605631000000200873060000026046801011     138799946000000010052024000000000024132033035590                         091000008023621840FRANCISCA FERNANDA NICOLAU DE CARVALHO  00000000000000000000003500000000004                 
7560001300024U 060000000000000000000000000000000000000000000000000000000000000000000000241320000000000241320000000000000000000000000000000905202409052024    00000000000000000000000                       748215775600000000000000000000       
7560001300025T 0605631000000200873060000026595801011     139315162200000010052024000000000029733341069060                         091000036877483839LARISSA BARBOZA                         00000000000000000000003500000000004                 
7560001300026U 060000000000000000000000000000000000000000000000000000000000000000000000297330000000000297330000000000000000000000000000000905202409052024    00000000000000000000000                       748258875600000000000000000000       
75600015         00002800001300000000000318280000000000000000000000000000000000000000000000000000000000000000000000                                                                                                                             
75699999         000001000030000000                                                                                                                                                                                                             
