75600000         229492820000120                    05631000000200873060ANEXA IDIOMAS LTDA            SICOOB                                  21712202409245100117008500000                                                                     
75600011T01  043 2029492820000120          563100002405631000000200873060ANEXA IDIOMAS LTDA                                                                                            000000001712202400000000                                 
7560001300001T 0605631000000200873060000028967701011     139680133600000015122024000000000015741341073860                         091000034193427803EDVANIA SILVA PEREIRA                   00000000000000000000003500000000004                 
7560001300002U 060000000000000000000000000000000000000000000000000000000000000000000000157410000000000157410000000000000000000000000000001612202416122024    00000000000000000000000                       806180075600000000000000000000       
7560001300003T 0605631000000200873060000028979501011     142080152900000016122024000000000029150260000010                         091000028645823845EDNALVA RITA BEZERRA                    00000000000000000000003500000000004                 
7560001300004U 060000000000000000000000000000000000000000000000000000000000000000000000291500000000000291500000000000000000000000000000001612202416122024    00000000000000000000000                       805868275600000000000000000000       
7560001300005T 0605631000000200873060000028980301011     141762203100000015122024000000000022200104030040                         091000056970711838MARCELA ROBERTA DE ALMEIDA SILVA        00000000000000000000003500000000004                 
7560001300006U 060000000000000000000000000000000000000000000000000000000000000000000000222000000000000222000000000000000000000000000000001612202416122024    00000000000000000000000                       805972375600000000000000000000       
7560001300007T 0605631000000200873060000028981001011     140763163200000016122024000000000022360341002630                         091000026421529879RENATA CRISTINA SOLHA PEREZ             00000000000000000000003500000000004                 
7560001300008U 060000000000000000000000000000000000000000000000000000000000000000000000223600000000000223600000000000000000000000000000001612202416122024    00000000000000000000000                       806061475600000000000000000000       
7560001300009T 0605631000000200873060000028983501011     144479214400000015122024000000000028300237025750                         091000013236888466JULIANA KARLA FERREIRA GOES             00000000000000000000003500000000004                 
7560001300010U 060000000000000000000000000000000000000000000000000000000000000000000000283000000000000283000000000000000000000000000000001612202416122024    00000000000000000000000                       805964975600000000000000000000       
7560001300011T 0605631000000200873060000028986701011     142821177300000015122024000000000022360033015720                         091000028030189850ANDREIA CRISTINA SIGNER                 00000000000000000000003500000000004                 
7560001300012U 060000000000000000000000000000000000000000000000000000000000000000000000223600000000000223600000000000000000000000000000001612202416122024    00000000000000000000000                       806276475600000000000000000000       
7560001300013T 0605631000000200873060000028997801011     144491214300000015122024000000000041600341040530                         091000035218589870RODRIGO BANDELLI GONCALVES              00000000000000000000003500000000004                 
7560001300014U 060000000000000000000000000000000000000000000000000000000000000000000000416000000000000416000000000000000000000000000000001612202416122024    00000000000000000000000                       806142875600000000000000000000       
75600015         00001600000700000000000181711000000000000000000000000000000000000000000000000000000000000000000000                                                                                                                             
75699999         000001000018000000                                                                                                                                                                                                             
