75600000         232970660000191                    05631000000200980140EDUULMC CURSOS DE IDIOMAS LTDASICOOB                                  22012202415540400094508500000                                                                     
75600011T01  043 2032970660000191          563100002405631000000200980140EDUULMC CURSOS DE IDIOMAS LTDA                                                                                000000002012202400000000                                 
7560001300001T 0605631000000200980140000029007001011     139094158400000020122024000000000023203033010360                         091000043877622844DANIELLE AQUINO GASPAR                  00000000000000000000000000000000004                 
7560001300002U 060000000000000000000000000000000000000000000000000000000000000000000000232030000000000232030000000000000000000000000000002012202420122024    00000000000000000000000                       807551575600000000000000000000       
7560001300003T 0605631000000200980140000029011001011     142306205500000025122024000000000070000237023800                         091000023105369899PABLO ALBERTO ALBANO                    00000000000000000000000000000000004                 
7560001300004U 060000000000000000000000000000000000000000000000000000000000000000000000700000000000000700000000000000000000000000000000002012202420122024    00000000000000000000000                       807497775600000000000000000000       
7560001300005T 0605631000000200980140000029013501011     139226293000000020122024000000000065296001069140                         091000003696482854NADIR FRANCISCO DO AMARAL               00000000000000000000000000000000004                 
7560001300006U 060000000000000000000000000000000000000000000000000000000000000000000000652960000000000652960000000000000000000000000000002012202420122024    00000000000000000000000                       807485675600000000000000000000       
75600015         00000800000300000000000158499000000000000000000000000000000000000000000000000000000000000000000000                                                                                                                             
75699999         000001000010000000                                                                                                                                                                                                             
