75600000         219895217000135                    05631000000200644540IWS CURSOS DE IDIOMAS LTDA    SICOOB                                  21912202411250900145108500000                                                                     
75600011T01  043 2019895217000135          563100002405631000000200644540IWS CURSOS DE IDIOMAS LTDA                                                                                    000000001912202400000000                                 
7560001300001T 0905631000000200644540000027008001011     137888116300000020062024000000000031482756056310                         091000047950320842ANA CLARA DE SOUZA RODRIGUES            00000000000000000000003500000000013                 
7560001300002U 090000000000000000000000000000000000000000000000000000000000000000000000000000000000000000000000000000000000000000000000001812202418122024    00000000000000000000000                       807150475600000000000000000000       
7560001300003T 0905631000000200644540000027009701011     139626183700000020062024000000000019080756056310                         091000016695147817RENATO BEZERRA SANTANA                  00000000000000000000003500000000013                 
7560001300004U 090000000000000000000000000000000000000000000000000000000000000000000000000000000000000000000000000000000000000000000000001812202418122024    00000000000000000000000                       807150575600000000000000000000       
7560001300005T 0905631000000200644540000027014401011     141258201500000020062024000000000019900756056310                         091000018352738828SILVIA CRISTINA DE SOUZA                00000000000000000000003500000000013                 
7560001300006U 090000000000000000000000000000000000000000000000000000000000000000000000000000000000000000000000000000000000000000000000001812202418122024    00000000000000000000000                       807150675600000000000000000000       
7560001300007T 0905631000000200644540000027016901011     142497184300000020062024000000000023720756056310                         091000021895277833ERIC HENRIQUE VASCONCELLOS SANTOS       00000000000000000000003500000000013                 
7560001300008U 090000000000000000000000000000000000000000000000000000000000000000000000000000000000000000000000000000000000000000000000001812202418122024    00000000000000000000000                       807150775600000000000000000000       
7560001300009T 0905631000000200644540000027020901011     142494184700000020062024000000000025176756056310                         091000021895277833ERIC HENRIQUE VASCONCELLOS SANTOS       00000000000000000000003500000000013                 
7560001300010U 090000000000000000000000000000000000000000000000000000000000000000000000000000000000000000000000000000000000000000000000001812202418122024    00000000000000000000000                       807149675600000000000000000000       
7560001300011T 0905631000000200644540000027028701011     139328322000000020062024000000000026500756056310                         091000037621716886LAYS MELO DE OLIVEIRA                   00000000000000000000003500000000013                 
7560001300012U 090000000000000000000000000000000000000000000000000000000000000000000000000000000000000000000000000000000000000000000000001812202418122024    00000000000000000000000                       807149775600000000000000000000       
7560001300013T 0905631000000200644540000027037301011     137118165500000020062024000000000018656756056310                         091000034327342807SHEILA NUNES DE SOUZA                   00000000000000000000003500000000013                 
7560001300014U 090000000000000000000000000000000000000000000000000000000000000000000000000000000000000000000000000000000000000000000000001812202418122024    00000000000000000000000                       807149875600000000000000000000       
7560001300015T 0905631000000200644540000027039801011     138547572000000020062024000000000037100756056310                         091000026425715804WALQUIRIA BATISTA DA SILVA              00000000000000000000003500000000013                 
7560001300016U 090000000000000000000000000000000000000000000000000000000000000000000000000000000000000000000000000000000000000000000000001812202418122024    00000000000000000000000                       807149975600000000000000000000       
7560001300017T 0905631000000200644540000027042001011     138824132000000020062024000000000033500756056310                         091000014040948068HELOISA HELENA MONTEIRO KROMBERG        00000000000000000000003500000000013                 
7560001300018U 090000000000000000000000000000000000000000000000000000000000000000000000000000000000000000000000000000000000000000000000001812202418122024    00000000000000000000000                       807150075600000000000000000000       
7560001300019T 0605631000000200644540000029068001011     143482208400000010012025000000000038720341040880                         091000015095382830CRISTINA MAKIKO SAITO HIRANO            00000000000000000000003500000000004                 
7560001300020U 060000000000000000000000000000000000000000000000000000000000000000000000387200000000000387200000000000000000000000000000001812202418122024    00000000000000000000000                       807074775600000000000000000000       
7560001300021T 0605631000000200644540000029121601011     142870537000000010012025000000000055618341070550                         091000009017220813SUZI SANTOS MONIZ                       00000000000000000000003500000000004                 
7560001300022U 060000000000000000000000000000000000000000000000000000000000000000000000556180000000000556180000000000000000000000000000001812202418122024    00000000000000000000000                       807079175600000000000000000000       
75600015         00002400001100000000000329452000000000000000000000000000000000000000000000000000000000000000000000                                                                                                                             
75699999         000001000026000000                                                                                                                                                                                                             
