75600000         219895217000135                    05631000000200644540IWS CURSOS DE IDIOMAS LTDA    SICOOB                                  22101202511414700146808500000                                                                     
75600011T01  043 2019895217000135          563100002405631000000200644540IWS CURSOS DE IDIOMAS LTDA                                                                                    000000002101202500000000                                 
7560001300001T 0605631000000200644540000029234301011     140017147600000020012025000000000031500033010360                         091000043062398884KARINE ARAUJO DOS ANJOS                 00000000000000000000003500000000004                 
7560001300002U 060000000000000000000000000000000000000000000000000000000000000000000000315000000000000315000000000000000000000000000000002001202520012025    00000000000000000000000                       815188375600000000000000000000       
7560001300003T 0605631000000200644540000029237501011     142846354000000020012025000000000026993033007660                         091000021920881832MARCELO DA SILVA FREIRE                 00000000000000000000003500000000004                 
7560001300004U 060000000000000000000000000000000000000000000000000000000000000000000000269930000000000269930000000000000000000000000000002001202520012025    00000000000000000000000                       815188075600000000000000000000       
7560001300005T 0605631000000200644540000029240801011     144328213500000020012025000000000069600237017690                         091000042363400895MARIA TEREZA BORATTO BARBOSA            00000000000000000000003500000000004                 
7560001300006U 060000000000000000000000000000000000000000000000000000000000000000000000696000000000000696000000000000000000000000000000002001202520012025    00000000000000000000000                       814969075600000000000000000000       
7560001300007T 0605631000000200644540000029246101011     139287489000000020012025000000000027961237001560                         091000048915085825JOYCE BOLOGNANI ROVERI                  00000000000000000000003500000000004                 
7560001300008U 060000000000000000000000000000000000000000000000000000000000000000000000279610000000000279610000000000000000000000000000002001202520012025    00000000000000000000000                       814972075600000000000000000000       
7560001300009T 0605631000000200644540000029248601011     139491132200000020012025000000000034280341062410                         091000000887279805THAIS FAE LAVAREDA DE SOUZA             00000000000000000000003500000000004                 
7560001300010U 060000000000000000000000000000000000000000000000000000000000000000000000342800000000000342800000000000000000000000000000002001202520012025    00000000000000000000000                       815172575600000000000000000000       
75600015         00001200000500000000000190334000000000000000000000000000000000000000000000000000000000000000000000                                                                                                                             
75699999         000001000014000000                                                                                                                                                                                                             
