75600000         229492820000120                    05631000000200873060ANEXA IDIOMAS LTDA            SICOOB                                  22101202511414700118808500000                                                                     
75600011T01  043 2029492820000120          563100002405631000000200873060ANEXA IDIOMAS LTDA                                                                                            000000002101202500000000                                 
7560001300001T 0605631000000200873060000029220801011     140597900000000020012025000000000176818341010170                         092060687639000119PLURY QUIMICAS                          00000000000000000000003500000000004                 
7560001300002U 060000000000000000000000000000000000000000000000000000000000000000000001768180000000001768180000000000000000000000000000002001202520012025    00000000000000000000000                       815305675600000000000000000000       
7560001300003T 0605631000000200873060000029251601011     139119186700000020012025000000000028970341071660                         091000032654262898DIEGO CESAR DE PAULA                    00000000000000000000003500000000004                 
7560001300004U 060000000000000000000000000000000000000000000000000000000000000000000000289700000000000289700000000000000000000000000000002001202520012025    00000000000000000000000                       815341875600000000000000000000       
7560001300005T 0605631000000200873060000029252301011     144129186700000020012025000000000003000341071660                         091000032654262898DIEGO CESAR DE PAULA                    00000000000000000000003500000000004                 
7560001300006U 060000000000000000000000000000000000000000000000000000000000000000000000030000000000000030000000000000000000000000000000002001202520012025    00000000000000000000000                       815315675600000000000000000000       
7560001300007T 0605631000000200873060000029255501011     139371129800000020012025000000000017490001032660                         091000014026905845SOLANGE APARECIDA GRANGEIRO DE SOUZA    00000000000000000000003500000000004                 
7560001300008U 060000000000000000000000000000000000000000000000000000000000000000000000174900000000000174900000000000000000000000000000002001202520012025    00000000000000000000000                       815204875600000000000000000000       
7560001300009T 0605631000000200873060000029258701011     141735202800000020012025000000000035200033015720                         091000043469702810RENAN FERREIRA DIAS                     00000000000000000000003500000000004                 
7560001300010U 060000000000000000000000000000000000000000000000000000000000000000000000352000000000000352000000000000000000000000000000002001202520012025    00000000000000000000000                       815227175600000000000000000000       
7560001300011T 0605631000000200873060000029259401011     141602171900000020012025000000000022360033047230                         091000020533601860LUCIANA CARVALHO                        00000000000000000000003500000000004                 
7560001300012U 060000000000000000000000000000000000000000000000000000000000000000000000223600000000000223600000000000000000000000000000002001202520012025    00000000000000000000000                       815233375600000000000000000000       
75600015         00001400000600000000000283838000000000000000000000000000000000000000000000000000000000000000000000                                                                                                                             
75699999         000001000016000000                                                                                                                                                                                                             
