75600000         232970660000191                    05631000000200980140EDUULMC CURSOS DE IDIOMAS LTDASICOOB                                  22712202420594400094808500000                                                                     
75600011T01  043 2032970660000191          563100002405631000000200980140EDUULMC CURSOS DE IDIOMAS LTDA                                                                                000000002712202400000000                                 
7560001300001T 0905631000000200980140000027076001011     140202184100000028062024000000000024057756056310                         091000043322125840PIETRA MARTINS DA SILVA                 00000000000000000000003500000000013                 
7560001300002U 090000000000000000000000000000000000000000000000000000000000000000000000000000000000000000000000000000000000000000000000002612202426122024    00000000000000000000000                       808862275600000000000000000000       
7560001300003T 0605631000000200980140000029012801011     139202149800000025122024000000000029150237001220                         091000027893285877ANA PAULA HAMMERMEISTER GIMENES         00000000000000000000003500000000004                 
7560001300004U 060000000000000000000000000000000000000000000000000000000000000000000000291500000000000291500000000000000000000000000000002612202426122024    00000000000000000000000                       808862175600000000000000000000       
7560001300005T 0605631000000200980140000029021401011     144057211800000025122024000000000028302260000010                         091000022651413801RAQUEL VIEIRA FONTES                    00000000000000000000003500000000004                 
7560001300006U 060000000000000000000000000000000000000000000000000000000000000000000000283020000000000283020000000000000000000000000000002612202426122024    00000000000000000000000                       808627275600000000000000000000       
7560001300007T 0605631000000200980140000029022101011     144069211800000025122024000000000003000260000010                         091000022651413801RAQUEL VIEIRA FONTES                    00000000000000000000003500000000004                 
7560001300008U 060000000000000000000000000000000000000000000000000000000000000000000000030000000000000030000000000000000000000000000000002612202426122024    00000000000000000000000                       808634375600000000000000000000       
7560001300009T 0605631000000200980140000029185701011     141410170300000010012025000000000022472001068820                         091000033280346843ANSELMO DA SILVA                        00000000000000000000003500000000004                 
7560001300010U 060000000000000000000000000000000000000000000000000000000000000000000000224720000000000224720000000000000000000000000000002612202426122024    00000000000000000000000                       808497175600000000000000000000       
75600015         00001200000500000000000106981000000000000000000000000000000000000000000000000000000000000000000000                                                                                                                             
75699999         000001000014000000                                                                                                                                                                                                             
