00100000         2198952170001350032912580014       0332780000000364436 IWS CURSOS DE IDIOMAS LTDA    BANCO DO BRASIL                         20311202002231500003703000000517642287PROCESSAMEN                                                 
00100011T0100020 20198952170001350032912580014       0332780000000364436 IWS CURSOS DE IDIOMAS LTDA                                                                                    000000000311202000000000  000000000                      
00100015         000002000001000000000000003500000000000000000000000000000000000000000000000000000000000000000000000000000000000000000000000000000                                                                                              
00199999         000001000004000000                                                                                                                                                            00000000000000000000000000000                    
