75600000         219895217000135                    05142000000000644590IWS Cursos de Idiomas Ltda    SICOOB                                  12011201823141900000108100000                                                                     
75600041R01  040 2019895217000135                    0514200000000064459 IWS Cursos de Idiomas Ltda                                                                                    000000042011201800000000                                 
75600045         00000000000000000000000000000000000000000000000000000000000000000000000000000000000000000000000000                                                                                                                             
75699999         000001000000000000                                                                                                                                                                                                             
